{"abi":[{"inputs":[{"internalType":"address","name":"_contractAddress","type":"address"}],"stateMutability":"nonpayable","type":"constructor","name":"constructor"},{"anonymous":false,"inputs":[{"indexed":false,"internalType":"address","name":"_cooperant","type":"address"},{"indexed":false,"internalType":"uint256","name":"_kilograms","type":"uint256"}],"name":"depositFruits","type":"event"},{"anonymous":false,"inputs":[{"indexed":false,"internalType":"address","name":"_sender","type":"address"},{"indexed":false,"internalType":"uint256","name":"_amount","type":"uint256"}],"name":"makeTransfer","type":"event"},{"inputs":[],"name":"COOPTokenAddress","outputs":[{"internalType":"address","name":"","type":"address"}],"stateMutability":"view","type":"function"},{"inputs":[{"internalType":"uint256","name":"_kg","type":"uint256"}],"name":"depositFruitsToCOOP","outputs":[{"internalType":"bool","name":"","type":"bool"}],"stateMutability":"nonpayable","type":"function"},{"inputs":[],"name":"fundCoop","outputs":[{"internalType":"bool","name":"","type":"bool"}],"stateMutability":"payable","type":"function"},{"inputs":[{"internalType":"address","name":"_salje","type":"address"}],"name":"getUserAccountBalance","outputs":[{"internalType":"uint256","name":"","type":"uint256"},{"internalType":"uint256","name":"","type":"uint256"},{"internalType":"uint256","name":"","type":"uint256"}],"stateMutability":"view","type":"function"},{"inputs":[],"name":"owner","outputs":[{"internalType":"address","name":"","type":"address"}],"stateMutability":"view","type":"function"}],"bytecode":"608060405234801561001057600080fd5b5060405161052e38038061052e83398101604081905261002f9161006c565b600180546001600160a01b03199081163317909155600280546001600160a01b03939093169282168317905560008054909116909117905561009c565b60006020828403121561007e57600080fd5b81516001600160a01b038116811461009557600080fd5b9392505050565b610483806100ab6000396000f3fe60806040526004361061004a5760003560e01c80633f7f4f171461004f5780634f557cb91461008f5780635f24a711146100bf5780638da5cb5b146100f7578063937a479b14610117575b600080fd5b34801561005b57600080fd5b5061006f61006a36600461035a565b61011f565b604080519384526020840192909252908201526060015b60405180910390f35b34801561009b57600080fd5b506100af6100aa3660046103ac565b6101db565b6040519015158152602001610086565b3480156100cb57600080fd5b506002546100df906001600160a01b031681565b6040516001600160a01b039091168152602001610086565b34801561010357600080fd5b506001546100df906001600160a01b031681565b6100af610261565b6001600160a01b038181166000818152600360205260408082208054600190910154835492516370a0823160e01b815260048101959095529294859485949293670de0b6b3a76400009216906370a082319060240160206040518083038186803b15801561018c57600080fd5b505afa1580156101a0573d6000803e3d6000fd5b505050506040513d601f19601f820116820180604052508101906101c491906103c5565b6101ce91906103f6565b9250925092509193909250565b336000908152600360205260408120600101805483919083906101ff9084906103de565b9091555061021f905061021a83670de0b6b3a7640000610418565b6102c5565b5060408051338152602081018490527ff039199e7845f74a76233c18d06633174ae9f2c7c6c61e4a79732156bd173391910160405180910390a1506001919050565b336000908152600360205260408120805434919083906102829084906103de565b9091555050604080513381523460208201527fabea22cc786bf6a8cd9dcbdd7c74b7f69f694f63f2d0ca9c5f40c68e56be3cf7910160405180910390a150600190565b600080546001546040516317d5759960e31b81526001600160a01b0391821660048201523360248201526044810185905291169063beabacc890606401602060405180830381600087803b15801561031c57600080fd5b505af1158015610330573d6000803e3d6000fd5b505050506040513d601f19601f82011682018060405250810190610354919061038a565b92915050565b60006020828403121561036c57600080fd5b81356001600160a01b038116811461038357600080fd5b9392505050565b60006020828403121561039c57600080fd5b8151801515811461038357600080fd5b6000602082840312156103be57600080fd5b5035919050565b6000602082840312156103d757600080fd5b5051919050565b600082198211156103f1576103f1610437565b500190565b60008261041357634e487b7160e01b600052601260045260246000fd5b500490565b600081600019048311821515161561043257610432610437565b500290565b634e487b7160e01b600052601160045260246000fdfea264697066735822122052cba85600c60c01a05665e4e4d9515e8ce805f40fc33b08951451af89a4fd6664736f6c63430008060033","bytecodeSha1":"fa819e3f2ec8f7394b2948be01cadf6ecd9a55f6","compiler":{"evm_version":"istanbul","optimizer":{"enabled":true,"runs":200},"version":"0.8.6+commit.11564f7e"},"contractName":"Coop","language":"Solidity","natspec":{"kind":"dev","methods":{},"version":1},"opcodes":"PUSH1 0x80 PUSH1 0x40 MSTORE PUSH1 0x4 CALLDATASIZE LT PUSH2 0x4A JUMPI PUSH1 0x0 CALLDATALOAD PUSH1 0xE0 SHR DUP1 PUSH4 0x3F7F4F17 EQ PUSH2 0x4F JUMPI DUP1 PUSH4 0x4F557CB9 EQ PUSH2 0x8F JUMPI DUP1 PUSH4 0x5F24A711 EQ PUSH2 0xBF JUMPI DUP1 PUSH4 0x8DA5CB5B EQ PUSH2 0xF7 JUMPI DUP1 PUSH4 0x937A479B EQ PUSH2 0x117 JUMPI JUMPDEST PUSH1 0x0 DUP1 REVERT JUMPDEST CALLVALUE DUP1 ISZERO PUSH2 0x5B JUMPI PUSH1 0x0 DUP1 REVERT JUMPDEST POP PUSH2 0x6F PUSH2 0x6A CALLDATASIZE PUSH1 0x4 PUSH2 0x35A JUMP JUMPDEST PUSH2 0x11F JUMP JUMPDEST PUSH1 0x40 DUP1 MLOAD SWAP4 DUP5 MSTORE PUSH1 0x20 DUP5 ADD SWAP3 SWAP1 SWAP3 MSTORE SWAP1 DUP3 ADD MSTORE PUSH1 0x60 ADD JUMPDEST PUSH1 0x40 MLOAD DUP1 SWAP2 SUB SWAP1 RETURN JUMPDEST CALLVALUE DUP1 ISZERO PUSH2 0x9B JUMPI PUSH1 0x0 DUP1 REVERT JUMPDEST POP PUSH2 0xAF PUSH2 0xAA CALLDATASIZE PUSH1 0x4 PUSH2 0x3AC JUMP JUMPDEST PUSH2 0x1DB JUMP JUMPDEST PUSH1 0x40 MLOAD SWAP1 ISZERO ISZERO DUP2 MSTORE PUSH1 0x20 ADD PUSH2 0x86 JUMP JUMPDEST CALLVALUE DUP1 ISZERO PUSH2 0xCB JUMPI PUSH1 0x0 DUP1 REVERT JUMPDEST POP PUSH1 0x2 SLOAD PUSH2 0xDF SWAP1 PUSH1 0x1 PUSH1 0x1 PUSH1 0xA0 SHL SUB AND DUP2 JUMP JUMPDEST PUSH1 0x40 MLOAD PUSH1 0x1 PUSH1 0x1 PUSH1 0xA0 SHL SUB SWAP1 SWAP2 AND DUP2 MSTORE PUSH1 0x20 ADD PUSH2 0x86 JUMP JUMPDEST CALLVALUE DUP1 ISZERO PUSH2 0x103 JUMPI PUSH1 0x0 DUP1 REVERT JUMPDEST POP PUSH1 0x1 SLOAD PUSH2 0xDF SWAP1 PUSH1 0x1 PUSH1 0x1 PUSH1 0xA0 SHL SUB AND DUP2 JUMP JUMPDEST PUSH2 0xAF PUSH2 0x261 JUMP JUMPDEST PUSH1 0x1 PUSH1 0x1 PUSH1 0xA0 SHL SUB DUP2 DUP2 AND PUSH1 0x0 DUP2 DUP2 MSTORE PUSH1 0x3 PUSH1 0x20 MSTORE PUSH1 0x40 DUP1 DUP3 KECCAK256 DUP1 SLOAD PUSH1 0x1 SWAP1 SWAP2 ADD SLOAD DUP4 SLOAD SWAP3 MLOAD PUSH4 0x70A08231 PUSH1 0xE0 SHL DUP2 MSTORE PUSH1 0x4 DUP2 ADD SWAP6 SWAP1 SWAP6 MSTORE SWAP3 SWAP5 DUP6 SWAP5 DUP6 SWAP5 SWAP3 SWAP4 PUSH8 0xDE0B6B3A7640000 SWAP3 AND SWAP1 PUSH4 0x70A08231 SWAP1 PUSH1 0x24 ADD PUSH1 0x20 PUSH1 0x40 MLOAD DUP1 DUP4 SUB DUP2 DUP7 DUP1 EXTCODESIZE ISZERO DUP1 ISZERO PUSH2 0x18C JUMPI PUSH1 0x0 DUP1 REVERT JUMPDEST POP GAS STATICCALL ISZERO DUP1 ISZERO PUSH2 0x1A0 JUMPI RETURNDATASIZE PUSH1 0x0 DUP1 RETURNDATACOPY RETURNDATASIZE PUSH1 0x0 REVERT JUMPDEST POP POP POP POP PUSH1 0x40 MLOAD RETURNDATASIZE PUSH1 0x1F NOT PUSH1 0x1F DUP3 ADD AND DUP3 ADD DUP1 PUSH1 0x40 MSTORE POP DUP2 ADD SWAP1 PUSH2 0x1C4 SWAP2 SWAP1 PUSH2 0x3C5 JUMP JUMPDEST PUSH2 0x1CE SWAP2 SWAP1 PUSH2 0x3F6 JUMP JUMPDEST SWAP3 POP SWAP3 POP SWAP3 POP SWAP2 SWAP4 SWAP1 SWAP3 POP JUMP JUMPDEST CALLER PUSH1 0x0 SWAP1 DUP2 MSTORE PUSH1 0x3 PUSH1 0x20 MSTORE PUSH1 0x40 DUP2 KECCAK256 PUSH1 0x1 ADD DUP1 SLOAD DUP4 SWAP2 SWAP1 DUP4 SWAP1 PUSH2 0x1FF SWAP1 DUP5 SWAP1 PUSH2 0x3DE JUMP JUMPDEST SWAP1 SWAP2 SSTORE POP PUSH2 0x21F SWAP1 POP PUSH2 0x21A DUP4 PUSH8 0xDE0B6B3A7640000 PUSH2 0x418 JUMP JUMPDEST PUSH2 0x2C5 JUMP JUMPDEST POP PUSH1 0x40 DUP1 MLOAD CALLER DUP2 MSTORE PUSH1 0x20 DUP2 ADD DUP5 SWAP1 MSTORE PUSH32 0xF039199E7845F74A76233C18D06633174AE9F2C7C6C61E4A79732156BD173391 SWAP2 ADD PUSH1 0x40 MLOAD DUP1 SWAP2 SUB SWAP1 LOG1 POP PUSH1 0x1 SWAP2 SWAP1 POP JUMP JUMPDEST CALLER PUSH1 0x0 SWAP1 DUP2 MSTORE PUSH1 0x3 PUSH1 0x20 MSTORE PUSH1 0x40 DUP2 KECCAK256 DUP1 SLOAD CALLVALUE SWAP2 SWAP1 DUP4 SWAP1 PUSH2 0x282 SWAP1 DUP5 SWAP1 PUSH2 0x3DE JUMP JUMPDEST SWAP1 SWAP2 SSTORE POP POP PUSH1 0x40 DUP1 MLOAD CALLER DUP2 MSTORE CALLVALUE PUSH1 0x20 DUP3 ADD MSTORE PUSH32 0xABEA22CC786BF6A8CD9DCBDD7C74B7F69F694F63F2D0CA9C5F40C68E56BE3CF7 SWAP2 ADD PUSH1 0x40 MLOAD DUP1 SWAP2 SUB SWAP1 LOG1 POP PUSH1 0x1 SWAP1 JUMP JUMPDEST PUSH1 0x0 DUP1 SLOAD PUSH1 0x1 SLOAD PUSH1 0x40 MLOAD PUSH4 0x17D57599 PUSH1 0xE3 SHL DUP2 MSTORE PUSH1 0x1 PUSH1 0x1 PUSH1 0xA0 SHL SUB SWAP2 DUP3 AND PUSH1 0x4 DUP3 ADD MSTORE CALLER PUSH1 0x24 DUP3 ADD MSTORE PUSH1 0x44 DUP2 ADD DUP6 SWAP1 MSTORE SWAP2 AND SWAP1 PUSH4 0xBEABACC8 SWAP1 PUSH1 0x64 ADD PUSH1 0x20 PUSH1 0x40 MLOAD DUP1 DUP4 SUB DUP2 PUSH1 0x0 DUP8 DUP1 EXTCODESIZE ISZERO DUP1 ISZERO PUSH2 0x31C JUMPI PUSH1 0x0 DUP1 REVERT JUMPDEST POP GAS CALL ISZERO DUP1 ISZERO PUSH2 0x330 JUMPI RETURNDATASIZE PUSH1 0x0 DUP1 RETURNDATACOPY RETURNDATASIZE PUSH1 0x0 REVERT JUMPDEST POP POP POP POP PUSH1 0x40 MLOAD RETURNDATASIZE PUSH1 0x1F NOT PUSH1 0x1F DUP3 ADD AND DUP3 ADD DUP1 PUSH1 0x40 MSTORE POP DUP2 ADD SWAP1 PUSH2 0x354 SWAP2 SWAP1 PUSH2 0x38A JUMP JUMPDEST SWAP3 SWAP2 POP POP JUMP JUMPDEST PUSH1 0x0 PUSH1 0x20 DUP3 DUP5 SUB SLT ISZERO PUSH2 0x36C JUMPI PUSH1 0x0 DUP1 REVERT JUMPDEST DUP2 CALLDATALOAD PUSH1 0x1 PUSH1 0x1 PUSH1 0xA0 SHL SUB DUP2 AND DUP2 EQ PUSH2 0x383 JUMPI PUSH1 0x0 DUP1 REVERT JUMPDEST SWAP4 SWAP3 POP POP POP JUMP JUMPDEST PUSH1 0x0 PUSH1 0x20 DUP3 DUP5 SUB SLT ISZERO PUSH2 0x39C JUMPI PUSH1 0x0 DUP1 REVERT JUMPDEST DUP2 MLOAD DUP1 ISZERO ISZERO DUP2 EQ PUSH2 0x383 JUMPI PUSH1 0x0 DUP1 REVERT JUMPDEST PUSH1 0x0 PUSH1 0x20 DUP3 DUP5 SUB SLT ISZERO PUSH2 0x3BE JUMPI PUSH1 0x0 DUP1 REVERT JUMPDEST POP CALLDATALOAD SWAP2 SWAP1 POP JUMP JUMPDEST PUSH1 0x0 PUSH1 0x20 DUP3 DUP5 SUB SLT ISZERO PUSH2 0x3D7 JUMPI PUSH1 0x0 DUP1 REVERT JUMPDEST POP MLOAD SWAP2 SWAP1 POP JUMP JUMPDEST PUSH1 0x0 DUP3 NOT DUP3 GT ISZERO PUSH2 0x3F1 JUMPI PUSH2 0x3F1 PUSH2 0x437 JUMP JUMPDEST POP ADD SWAP1 JUMP JUMPDEST PUSH1 0x0 DUP3 PUSH2 0x413 JUMPI PUSH4 0x4E487B71 PUSH1 0xE0 SHL PUSH1 0x0 MSTORE PUSH1 0x12 PUSH1 0x4 MSTORE PUSH1 0x24 PUSH1 0x0 REVERT JUMPDEST POP DIV SWAP1 JUMP JUMPDEST PUSH1 0x0 DUP2 PUSH1 0x0 NOT DIV DUP4 GT DUP3 ISZERO ISZERO AND ISZERO PUSH2 0x432 JUMPI PUSH2 0x432 PUSH2 0x437 JUMP JUMPDEST POP MUL SWAP1 JUMP JUMPDEST PUSH4 0x4E487B71 PUSH1 0xE0 SHL PUSH1 0x0 MSTORE PUSH1 0x11 PUSH1 0x4 MSTORE PUSH1 0x24 PUSH1 0x0 REVERT INVALID LOG2 PUSH5 0x6970667358 0x22 SLT KECCAK256 MSTORE 0xCB 0xA8 JUMP STOP 0xC6 0xC ADD LOG0 JUMP PUSH6 0xE4E4D9515E8C 0xE8 SDIV DELEGATECALL 0xF 0xC3 EXTCODESIZE ADDMOD SWAP6 EQ MLOAD 0xAF DUP10 LOG4 REVERT PUSH7 0x64736F6C634300 ADDMOD MOD STOP CALLER ","sha1":"a1b7e3888b69873f7af147dc0439b90fd4e902ef","source":"// SPDX-License-Identifier: MIT\nimport \"./COOPToken.sol\";\n\npragma solidity ^0.8.0;\n\ncontract Coop {\n   \n    COOPToken internal coopToken;\n\n    address public owner;\n    address public COOPTokenAddress;\n    \n    // map of cooperant addresses to structs\n    mapping (address => Cooperant) cooperants;      \n        \n    struct Cooperant {\n        uint256 feePayed;\n        uint256 kg;\n    } \n        \n    constructor (address _contractAddress) {\n       owner = msg.sender;\n       COOPTokenAddress = _contractAddress;\n       coopToken = COOPToken(COOPTokenAddress);\n    } \n\n    event makeTransfer (address _sender, uint256 _amount);\n    event depositFruits (address _cooperant, uint256 _kilograms);\n    \n   \n    // modifier onlyOwner() {\n    //   require(msg.sender == owner, \"Not authorized.\");\n    //   _;\n    // }\n\n    // WIDROW FUNCTION\n//     function withdraw(uint _amount) public payable onlyOwner {\n//      owner.transfer(_amount);\n//   }\n    \n    \n    // Izbaciti payable zato sto ne placam nista\n    function coopTokenTransfer (uint256 _kg) private returns (bool) {        \n        return coopToken.transfer(owner, msg.sender, _kg);\n    }  \n    \n\n    // fund COOP with yearly fee\n    // proveriti gde ide ovaj novac, da li na racun ugovora\n    function fundCoop() public payable returns (bool) {\n        cooperants[msg.sender].feePayed += msg.value;\n        emit makeTransfer(msg.sender, msg.value);\n        return true;\n    }\n    \n    // videti ovu funkciju iz bezbednosnog ugla jer ovako kako stoji prakticno mzoe bilo ko da je koristi kolko oce\n    function depositFruitsToCOOP(uint256 _kg) public returns (bool) {\n        cooperants[msg.sender].kg += _kg;\n        coopTokenTransfer(_kg*(10**18));  \n        emit depositFruits (msg.sender, _kg);\n        return true;  \n     }       \n       \n   \n    // // Inherited function from COOPToken Contract\n    //  function getCoopTokenUserbalance (address _userAddress) public view returns (uint) {        \n    //     return coopToken.balanceOf(_userAddress)/(10**18);        \n    // }  \n    \n    function getUserAccountBalance(address _salje) public view returns (uint256, uint256, uint256) {\n        return (cooperants[_salje].feePayed, cooperants[_salje].kg, coopToken.balanceOf(_salje)/(10**18));\n    }\n}","sourcePath":"contracts/coop.sol","type":"contract","deployment":{"address":"0x8DEC7d4C28fc8BDfE620E28d242d5F7b84183eE1","chainid":"42","blockHeight":27983999}}