{"abi":[{"inputs":[{"internalType":"address","name":"contractAddress","type":"address"}],"stateMutability":"nonpayable","type":"constructor","name":"constructor"},{"anonymous":false,"inputs":[{"indexed":false,"internalType":"address","name":"cooperant","type":"address"},{"indexed":false,"internalType":"uint256","name":"kilograms","type":"uint256"}],"name":"DepositFruits","type":"event"},{"anonymous":false,"inputs":[{"indexed":false,"internalType":"address","name":"sender","type":"address"},{"indexed":false,"internalType":"uint256","name":"amount","type":"uint256"}],"name":"NewMember","type":"event"},{"anonymous":false,"inputs":[{"indexed":false,"internalType":"string","name":"message","type":"string"}],"name":"NotEnoughGoods","type":"event"},{"anonymous":false,"inputs":[{"indexed":true,"internalType":"address","name":"previousOwner","type":"address"},{"indexed":true,"internalType":"address","name":"newOwner","type":"address"}],"name":"OwnershipTransferred","type":"event"},{"anonymous":false,"inputs":[{"indexed":false,"internalType":"address","name":"account","type":"address"}],"name":"Paused","type":"event"},{"anonymous":false,"inputs":[{"indexed":false,"internalType":"address","name":"sender","type":"address"},{"indexed":false,"internalType":"uint256","name":"amount","type":"uint256"}],"name":"ToContract","type":"event"},{"anonymous":false,"inputs":[{"indexed":false,"internalType":"string","name":"message","type":"string"},{"indexed":false,"internalType":"uint256","name":"_inEth","type":"uint256"},{"indexed":false,"internalType":"string","name":"messageTwo","type":"string"},{"indexed":false,"internalType":"uint256","name":"_inEthSecond","type":"uint256"}],"name":"TransferMade","type":"event"},{"anonymous":false,"inputs":[{"indexed":false,"internalType":"address","name":"account","type":"address"}],"name":"Unpaused","type":"event"},{"stateMutability":"nonpayable","type":"fallback"},{"inputs":[],"name":"becomeCoopMember","outputs":[{"internalType":"bool","name":"","type":"bool"}],"stateMutability":"payable","type":"function"},{"inputs":[{"internalType":"uint256","name":"_amount","type":"uint256"}],"name":"bid","outputs":[{"internalType":"bool","name":"","type":"bool"}],"stateMutability":"payable","type":"function"},{"inputs":[{"internalType":"address","name":"","type":"address"}],"name":"bidders","outputs":[{"internalType":"uint256","name":"totalPayed","type":"uint256"},{"internalType":"uint256","name":"kgBought","type":"uint256"}],"stateMutability":"view","type":"function"},{"inputs":[],"name":"coopTokenContractAddress","outputs":[{"internalType":"address","name":"","type":"address"}],"stateMutability":"view","type":"function"},{"inputs":[{"internalType":"address","name":"receiver","type":"address"},{"internalType":"uint256","name":"_kg","type":"uint256"}],"name":"coopTokenTransferTo","outputs":[{"internalType":"bool","name":"","type":"bool"}],"stateMutability":"nonpayable","type":"function"},{"inputs":[{"internalType":"address","name":"","type":"address"}],"name":"cooperants","outputs":[{"internalType":"uint256","name":"feePayed","type":"uint256"},{"internalType":"uint256","name":"kg","type":"uint256"}],"stateMutability":"view","type":"function"},{"inputs":[{"internalType":"uint256","name":"_kg","type":"uint256"}],"name":"depositFruitsToCOOP","outputs":[{"internalType":"bool","name":"","type":"bool"}],"stateMutability":"nonpayable","type":"function"},{"inputs":[{"internalType":"uint256","name":"_amount","type":"uint256"}],"name":"ethUSD","outputs":[{"internalType":"uint256","name":"","type":"uint256"}],"stateMutability":"view","type":"function"},{"inputs":[{"internalType":"address","name":"_salje","type":"address"}],"name":"getBidderAccountBalance","outputs":[{"internalType":"uint256","name":"","type":"uint256"},{"internalType":"uint256","name":"","type":"uint256"}],"stateMutability":"view","type":"function"},{"inputs":[],"name":"getLatestPrice","outputs":[{"internalType":"int256","name":"","type":"int256"}],"stateMutability":"view","type":"function"},{"inputs":[{"internalType":"address","name":"_salje","type":"address"}],"name":"getUserAccountBalance","outputs":[{"internalType":"uint256","name":"","type":"uint256"},{"internalType":"uint256","name":"","type":"uint256"},{"internalType":"uint256","name":"","type":"uint256"}],"stateMutability":"view","type":"function"},{"inputs":[{"internalType":"uint256","name":"","type":"uint256"}],"name":"members","outputs":[{"internalType":"address","name":"","type":"address"}],"stateMutability":"view","type":"function"},{"inputs":[],"name":"owner","outputs":[{"internalType":"address","name":"","type":"address"}],"stateMutability":"view","type":"function"},{"inputs":[],"name":"pause","outputs":[],"stateMutability":"nonpayable","type":"function"},{"inputs":[],"name":"paused","outputs":[{"internalType":"bool","name":"","type":"bool"}],"stateMutability":"view","type":"function"},{"inputs":[],"name":"raspberryPrice","outputs":[{"internalType":"uint256","name":"","type":"uint256"}],"stateMutability":"view","type":"function"},{"inputs":[],"name":"renounceOwnership","outputs":[],"stateMutability":"nonpayable","type":"function"},{"inputs":[{"internalType":"address","name":"newOwner","type":"address"}],"name":"transferOwnership","outputs":[],"stateMutability":"nonpayable","type":"function"},{"inputs":[],"name":"unpause","outputs":[],"stateMutability":"nonpayable","type":"function"},{"inputs":[{"internalType":"uint256","name":"","type":"uint256"}],"name":"warehouseStock","outputs":[{"internalType":"address","name":"","type":"address"}],"stateMutability":"view","type":"function"},{"inputs":[],"name":"withdraw","outputs":[{"internalType":"bool","name":"","type":"bool"}],"stateMutability":"nonpayable","type":"function"},{"stateMutability":"payable","type":"receive"}],"bytecode":"6080604052600960045534801561001557600080fd5b50604051611701380380611701833981016040819052610034916100eb565b6000805460ff191681556100466100e7565b60008054610100600160a81b0319166101006001600160a01b038416908102919091178255604051929350917f8be0079c531659141344cd1fd0a4f28419497f9722a3daafe3b4186f6b6457e0908290a350600380546001600160a01b039092166001600160a01b03199283168117909155600180548316909117905560028054909116739326bfa02add2366b30bacb125260af641031331179055610119565b3390565b6000602082840312156100fc578081fd5b81516001600160a01b0381168114610112578182fd5b9392505050565b6115d9806101286000396000f3fe60806040526004361061012e5760003560e01c80638456cb59116100ab578063bf7b5e811161006f578063bf7b5e8114610355578063bfd3562614610375578063ca3c3a1c1461037d578063ca96872914610392578063f2fde38b146103a7578063fcc8f793146103c75761016e565b80638456cb59146102d65780638d580d85146102eb5780638da5cb5b1461030b5780638e15f4731461032057806399ea2203146103355761016e565b80635c975abb116100f25780635c975abb146102245780635daf08ca1461023957806362d5111e1461026657806364eb384c14610293578063715018a6146102c15761016e565b80633ccfd60b146101805780633f4ba83a146101ab5780633f7f4f17146101c2578063454a2ab3146101f15780634f557cb9146102045761016e565b3661016e577f4eb793aae0ced39326b3915756508a3909b3740b510819b76a89d83b363c43363334604051610164929190611253565b60405180910390a1005b34801561017a57600080fd5b50600080fd5b34801561018c57600080fd5b506101956103e7565b6040516101a2919061126c565b60405180910390f35b3480156101b757600080fd5b506101c06104bc565b005b3480156101ce57600080fd5b506101e26101dd36600461115a565b610505565b6040516101a2939291906114ee565b6101956101ff3660046111bd565b6105c5565b34801561021057600080fd5b5061019561021f3660046111bd565b610a65565b34801561023057600080fd5b50610195610b7c565b34801561024557600080fd5b506102596102543660046111bd565b610b85565b6040516101a2919061123f565b34801561027257600080fd5b506102866102813660046111bd565b610baf565b6040516101a29190611277565b34801561029f57600080fd5b506102b36102ae36600461115a565b610bf1565b6040516101a29291906114e0565b3480156102cd57600080fd5b506101c0610c0a565b3480156102e257600080fd5b506101c0610c98565b3480156102f757600080fd5b506102596103063660046111bd565b610cdf565b34801561031757600080fd5b50610259610cef565b34801561032c57600080fd5b50610286610d03565b34801561034157600080fd5b50610195610350366004611174565b610d97565b34801561036157600080fd5b506102b361037036600461115a565b610e23565b610195610e46565b34801561038957600080fd5b50610286610f63565b34801561039e57600080fd5b50610259610f69565b3480156103b357600080fd5b506101c06103c236600461115a565b610f78565b3480156103d357600080fd5b506102b36103e236600461115a565b611043565b60006103f161105c565b6001600160a01b0316610402610cef565b6001600160a01b0316146104315760405162461bcd60e51b8152600401610428906113ba565b60405180910390fd5b600061043b610cef565b6001600160a01b0316476040516104519061123c565b60006040518083038185875af1925050503d806000811461048e576040519150601f19603f3d011682016040523d82523d6000602084013e610493565b606091505b50509050806104b45760405162461bcd60e51b815260040161042890611362565b600191505090565b6104c461105c565b6001600160a01b03166104d5610cef565b6001600160a01b0316146104fb5760405162461bcd60e51b8152600401610428906113ba565b610503611060565b565b6001600160a01b038082166000908152600760205260408082208054600191820154915492516370a0823160e01b8152939485948594929392670de0b6b3a76400009216906370a082319061055e908a9060040161123f565b60206040518083038186803b15801561057657600080fd5b505afa15801561058a573d6000803e3d6000fd5b505050506040513d601f19601f820116820180604052508101906105ae91906111d5565b6105b8919061151c565b9250925092509193909250565b60006105cf610b7c565b156105ec5760405162461bcd60e51b815260040161042890611390565b60005b600654811015610a5a5760006006828154811061061c57634e487b7160e01b600052603260045260246000fd5b60009182526020808320909101546001600160a01b031680835260079091526040909120600101549091508410610868576004546001600160a01b03821660009081526007602052604081206001015490916106779161153c565b90506000606461068683610baf565b610690919061151c565b61069b90605f61153c565b9050600060646106aa84610baf565b6106b4919061151c565b6106bf90600561153c565b90506000846001600160a01b0316836040516106da9061123c565b60006040518083038185875af1925050503d8060008114610717576040519150601f19603f3d011682016040523d82523d6000602084013e61071c565b606091505b505090508061073d5760405162461bcd60e51b815260040161042890611362565b6006868154811061075e57634e487b7160e01b600052603260045260246000fd5b6000918252602080832090910180546001600160a01b03191690556001600160a01b038716825260079052604090206001015461079b908961155b565b3360009081526008602052604081208054929a5086929091906107bf908490611504565b90915550506001600160a01b0385166000908152600760209081526040808320600190810154338552600890935290832001805491929091610802908490611504565b90915550506001600160a01b03851660009081526007602052604080822060010191909155517f9a93694c4d5aec733b64ffc1f2c820dfdc9c3ee31d369664ecb3d87eb9061b109061085790859085906113ef565b60405180910390a150505050610a47565b6001600160a01b0381166000908152600760205260409020600101548411610a11576001600160a01b038116600090815260076020526040812060010180548692906108b590849061155b565b90915550506004546000906108ca908661153c565b9050600060646108d983610baf565b6108e3919061151c565b6108ee90605f61153c565b9050600060646108fd84610baf565b610907919061151c565b61091290600561153c565b33600090815260086020526040812060010180549293508992909190610939908490611504565b9091555050336000908152600860205260408120805485929061095d908490611504565b925050819055506000846001600160a01b03168360405161097d9061123c565b60006040518083038185875af1925050503d80600081146109ba576040519150601f19603f3d011682016040523d82523d6000602084013e6109bf565b606091505b50509050806109e05760405162461bcd60e51b815260040161042890611362565b7f9a93694c4d5aec733b64ffc1f2c820dfdc9c3ee31d369664ecb3d87eb9061b1083836040516108579291906113ef565b7face95a40215fc0e010749f22271567a495ff9bba78eff7d7447817795abadc22604051610a3e9061145f565b60405180910390a15b5080610a5281611572565b9150506105ef565b50600190505b919050565b6000610a6f610b7c565b15610a8c5760405162461bcd60e51b815260040161042890611390565b33600090815260076020526040902054610ab85760405162461bcd60e51b81526004016104289061132b565b3360009081526007602052604081206001018054849290610ada908490611504565b9091555050600680546001810182556000919091527ff652222313e28459528d920b65115c16c04f3efc82aaedc97be59f3f377c0d3f0180546001600160a01b03191633908117909155610b3a9061035084670de0b6b3a764000061153c565b507f255fc9735037ba0730909adcc04691fb7c2dd775114a7e9533ececef8248e5243383604051610b6c929190611253565b60405180910390a1506001919050565b60005460ff1690565b60058181548110610b9557600080fd5b6000918252602090912001546001600160a01b0316905081565b600080610bba610d03565b9050600081610bd285683635c9adc5dea0000061153c565b610bdc919061151c565b610be990620186a061153c565b949350505050565b6007602052600090815260409020805460019091015482565b610c1261105c565b6001600160a01b0316610c23610cef565b6001600160a01b031614610c495760405162461bcd60e51b8152600401610428906113ba565b600080546040516101009091046001600160a01b0316907f8be0079c531659141344cd1fd0a4f28419497f9722a3daafe3b4186f6b6457e0908390a360008054610100600160a81b0319169055565b610ca061105c565b6001600160a01b0316610cb1610cef565b6001600160a01b031614610cd75760405162461bcd60e51b8152600401610428906113ba565b6105036110ce565b60068181548110610b9557600080fd5b60005461010090046001600160a01b031690565b600080600260009054906101000a90046001600160a01b03166001600160a01b031663feaf968c6040518163ffffffff1660e01b815260040160a06040518083038186803b158015610d5457600080fd5b505afa158015610d68573d6000803e3d6000fd5b505050506040513d601f19601f82011682018060405250810190610d8c91906111ed565b509194505050505090565b60015460405163a9059cbb60e01b81526000916001600160a01b03169063a9059cbb90610dca9086908690600401611253565b602060405180830381600087803b158015610de457600080fd5b505af1158015610df8573d6000803e3d6000fd5b505050506040513d601f19601f82011682018060405250810190610e1c919061119d565b9392505050565b6001600160a01b0316600090815260086020526040902080546001909101549091565b6000610e50610b7c565b15610e6d5760405162461bcd60e51b815260040161042890611390565b3360009081526007602052604090205415610e9a5760405162461bcd60e51b8152600401610428906112f4565b6103e8341015610ebc5760405162461bcd60e51b8152600401610428906114a9565b3360009081526007602052604081208054349290610edb908490611504565b9091555050600580546001810182556000919091527f036b6384b5eca791c62761152d0c79bb0604c104a5fb6f4eb0703f3154bb3db00180546001600160a01b031916339081179091556040517f7f48e4f7f3ef2c63408b16a799b8516cb879c145386aedd51a36938a02a1c28391610f55913490611253565b60405180910390a150600190565b60045481565b6003546001600160a01b031681565b610f8061105c565b6001600160a01b0316610f91610cef565b6001600160a01b031614610fb75760405162461bcd60e51b8152600401610428906113ba565b6001600160a01b038116610fdd5760405162461bcd60e51b8152600401610428906112ae565b600080546040516001600160a01b038085169361010090930416917f8be0079c531659141344cd1fd0a4f28419497f9722a3daafe3b4186f6b6457e091a3600080546001600160a01b0390921661010002610100600160a81b0319909216919091179055565b6008602052600090815260409020805460019091015482565b3390565b611068610b7c565b6110845760405162461bcd60e51b815260040161042890611280565b6000805460ff191690557f5db9ee0a495bf2e6ff9c91a7834c1ba4fdd244a5e8aa4e537bd38aeae4b073aa6110b761105c565b6040516110c4919061123f565b60405180910390a1565b6110d6610b7c565b156110f35760405162461bcd60e51b815260040161042890611390565b6000805460ff191660011790557f62e78cea01bee320cd4e420270b5ea74000d11b0c9f74754ebdbfc544b05a2586110b761105c565b80356001600160a01b0381168114610a6057600080fd5b805169ffffffffffffffffffff81168114610a6057600080fd5b60006020828403121561116b578081fd5b610e1c82611129565b60008060408385031215611186578081fd5b61118f83611129565b946020939093013593505050565b6000602082840312156111ae578081fd5b81518015158114610e1c578182fd5b6000602082840312156111ce578081fd5b5035919050565b6000602082840312156111e6578081fd5b5051919050565b600080600080600060a08688031215611204578081fd5b61120d86611140565b945060208601519350604086015192506060860151915061123060808701611140565b90509295509295909350565b90565b6001600160a01b0391909116815260200190565b6001600160a01b03929092168252602082015260400190565b901515815260200190565b90815260200190565b60208082526014908201527314185d5cd8589b194e881b9bdd081c185d5cd95960621b604082015260600190565b60208082526026908201527f4f776e61626c653a206e6577206f776e657220697320746865207a65726f206160408201526564647265737360d01b606082015260800190565b6020808252601d908201527f596f7520616c726561647920706179206d656265727368697020666565000000604082015260600190565b6020808252601e908201527f506c65617365206265636f6d6520536d617274434f4f50206d656d6265720000604082015260600190565b6020808252601490820152732330b4b632b2103a379039b2b7321022ba3432b960611b604082015260600190565b60208082526010908201526f14185d5cd8589b194e881c185d5cd95960821b604082015260600190565b6020808252818101527f4f776e61626c653a2063616c6c6572206973206e6f7420746865206f776e6572604082015260600190565b6080808252601e908201527f546f20796f7572206163636f756e7420776173207472616e736665726564000060a0820152602081019290925260c06040830181905260139083015272105b99081bdb8810d3d3d4081858d8dbdd5b9d606a1b60e083015260608201526101000190565b6020808252602a908201527f5468657265207369206e6f20656e6f75676820726173706265727269657320696040820152696e20776172686f75736560b01b606082015260800190565b6020808252601e908201527f596561726c7920666565206973206d696e696d756d2031303030207765690000604082015260600190565b918252602082015260400190565b9283526020830191909152604082015260600190565b600082198211156115175761151761158d565b500190565b60008261153757634e487b7160e01b81526012600452602481fd5b500490565b60008160001904831182151516156115565761155661158d565b500290565b60008282101561156d5761156d61158d565b500390565b60006000198214156115865761158661158d565b5060010190565b634e487b7160e01b600052601160045260246000fdfea2646970667358221220d3dea8784832b9cd929bf4b248b530a402e01d1cc95e0da726d33ce9788c122664736f6c63430008000033","bytecodeSha1":"b745e2d744246d9d923f791b860f7e4bd3ad9634","compiler":{"evm_version":"istanbul","optimizer":{"enabled":true,"runs":200},"version":"0.8.0+commit.c7dfd78e"},"contractName":"SmartCOOP","language":"Solidity","natspec":{"kind":"dev","methods":{"owner()":{"details":"Returns the address of the current owner."},"paused()":{"details":"Returns true if the contract is paused, and false otherwise."},"renounceOwnership()":{"details":"Leaves the contract without owner. It will not be possible to call `onlyOwner` functions anymore. Can only be called by the current owner. NOTE: Renouncing ownership will leave the contract without an owner, thereby removing any functionality that is only available to the owner."},"transferOwnership(address)":{"details":"Transfers ownership of the contract to a new account (`newOwner`). Can only be called by the current owner."}},"version":1},"opcodes":"PUSH1 0x80 PUSH1 0x40 MSTORE PUSH1 0x4 CALLDATASIZE LT PUSH2 0x12E JUMPI PUSH1 0x0 CALLDATALOAD PUSH1 0xE0 SHR DUP1 PUSH4 0x8456CB59 GT PUSH2 0xAB JUMPI DUP1 PUSH4 0xBF7B5E81 GT PUSH2 0x6F JUMPI DUP1 PUSH4 0xBF7B5E81 EQ PUSH2 0x355 JUMPI DUP1 PUSH4 0xBFD35626 EQ PUSH2 0x375 JUMPI DUP1 PUSH4 0xCA3C3A1C EQ PUSH2 0x37D JUMPI DUP1 PUSH4 0xCA968729 EQ PUSH2 0x392 JUMPI DUP1 PUSH4 0xF2FDE38B EQ PUSH2 0x3A7 JUMPI DUP1 PUSH4 0xFCC8F793 EQ PUSH2 0x3C7 JUMPI PUSH2 0x16E JUMP JUMPDEST DUP1 PUSH4 0x8456CB59 EQ PUSH2 0x2D6 JUMPI DUP1 PUSH4 0x8D580D85 EQ PUSH2 0x2EB JUMPI DUP1 PUSH4 0x8DA5CB5B EQ PUSH2 0x30B JUMPI DUP1 PUSH4 0x8E15F473 EQ PUSH2 0x320 JUMPI DUP1 PUSH4 0x99EA2203 EQ PUSH2 0x335 JUMPI PUSH2 0x16E JUMP JUMPDEST DUP1 PUSH4 0x5C975ABB GT PUSH2 0xF2 JUMPI DUP1 PUSH4 0x5C975ABB EQ PUSH2 0x224 JUMPI DUP1 PUSH4 0x5DAF08CA EQ PUSH2 0x239 JUMPI DUP1 PUSH4 0x62D5111E EQ PUSH2 0x266 JUMPI DUP1 PUSH4 0x64EB384C EQ PUSH2 0x293 JUMPI DUP1 PUSH4 0x715018A6 EQ PUSH2 0x2C1 JUMPI PUSH2 0x16E JUMP JUMPDEST DUP1 PUSH4 0x3CCFD60B EQ PUSH2 0x180 JUMPI DUP1 PUSH4 0x3F4BA83A EQ PUSH2 0x1AB JUMPI DUP1 PUSH4 0x3F7F4F17 EQ PUSH2 0x1C2 JUMPI DUP1 PUSH4 0x454A2AB3 EQ PUSH2 0x1F1 JUMPI DUP1 PUSH4 0x4F557CB9 EQ PUSH2 0x204 JUMPI PUSH2 0x16E JUMP JUMPDEST CALLDATASIZE PUSH2 0x16E JUMPI PUSH32 0x4EB793AAE0CED39326B3915756508A3909B3740B510819B76A89D83B363C4336 CALLER CALLVALUE PUSH1 0x40 MLOAD PUSH2 0x164 SWAP3 SWAP2 SWAP1 PUSH2 0x1253 JUMP JUMPDEST PUSH1 0x40 MLOAD DUP1 SWAP2 SUB SWAP1 LOG1 STOP JUMPDEST CALLVALUE DUP1 ISZERO PUSH2 0x17A JUMPI PUSH1 0x0 DUP1 REVERT JUMPDEST POP PUSH1 0x0 DUP1 REVERT JUMPDEST CALLVALUE DUP1 ISZERO PUSH2 0x18C JUMPI PUSH1 0x0 DUP1 REVERT JUMPDEST POP PUSH2 0x195 PUSH2 0x3E7 JUMP JUMPDEST PUSH1 0x40 MLOAD PUSH2 0x1A2 SWAP2 SWAP1 PUSH2 0x126C JUMP JUMPDEST PUSH1 0x40 MLOAD DUP1 SWAP2 SUB SWAP1 RETURN JUMPDEST CALLVALUE DUP1 ISZERO PUSH2 0x1B7 JUMPI PUSH1 0x0 DUP1 REVERT JUMPDEST POP PUSH2 0x1C0 PUSH2 0x4BC JUMP JUMPDEST STOP JUMPDEST CALLVALUE DUP1 ISZERO PUSH2 0x1CE JUMPI PUSH1 0x0 DUP1 REVERT JUMPDEST POP PUSH2 0x1E2 PUSH2 0x1DD CALLDATASIZE PUSH1 0x4 PUSH2 0x115A JUMP JUMPDEST PUSH2 0x505 JUMP JUMPDEST PUSH1 0x40 MLOAD PUSH2 0x1A2 SWAP4 SWAP3 SWAP2 SWAP1 PUSH2 0x14EE JUMP JUMPDEST PUSH2 0x195 PUSH2 0x1FF CALLDATASIZE PUSH1 0x4 PUSH2 0x11BD JUMP JUMPDEST PUSH2 0x5C5 JUMP JUMPDEST CALLVALUE DUP1 ISZERO PUSH2 0x210 JUMPI PUSH1 0x0 DUP1 REVERT JUMPDEST POP PUSH2 0x195 PUSH2 0x21F CALLDATASIZE PUSH1 0x4 PUSH2 0x11BD JUMP JUMPDEST PUSH2 0xA65 JUMP JUMPDEST CALLVALUE DUP1 ISZERO PUSH2 0x230 JUMPI PUSH1 0x0 DUP1 REVERT JUMPDEST POP PUSH2 0x195 PUSH2 0xB7C JUMP JUMPDEST CALLVALUE DUP1 ISZERO PUSH2 0x245 JUMPI PUSH1 0x0 DUP1 REVERT JUMPDEST POP PUSH2 0x259 PUSH2 0x254 CALLDATASIZE PUSH1 0x4 PUSH2 0x11BD JUMP JUMPDEST PUSH2 0xB85 JUMP JUMPDEST PUSH1 0x40 MLOAD PUSH2 0x1A2 SWAP2 SWAP1 PUSH2 0x123F JUMP JUMPDEST CALLVALUE DUP1 ISZERO PUSH2 0x272 JUMPI PUSH1 0x0 DUP1 REVERT JUMPDEST POP PUSH2 0x286 PUSH2 0x281 CALLDATASIZE PUSH1 0x4 PUSH2 0x11BD JUMP JUMPDEST PUSH2 0xBAF JUMP JUMPDEST PUSH1 0x40 MLOAD PUSH2 0x1A2 SWAP2 SWAP1 PUSH2 0x1277 JUMP JUMPDEST CALLVALUE DUP1 ISZERO PUSH2 0x29F JUMPI PUSH1 0x0 DUP1 REVERT JUMPDEST POP PUSH2 0x2B3 PUSH2 0x2AE CALLDATASIZE PUSH1 0x4 PUSH2 0x115A JUMP JUMPDEST PUSH2 0xBF1 JUMP JUMPDEST PUSH1 0x40 MLOAD PUSH2 0x1A2 SWAP3 SWAP2 SWAP1 PUSH2 0x14E0 JUMP JUMPDEST CALLVALUE DUP1 ISZERO PUSH2 0x2CD JUMPI PUSH1 0x0 DUP1 REVERT JUMPDEST POP PUSH2 0x1C0 PUSH2 0xC0A JUMP JUMPDEST CALLVALUE DUP1 ISZERO PUSH2 0x2E2 JUMPI PUSH1 0x0 DUP1 REVERT JUMPDEST POP PUSH2 0x1C0 PUSH2 0xC98 JUMP JUMPDEST CALLVALUE DUP1 ISZERO PUSH2 0x2F7 JUMPI PUSH1 0x0 DUP1 REVERT JUMPDEST POP PUSH2 0x259 PUSH2 0x306 CALLDATASIZE PUSH1 0x4 PUSH2 0x11BD JUMP JUMPDEST PUSH2 0xCDF JUMP JUMPDEST CALLVALUE DUP1 ISZERO PUSH2 0x317 JUMPI PUSH1 0x0 DUP1 REVERT JUMPDEST POP PUSH2 0x259 PUSH2 0xCEF JUMP JUMPDEST CALLVALUE DUP1 ISZERO PUSH2 0x32C JUMPI PUSH1 0x0 DUP1 REVERT JUMPDEST POP PUSH2 0x286 PUSH2 0xD03 JUMP JUMPDEST CALLVALUE DUP1 ISZERO PUSH2 0x341 JUMPI PUSH1 0x0 DUP1 REVERT JUMPDEST POP PUSH2 0x195 PUSH2 0x350 CALLDATASIZE PUSH1 0x4 PUSH2 0x1174 JUMP JUMPDEST PUSH2 0xD97 JUMP JUMPDEST CALLVALUE DUP1 ISZERO PUSH2 0x361 JUMPI PUSH1 0x0 DUP1 REVERT JUMPDEST POP PUSH2 0x2B3 PUSH2 0x370 CALLDATASIZE PUSH1 0x4 PUSH2 0x115A JUMP JUMPDEST PUSH2 0xE23 JUMP JUMPDEST PUSH2 0x195 PUSH2 0xE46 JUMP JUMPDEST CALLVALUE DUP1 ISZERO PUSH2 0x389 JUMPI PUSH1 0x0 DUP1 REVERT JUMPDEST POP PUSH2 0x286 PUSH2 0xF63 JUMP JUMPDEST CALLVALUE DUP1 ISZERO PUSH2 0x39E JUMPI PUSH1 0x0 DUP1 REVERT JUMPDEST POP PUSH2 0x259 PUSH2 0xF69 JUMP JUMPDEST CALLVALUE DUP1 ISZERO PUSH2 0x3B3 JUMPI PUSH1 0x0 DUP1 REVERT JUMPDEST POP PUSH2 0x1C0 PUSH2 0x3C2 CALLDATASIZE PUSH1 0x4 PUSH2 0x115A JUMP JUMPDEST PUSH2 0xF78 JUMP JUMPDEST CALLVALUE DUP1 ISZERO PUSH2 0x3D3 JUMPI PUSH1 0x0 DUP1 REVERT JUMPDEST POP PUSH2 0x2B3 PUSH2 0x3E2 CALLDATASIZE PUSH1 0x4 PUSH2 0x115A JUMP JUMPDEST PUSH2 0x1043 JUMP JUMPDEST PUSH1 0x0 PUSH2 0x3F1 PUSH2 0x105C JUMP JUMPDEST PUSH1 0x1 PUSH1 0x1 PUSH1 0xA0 SHL SUB AND PUSH2 0x402 PUSH2 0xCEF JUMP JUMPDEST PUSH1 0x1 PUSH1 0x1 PUSH1 0xA0 SHL SUB AND EQ PUSH2 0x431 JUMPI PUSH1 0x40 MLOAD PUSH3 0x461BCD PUSH1 0xE5 SHL DUP2 MSTORE PUSH1 0x4 ADD PUSH2 0x428 SWAP1 PUSH2 0x13BA JUMP JUMPDEST PUSH1 0x40 MLOAD DUP1 SWAP2 SUB SWAP1 REVERT JUMPDEST PUSH1 0x0 PUSH2 0x43B PUSH2 0xCEF JUMP JUMPDEST PUSH1 0x1 PUSH1 0x1 PUSH1 0xA0 SHL SUB AND SELFBALANCE PUSH1 0x40 MLOAD PUSH2 0x451 SWAP1 PUSH2 0x123C JUMP JUMPDEST PUSH1 0x0 PUSH1 0x40 MLOAD DUP1 DUP4 SUB DUP2 DUP6 DUP8 GAS CALL SWAP3 POP POP POP RETURNDATASIZE DUP1 PUSH1 0x0 DUP2 EQ PUSH2 0x48E JUMPI PUSH1 0x40 MLOAD SWAP2 POP PUSH1 0x1F NOT PUSH1 0x3F RETURNDATASIZE ADD AND DUP3 ADD PUSH1 0x40 MSTORE RETURNDATASIZE DUP3 MSTORE RETURNDATASIZE PUSH1 0x0 PUSH1 0x20 DUP5 ADD RETURNDATACOPY PUSH2 0x493 JUMP JUMPDEST PUSH1 0x60 SWAP2 POP JUMPDEST POP POP SWAP1 POP DUP1 PUSH2 0x4B4 JUMPI PUSH1 0x40 MLOAD PUSH3 0x461BCD PUSH1 0xE5 SHL DUP2 MSTORE PUSH1 0x4 ADD PUSH2 0x428 SWAP1 PUSH2 0x1362 JUMP JUMPDEST PUSH1 0x1 SWAP2 POP POP SWAP1 JUMP JUMPDEST PUSH2 0x4C4 PUSH2 0x105C JUMP JUMPDEST PUSH1 0x1 PUSH1 0x1 PUSH1 0xA0 SHL SUB AND PUSH2 0x4D5 PUSH2 0xCEF JUMP JUMPDEST PUSH1 0x1 PUSH1 0x1 PUSH1 0xA0 SHL SUB AND EQ PUSH2 0x4FB JUMPI PUSH1 0x40 MLOAD PUSH3 0x461BCD PUSH1 0xE5 SHL DUP2 MSTORE PUSH1 0x4 ADD PUSH2 0x428 SWAP1 PUSH2 0x13BA JUMP JUMPDEST PUSH2 0x503 PUSH2 0x1060 JUMP JUMPDEST JUMP JUMPDEST PUSH1 0x1 PUSH1 0x1 PUSH1 0xA0 SHL SUB DUP1 DUP3 AND PUSH1 0x0 SWAP1 DUP2 MSTORE PUSH1 0x7 PUSH1 0x20 MSTORE PUSH1 0x40 DUP1 DUP3 KECCAK256 DUP1 SLOAD PUSH1 0x1 SWAP2 DUP3 ADD SLOAD SWAP2 SLOAD SWAP3 MLOAD PUSH4 0x70A08231 PUSH1 0xE0 SHL DUP2 MSTORE SWAP4 SWAP5 DUP6 SWAP5 DUP6 SWAP5 SWAP3 SWAP4 SWAP3 PUSH8 0xDE0B6B3A7640000 SWAP3 AND SWAP1 PUSH4 0x70A08231 SWAP1 PUSH2 0x55E SWAP1 DUP11 SWAP1 PUSH1 0x4 ADD PUSH2 0x123F JUMP JUMPDEST PUSH1 0x20 PUSH1 0x40 MLOAD DUP1 DUP4 SUB DUP2 DUP7 DUP1 EXTCODESIZE ISZERO DUP1 ISZERO PUSH2 0x576 JUMPI PUSH1 0x0 DUP1 REVERT JUMPDEST POP GAS STATICCALL ISZERO DUP1 ISZERO PUSH2 0x58A JUMPI RETURNDATASIZE PUSH1 0x0 DUP1 RETURNDATACOPY RETURNDATASIZE PUSH1 0x0 REVERT JUMPDEST POP POP POP POP PUSH1 0x40 MLOAD RETURNDATASIZE PUSH1 0x1F NOT PUSH1 0x1F DUP3 ADD AND DUP3 ADD DUP1 PUSH1 0x40 MSTORE POP DUP2 ADD SWAP1 PUSH2 0x5AE SWAP2 SWAP1 PUSH2 0x11D5 JUMP JUMPDEST PUSH2 0x5B8 SWAP2 SWAP1 PUSH2 0x151C JUMP JUMPDEST SWAP3 POP SWAP3 POP SWAP3 POP SWAP2 SWAP4 SWAP1 SWAP3 POP JUMP JUMPDEST PUSH1 0x0 PUSH2 0x5CF PUSH2 0xB7C JUMP JUMPDEST ISZERO PUSH2 0x5EC JUMPI PUSH1 0x40 MLOAD PUSH3 0x461BCD PUSH1 0xE5 SHL DUP2 MSTORE PUSH1 0x4 ADD PUSH2 0x428 SWAP1 PUSH2 0x1390 JUMP JUMPDEST PUSH1 0x0 JUMPDEST PUSH1 0x6 SLOAD DUP2 LT ISZERO PUSH2 0xA5A JUMPI PUSH1 0x0 PUSH1 0x6 DUP3 DUP2 SLOAD DUP2 LT PUSH2 0x61C JUMPI PUSH4 0x4E487B71 PUSH1 0xE0 SHL PUSH1 0x0 MSTORE PUSH1 0x32 PUSH1 0x4 MSTORE PUSH1 0x24 PUSH1 0x0 REVERT JUMPDEST PUSH1 0x0 SWAP2 DUP3 MSTORE PUSH1 0x20 DUP1 DUP4 KECCAK256 SWAP1 SWAP2 ADD SLOAD PUSH1 0x1 PUSH1 0x1 PUSH1 0xA0 SHL SUB AND DUP1 DUP4 MSTORE PUSH1 0x7 SWAP1 SWAP2 MSTORE PUSH1 0x40 SWAP1 SWAP2 KECCAK256 PUSH1 0x1 ADD SLOAD SWAP1 SWAP2 POP DUP5 LT PUSH2 0x868 JUMPI PUSH1 0x4 SLOAD PUSH1 0x1 PUSH1 0x1 PUSH1 0xA0 SHL SUB DUP3 AND PUSH1 0x0 SWAP1 DUP2 MSTORE PUSH1 0x7 PUSH1 0x20 MSTORE PUSH1 0x40 DUP2 KECCAK256 PUSH1 0x1 ADD SLOAD SWAP1 SWAP2 PUSH2 0x677 SWAP2 PUSH2 0x153C JUMP JUMPDEST SWAP1 POP PUSH1 0x0 PUSH1 0x64 PUSH2 0x686 DUP4 PUSH2 0xBAF JUMP JUMPDEST PUSH2 0x690 SWAP2 SWAP1 PUSH2 0x151C JUMP JUMPDEST PUSH2 0x69B SWAP1 PUSH1 0x5F PUSH2 0x153C JUMP JUMPDEST SWAP1 POP PUSH1 0x0 PUSH1 0x64 PUSH2 0x6AA DUP5 PUSH2 0xBAF JUMP JUMPDEST PUSH2 0x6B4 SWAP2 SWAP1 PUSH2 0x151C JUMP JUMPDEST PUSH2 0x6BF SWAP1 PUSH1 0x5 PUSH2 0x153C JUMP JUMPDEST SWAP1 POP PUSH1 0x0 DUP5 PUSH1 0x1 PUSH1 0x1 PUSH1 0xA0 SHL SUB AND DUP4 PUSH1 0x40 MLOAD PUSH2 0x6DA SWAP1 PUSH2 0x123C JUMP JUMPDEST PUSH1 0x0 PUSH1 0x40 MLOAD DUP1 DUP4 SUB DUP2 DUP6 DUP8 GAS CALL SWAP3 POP POP POP RETURNDATASIZE DUP1 PUSH1 0x0 DUP2 EQ PUSH2 0x717 JUMPI PUSH1 0x40 MLOAD SWAP2 POP PUSH1 0x1F NOT PUSH1 0x3F RETURNDATASIZE ADD AND DUP3 ADD PUSH1 0x40 MSTORE RETURNDATASIZE DUP3 MSTORE RETURNDATASIZE PUSH1 0x0 PUSH1 0x20 DUP5 ADD RETURNDATACOPY PUSH2 0x71C JUMP JUMPDEST PUSH1 0x60 SWAP2 POP JUMPDEST POP POP SWAP1 POP DUP1 PUSH2 0x73D JUMPI PUSH1 0x40 MLOAD PUSH3 0x461BCD PUSH1 0xE5 SHL DUP2 MSTORE PUSH1 0x4 ADD PUSH2 0x428 SWAP1 PUSH2 0x1362 JUMP JUMPDEST PUSH1 0x6 DUP7 DUP2 SLOAD DUP2 LT PUSH2 0x75E JUMPI PUSH4 0x4E487B71 PUSH1 0xE0 SHL PUSH1 0x0 MSTORE PUSH1 0x32 PUSH1 0x4 MSTORE PUSH1 0x24 PUSH1 0x0 REVERT JUMPDEST PUSH1 0x0 SWAP2 DUP3 MSTORE PUSH1 0x20 DUP1 DUP4 KECCAK256 SWAP1 SWAP2 ADD DUP1 SLOAD PUSH1 0x1 PUSH1 0x1 PUSH1 0xA0 SHL SUB NOT AND SWAP1 SSTORE PUSH1 0x1 PUSH1 0x1 PUSH1 0xA0 SHL SUB DUP8 AND DUP3 MSTORE PUSH1 0x7 SWAP1 MSTORE PUSH1 0x40 SWAP1 KECCAK256 PUSH1 0x1 ADD SLOAD PUSH2 0x79B SWAP1 DUP10 PUSH2 0x155B JUMP JUMPDEST CALLER PUSH1 0x0 SWAP1 DUP2 MSTORE PUSH1 0x8 PUSH1 0x20 MSTORE PUSH1 0x40 DUP2 KECCAK256 DUP1 SLOAD SWAP3 SWAP11 POP DUP7 SWAP3 SWAP1 SWAP2 SWAP1 PUSH2 0x7BF SWAP1 DUP5 SWAP1 PUSH2 0x1504 JUMP JUMPDEST SWAP1 SWAP2 SSTORE POP POP PUSH1 0x1 PUSH1 0x1 PUSH1 0xA0 SHL SUB DUP6 AND PUSH1 0x0 SWAP1 DUP2 MSTORE PUSH1 0x7 PUSH1 0x20 SWAP1 DUP2 MSTORE PUSH1 0x40 DUP1 DUP4 KECCAK256 PUSH1 0x1 SWAP1 DUP2 ADD SLOAD CALLER DUP6 MSTORE PUSH1 0x8 SWAP1 SWAP4 MSTORE SWAP1 DUP4 KECCAK256 ADD DUP1 SLOAD SWAP2 SWAP3 SWAP1 SWAP2 PUSH2 0x802 SWAP1 DUP5 SWAP1 PUSH2 0x1504 JUMP JUMPDEST SWAP1 SWAP2 SSTORE POP POP PUSH1 0x1 PUSH1 0x1 PUSH1 0xA0 SHL SUB DUP6 AND PUSH1 0x0 SWAP1 DUP2 MSTORE PUSH1 0x7 PUSH1 0x20 MSTORE PUSH1 0x40 DUP1 DUP3 KECCAK256 PUSH1 0x1 ADD SWAP2 SWAP1 SWAP2 SSTORE MLOAD PUSH32 0x9A93694C4D5AEC733B64FFC1F2C820DFDC9C3EE31D369664ECB3D87EB9061B10 SWAP1 PUSH2 0x857 SWAP1 DUP6 SWAP1 DUP6 SWAP1 PUSH2 0x13EF JUMP JUMPDEST PUSH1 0x40 MLOAD DUP1 SWAP2 SUB SWAP1 LOG1 POP POP POP POP PUSH2 0xA47 JUMP JUMPDEST PUSH1 0x1 PUSH1 0x1 PUSH1 0xA0 SHL SUB DUP2 AND PUSH1 0x0 SWAP1 DUP2 MSTORE PUSH1 0x7 PUSH1 0x20 MSTORE PUSH1 0x40 SWAP1 KECCAK256 PUSH1 0x1 ADD SLOAD DUP5 GT PUSH2 0xA11 JUMPI PUSH1 0x1 PUSH1 0x1 PUSH1 0xA0 SHL SUB DUP2 AND PUSH1 0x0 SWAP1 DUP2 MSTORE PUSH1 0x7 PUSH1 0x20 MSTORE PUSH1 0x40 DUP2 KECCAK256 PUSH1 0x1 ADD DUP1 SLOAD DUP7 SWAP3 SWAP1 PUSH2 0x8B5 SWAP1 DUP5 SWAP1 PUSH2 0x155B JUMP JUMPDEST SWAP1 SWAP2 SSTORE POP POP PUSH1 0x4 SLOAD PUSH1 0x0 SWAP1 PUSH2 0x8CA SWAP1 DUP7 PUSH2 0x153C JUMP JUMPDEST SWAP1 POP PUSH1 0x0 PUSH1 0x64 PUSH2 0x8D9 DUP4 PUSH2 0xBAF JUMP JUMPDEST PUSH2 0x8E3 SWAP2 SWAP1 PUSH2 0x151C JUMP JUMPDEST PUSH2 0x8EE SWAP1 PUSH1 0x5F PUSH2 0x153C JUMP JUMPDEST SWAP1 POP PUSH1 0x0 PUSH1 0x64 PUSH2 0x8FD DUP5 PUSH2 0xBAF JUMP JUMPDEST PUSH2 0x907 SWAP2 SWAP1 PUSH2 0x151C JUMP JUMPDEST PUSH2 0x912 SWAP1 PUSH1 0x5 PUSH2 0x153C JUMP JUMPDEST CALLER PUSH1 0x0 SWAP1 DUP2 MSTORE PUSH1 0x8 PUSH1 0x20 MSTORE PUSH1 0x40 DUP2 KECCAK256 PUSH1 0x1 ADD DUP1 SLOAD SWAP3 SWAP4 POP DUP10 SWAP3 SWAP1 SWAP2 SWAP1 PUSH2 0x939 SWAP1 DUP5 SWAP1 PUSH2 0x1504 JUMP JUMPDEST SWAP1 SWAP2 SSTORE POP POP CALLER PUSH1 0x0 SWAP1 DUP2 MSTORE PUSH1 0x8 PUSH1 0x20 MSTORE PUSH1 0x40 DUP2 KECCAK256 DUP1 SLOAD DUP6 SWAP3 SWAP1 PUSH2 0x95D SWAP1 DUP5 SWAP1 PUSH2 0x1504 JUMP JUMPDEST SWAP3 POP POP DUP2 SWAP1 SSTORE POP PUSH1 0x0 DUP5 PUSH1 0x1 PUSH1 0x1 PUSH1 0xA0 SHL SUB AND DUP4 PUSH1 0x40 MLOAD PUSH2 0x97D SWAP1 PUSH2 0x123C JUMP JUMPDEST PUSH1 0x0 PUSH1 0x40 MLOAD DUP1 DUP4 SUB DUP2 DUP6 DUP8 GAS CALL SWAP3 POP POP POP RETURNDATASIZE DUP1 PUSH1 0x0 DUP2 EQ PUSH2 0x9BA JUMPI PUSH1 0x40 MLOAD SWAP2 POP PUSH1 0x1F NOT PUSH1 0x3F RETURNDATASIZE ADD AND DUP3 ADD PUSH1 0x40 MSTORE RETURNDATASIZE DUP3 MSTORE RETURNDATASIZE PUSH1 0x0 PUSH1 0x20 DUP5 ADD RETURNDATACOPY PUSH2 0x9BF JUMP JUMPDEST PUSH1 0x60 SWAP2 POP JUMPDEST POP POP SWAP1 POP DUP1 PUSH2 0x9E0 JUMPI PUSH1 0x40 MLOAD PUSH3 0x461BCD PUSH1 0xE5 SHL DUP2 MSTORE PUSH1 0x4 ADD PUSH2 0x428 SWAP1 PUSH2 0x1362 JUMP JUMPDEST PUSH32 0x9A93694C4D5AEC733B64FFC1F2C820DFDC9C3EE31D369664ECB3D87EB9061B10 DUP4 DUP4 PUSH1 0x40 MLOAD PUSH2 0x857 SWAP3 SWAP2 SWAP1 PUSH2 0x13EF JUMP JUMPDEST PUSH32 0xACE95A40215FC0E010749F22271567A495FF9BBA78EFF7D7447817795ABADC22 PUSH1 0x40 MLOAD PUSH2 0xA3E SWAP1 PUSH2 0x145F JUMP JUMPDEST PUSH1 0x40 MLOAD DUP1 SWAP2 SUB SWAP1 LOG1 JUMPDEST POP DUP1 PUSH2 0xA52 DUP2 PUSH2 0x1572 JUMP JUMPDEST SWAP2 POP POP PUSH2 0x5EF JUMP JUMPDEST POP PUSH1 0x1 SWAP1 POP JUMPDEST SWAP2 SWAP1 POP JUMP JUMPDEST PUSH1 0x0 PUSH2 0xA6F PUSH2 0xB7C JUMP JUMPDEST ISZERO PUSH2 0xA8C JUMPI PUSH1 0x40 MLOAD PUSH3 0x461BCD PUSH1 0xE5 SHL DUP2 MSTORE PUSH1 0x4 ADD PUSH2 0x428 SWAP1 PUSH2 0x1390 JUMP JUMPDEST CALLER PUSH1 0x0 SWAP1 DUP2 MSTORE PUSH1 0x7 PUSH1 0x20 MSTORE PUSH1 0x40 SWAP1 KECCAK256 SLOAD PUSH2 0xAB8 JUMPI PUSH1 0x40 MLOAD PUSH3 0x461BCD PUSH1 0xE5 SHL DUP2 MSTORE PUSH1 0x4 ADD PUSH2 0x428 SWAP1 PUSH2 0x132B JUMP JUMPDEST CALLER PUSH1 0x0 SWAP1 DUP2 MSTORE PUSH1 0x7 PUSH1 0x20 MSTORE PUSH1 0x40 DUP2 KECCAK256 PUSH1 0x1 ADD DUP1 SLOAD DUP5 SWAP3 SWAP1 PUSH2 0xADA SWAP1 DUP5 SWAP1 PUSH2 0x1504 JUMP JUMPDEST SWAP1 SWAP2 SSTORE POP POP PUSH1 0x6 DUP1 SLOAD PUSH1 0x1 DUP2 ADD DUP3 SSTORE PUSH1 0x0 SWAP2 SWAP1 SWAP2 MSTORE PUSH32 0xF652222313E28459528D920B65115C16C04F3EFC82AAEDC97BE59F3F377C0D3F ADD DUP1 SLOAD PUSH1 0x1 PUSH1 0x1 PUSH1 0xA0 SHL SUB NOT AND CALLER SWAP1 DUP2 OR SWAP1 SWAP2 SSTORE PUSH2 0xB3A SWAP1 PUSH2 0x350 DUP5 PUSH8 0xDE0B6B3A7640000 PUSH2 0x153C JUMP JUMPDEST POP PUSH32 0x255FC9735037BA0730909ADCC04691FB7C2DD775114A7E9533ECECEF8248E524 CALLER DUP4 PUSH1 0x40 MLOAD PUSH2 0xB6C SWAP3 SWAP2 SWAP1 PUSH2 0x1253 JUMP JUMPDEST PUSH1 0x40 MLOAD DUP1 SWAP2 SUB SWAP1 LOG1 POP PUSH1 0x1 SWAP2 SWAP1 POP JUMP JUMPDEST PUSH1 0x0 SLOAD PUSH1 0xFF AND SWAP1 JUMP JUMPDEST PUSH1 0x5 DUP2 DUP2 SLOAD DUP2 LT PUSH2 0xB95 JUMPI PUSH1 0x0 DUP1 REVERT JUMPDEST PUSH1 0x0 SWAP2 DUP3 MSTORE PUSH1 0x20 SWAP1 SWAP2 KECCAK256 ADD SLOAD PUSH1 0x1 PUSH1 0x1 PUSH1 0xA0 SHL SUB AND SWAP1 POP DUP2 JUMP JUMPDEST PUSH1 0x0 DUP1 PUSH2 0xBBA PUSH2 0xD03 JUMP JUMPDEST SWAP1 POP PUSH1 0x0 DUP2 PUSH2 0xBD2 DUP6 PUSH9 0x3635C9ADC5DEA00000 PUSH2 0x153C JUMP JUMPDEST PUSH2 0xBDC SWAP2 SWAP1 PUSH2 0x151C JUMP JUMPDEST PUSH2 0xBE9 SWAP1 PUSH3 0x186A0 PUSH2 0x153C JUMP JUMPDEST SWAP5 SWAP4 POP POP POP POP JUMP JUMPDEST PUSH1 0x7 PUSH1 0x20 MSTORE PUSH1 0x0 SWAP1 DUP2 MSTORE PUSH1 0x40 SWAP1 KECCAK256 DUP1 SLOAD PUSH1 0x1 SWAP1 SWAP2 ADD SLOAD DUP3 JUMP JUMPDEST PUSH2 0xC12 PUSH2 0x105C JUMP JUMPDEST PUSH1 0x1 PUSH1 0x1 PUSH1 0xA0 SHL SUB AND PUSH2 0xC23 PUSH2 0xCEF JUMP JUMPDEST PUSH1 0x1 PUSH1 0x1 PUSH1 0xA0 SHL SUB AND EQ PUSH2 0xC49 JUMPI PUSH1 0x40 MLOAD PUSH3 0x461BCD PUSH1 0xE5 SHL DUP2 MSTORE PUSH1 0x4 ADD PUSH2 0x428 SWAP1 PUSH2 0x13BA JUMP JUMPDEST PUSH1 0x0 DUP1 SLOAD PUSH1 0x40 MLOAD PUSH2 0x100 SWAP1 SWAP2 DIV PUSH1 0x1 PUSH1 0x1 PUSH1 0xA0 SHL SUB AND SWAP1 PUSH32 0x8BE0079C531659141344CD1FD0A4F28419497F9722A3DAAFE3B4186F6B6457E0 SWAP1 DUP4 SWAP1 LOG3 PUSH1 0x0 DUP1 SLOAD PUSH2 0x100 PUSH1 0x1 PUSH1 0xA8 SHL SUB NOT AND SWAP1 SSTORE JUMP JUMPDEST PUSH2 0xCA0 PUSH2 0x105C JUMP JUMPDEST PUSH1 0x1 PUSH1 0x1 PUSH1 0xA0 SHL SUB AND PUSH2 0xCB1 PUSH2 0xCEF JUMP JUMPDEST PUSH1 0x1 PUSH1 0x1 PUSH1 0xA0 SHL SUB AND EQ PUSH2 0xCD7 JUMPI PUSH1 0x40 MLOAD PUSH3 0x461BCD PUSH1 0xE5 SHL DUP2 MSTORE PUSH1 0x4 ADD PUSH2 0x428 SWAP1 PUSH2 0x13BA JUMP JUMPDEST PUSH2 0x503 PUSH2 0x10CE JUMP JUMPDEST PUSH1 0x6 DUP2 DUP2 SLOAD DUP2 LT PUSH2 0xB95 JUMPI PUSH1 0x0 DUP1 REVERT JUMPDEST PUSH1 0x0 SLOAD PUSH2 0x100 SWAP1 DIV PUSH1 0x1 PUSH1 0x1 PUSH1 0xA0 SHL SUB AND SWAP1 JUMP JUMPDEST PUSH1 0x0 DUP1 PUSH1 0x2 PUSH1 0x0 SWAP1 SLOAD SWAP1 PUSH2 0x100 EXP SWAP1 DIV PUSH1 0x1 PUSH1 0x1 PUSH1 0xA0 SHL SUB AND PUSH1 0x1 PUSH1 0x1 PUSH1 0xA0 SHL SUB AND PUSH4 0xFEAF968C PUSH1 0x40 MLOAD DUP2 PUSH4 0xFFFFFFFF AND PUSH1 0xE0 SHL DUP2 MSTORE PUSH1 0x4 ADD PUSH1 0xA0 PUSH1 0x40 MLOAD DUP1 DUP4 SUB DUP2 DUP7 DUP1 EXTCODESIZE ISZERO DUP1 ISZERO PUSH2 0xD54 JUMPI PUSH1 0x0 DUP1 REVERT JUMPDEST POP GAS STATICCALL ISZERO DUP1 ISZERO PUSH2 0xD68 JUMPI RETURNDATASIZE PUSH1 0x0 DUP1 RETURNDATACOPY RETURNDATASIZE PUSH1 0x0 REVERT JUMPDEST POP POP POP POP PUSH1 0x40 MLOAD RETURNDATASIZE PUSH1 0x1F NOT PUSH1 0x1F DUP3 ADD AND DUP3 ADD DUP1 PUSH1 0x40 MSTORE POP DUP2 ADD SWAP1 PUSH2 0xD8C SWAP2 SWAP1 PUSH2 0x11ED JUMP JUMPDEST POP SWAP2 SWAP5 POP POP POP POP POP SWAP1 JUMP JUMPDEST PUSH1 0x1 SLOAD PUSH1 0x40 MLOAD PUSH4 0xA9059CBB PUSH1 0xE0 SHL DUP2 MSTORE PUSH1 0x0 SWAP2 PUSH1 0x1 PUSH1 0x1 PUSH1 0xA0 SHL SUB AND SWAP1 PUSH4 0xA9059CBB SWAP1 PUSH2 0xDCA SWAP1 DUP7 SWAP1 DUP7 SWAP1 PUSH1 0x4 ADD PUSH2 0x1253 JUMP JUMPDEST PUSH1 0x20 PUSH1 0x40 MLOAD DUP1 DUP4 SUB DUP2 PUSH1 0x0 DUP8 DUP1 EXTCODESIZE ISZERO DUP1 ISZERO PUSH2 0xDE4 JUMPI PUSH1 0x0 DUP1 REVERT JUMPDEST POP GAS CALL ISZERO DUP1 ISZERO PUSH2 0xDF8 JUMPI RETURNDATASIZE PUSH1 0x0 DUP1 RETURNDATACOPY RETURNDATASIZE PUSH1 0x0 REVERT JUMPDEST POP POP POP POP PUSH1 0x40 MLOAD RETURNDATASIZE PUSH1 0x1F NOT PUSH1 0x1F DUP3 ADD AND DUP3 ADD DUP1 PUSH1 0x40 MSTORE POP DUP2 ADD SWAP1 PUSH2 0xE1C SWAP2 SWAP1 PUSH2 0x119D JUMP JUMPDEST SWAP4 SWAP3 POP POP POP JUMP JUMPDEST PUSH1 0x1 PUSH1 0x1 PUSH1 0xA0 SHL SUB AND PUSH1 0x0 SWAP1 DUP2 MSTORE PUSH1 0x8 PUSH1 0x20 MSTORE PUSH1 0x40 SWAP1 KECCAK256 DUP1 SLOAD PUSH1 0x1 SWAP1 SWAP2 ADD SLOAD SWAP1 SWAP2 JUMP JUMPDEST PUSH1 0x0 PUSH2 0xE50 PUSH2 0xB7C JUMP JUMPDEST ISZERO PUSH2 0xE6D JUMPI PUSH1 0x40 MLOAD PUSH3 0x461BCD PUSH1 0xE5 SHL DUP2 MSTORE PUSH1 0x4 ADD PUSH2 0x428 SWAP1 PUSH2 0x1390 JUMP JUMPDEST CALLER PUSH1 0x0 SWAP1 DUP2 MSTORE PUSH1 0x7 PUSH1 0x20 MSTORE PUSH1 0x40 SWAP1 KECCAK256 SLOAD ISZERO PUSH2 0xE9A JUMPI PUSH1 0x40 MLOAD PUSH3 0x461BCD PUSH1 0xE5 SHL DUP2 MSTORE PUSH1 0x4 ADD PUSH2 0x428 SWAP1 PUSH2 0x12F4 JUMP JUMPDEST PUSH2 0x3E8 CALLVALUE LT ISZERO PUSH2 0xEBC JUMPI PUSH1 0x40 MLOAD PUSH3 0x461BCD PUSH1 0xE5 SHL DUP2 MSTORE PUSH1 0x4 ADD PUSH2 0x428 SWAP1 PUSH2 0x14A9 JUMP JUMPDEST CALLER PUSH1 0x0 SWAP1 DUP2 MSTORE PUSH1 0x7 PUSH1 0x20 MSTORE PUSH1 0x40 DUP2 KECCAK256 DUP1 SLOAD CALLVALUE SWAP3 SWAP1 PUSH2 0xEDB SWAP1 DUP5 SWAP1 PUSH2 0x1504 JUMP JUMPDEST SWAP1 SWAP2 SSTORE POP POP PUSH1 0x5 DUP1 SLOAD PUSH1 0x1 DUP2 ADD DUP3 SSTORE PUSH1 0x0 SWAP2 SWAP1 SWAP2 MSTORE PUSH32 0x36B6384B5ECA791C62761152D0C79BB0604C104A5FB6F4EB0703F3154BB3DB0 ADD DUP1 SLOAD PUSH1 0x1 PUSH1 0x1 PUSH1 0xA0 SHL SUB NOT AND CALLER SWAP1 DUP2 OR SWAP1 SWAP2 SSTORE PUSH1 0x40 MLOAD PUSH32 0x7F48E4F7F3EF2C63408B16A799B8516CB879C145386AEDD51A36938A02A1C283 SWAP2 PUSH2 0xF55 SWAP2 CALLVALUE SWAP1 PUSH2 0x1253 JUMP JUMPDEST PUSH1 0x40 MLOAD DUP1 SWAP2 SUB SWAP1 LOG1 POP PUSH1 0x1 SWAP1 JUMP JUMPDEST PUSH1 0x4 SLOAD DUP2 JUMP JUMPDEST PUSH1 0x3 SLOAD PUSH1 0x1 PUSH1 0x1 PUSH1 0xA0 SHL SUB AND DUP2 JUMP JUMPDEST PUSH2 0xF80 PUSH2 0x105C JUMP JUMPDEST PUSH1 0x1 PUSH1 0x1 PUSH1 0xA0 SHL SUB AND PUSH2 0xF91 PUSH2 0xCEF JUMP JUMPDEST PUSH1 0x1 PUSH1 0x1 PUSH1 0xA0 SHL SUB AND EQ PUSH2 0xFB7 JUMPI PUSH1 0x40 MLOAD PUSH3 0x461BCD PUSH1 0xE5 SHL DUP2 MSTORE PUSH1 0x4 ADD PUSH2 0x428 SWAP1 PUSH2 0x13BA JUMP JUMPDEST PUSH1 0x1 PUSH1 0x1 PUSH1 0xA0 SHL SUB DUP2 AND PUSH2 0xFDD JUMPI PUSH1 0x40 MLOAD PUSH3 0x461BCD PUSH1 0xE5 SHL DUP2 MSTORE PUSH1 0x4 ADD PUSH2 0x428 SWAP1 PUSH2 0x12AE JUMP JUMPDEST PUSH1 0x0 DUP1 SLOAD PUSH1 0x40 MLOAD PUSH1 0x1 PUSH1 0x1 PUSH1 0xA0 SHL SUB DUP1 DUP6 AND SWAP4 PUSH2 0x100 SWAP1 SWAP4 DIV AND SWAP2 PUSH32 0x8BE0079C531659141344CD1FD0A4F28419497F9722A3DAAFE3B4186F6B6457E0 SWAP2 LOG3 PUSH1 0x0 DUP1 SLOAD PUSH1 0x1 PUSH1 0x1 PUSH1 0xA0 SHL SUB SWAP1 SWAP3 AND PUSH2 0x100 MUL PUSH2 0x100 PUSH1 0x1 PUSH1 0xA8 SHL SUB NOT SWAP1 SWAP3 AND SWAP2 SWAP1 SWAP2 OR SWAP1 SSTORE JUMP JUMPDEST PUSH1 0x8 PUSH1 0x20 MSTORE PUSH1 0x0 SWAP1 DUP2 MSTORE PUSH1 0x40 SWAP1 KECCAK256 DUP1 SLOAD PUSH1 0x1 SWAP1 SWAP2 ADD SLOAD DUP3 JUMP JUMPDEST CALLER SWAP1 JUMP JUMPDEST PUSH2 0x1068 PUSH2 0xB7C JUMP JUMPDEST PUSH2 0x1084 JUMPI PUSH1 0x40 MLOAD PUSH3 0x461BCD PUSH1 0xE5 SHL DUP2 MSTORE PUSH1 0x4 ADD PUSH2 0x428 SWAP1 PUSH2 0x1280 JUMP JUMPDEST PUSH1 0x0 DUP1 SLOAD PUSH1 0xFF NOT AND SWAP1 SSTORE PUSH32 0x5DB9EE0A495BF2E6FF9C91A7834C1BA4FDD244A5E8AA4E537BD38AEAE4B073AA PUSH2 0x10B7 PUSH2 0x105C JUMP JUMPDEST PUSH1 0x40 MLOAD PUSH2 0x10C4 SWAP2 SWAP1 PUSH2 0x123F JUMP JUMPDEST PUSH1 0x40 MLOAD DUP1 SWAP2 SUB SWAP1 LOG1 JUMP JUMPDEST PUSH2 0x10D6 PUSH2 0xB7C JUMP JUMPDEST ISZERO PUSH2 0x10F3 JUMPI PUSH1 0x40 MLOAD PUSH3 0x461BCD PUSH1 0xE5 SHL DUP2 MSTORE PUSH1 0x4 ADD PUSH2 0x428 SWAP1 PUSH2 0x1390 JUMP JUMPDEST PUSH1 0x0 DUP1 SLOAD PUSH1 0xFF NOT AND PUSH1 0x1 OR SWAP1 SSTORE PUSH32 0x62E78CEA01BEE320CD4E420270B5EA74000D11B0C9F74754EBDBFC544B05A258 PUSH2 0x10B7 PUSH2 0x105C JUMP JUMPDEST DUP1 CALLDATALOAD PUSH1 0x1 PUSH1 0x1 PUSH1 0xA0 SHL SUB DUP2 AND DUP2 EQ PUSH2 0xA60 JUMPI PUSH1 0x0 DUP1 REVERT JUMPDEST DUP1 MLOAD PUSH10 0xFFFFFFFFFFFFFFFFFFFF DUP2 AND DUP2 EQ PUSH2 0xA60 JUMPI PUSH1 0x0 DUP1 REVERT JUMPDEST PUSH1 0x0 PUSH1 0x20 DUP3 DUP5 SUB SLT ISZERO PUSH2 0x116B JUMPI DUP1 DUP2 REVERT JUMPDEST PUSH2 0xE1C DUP3 PUSH2 0x1129 JUMP JUMPDEST PUSH1 0x0 DUP1 PUSH1 0x40 DUP4 DUP6 SUB SLT ISZERO PUSH2 0x1186 JUMPI DUP1 DUP2 REVERT JUMPDEST PUSH2 0x118F DUP4 PUSH2 0x1129 JUMP JUMPDEST SWAP5 PUSH1 0x20 SWAP4 SWAP1 SWAP4 ADD CALLDATALOAD SWAP4 POP POP POP JUMP JUMPDEST PUSH1 0x0 PUSH1 0x20 DUP3 DUP5 SUB SLT ISZERO PUSH2 0x11AE JUMPI DUP1 DUP2 REVERT JUMPDEST DUP2 MLOAD DUP1 ISZERO ISZERO DUP2 EQ PUSH2 0xE1C JUMPI DUP2 DUP3 REVERT JUMPDEST PUSH1 0x0 PUSH1 0x20 DUP3 DUP5 SUB SLT ISZERO PUSH2 0x11CE JUMPI DUP1 DUP2 REVERT JUMPDEST POP CALLDATALOAD SWAP2 SWAP1 POP JUMP JUMPDEST PUSH1 0x0 PUSH1 0x20 DUP3 DUP5 SUB SLT ISZERO PUSH2 0x11E6 JUMPI DUP1 DUP2 REVERT JUMPDEST POP MLOAD SWAP2 SWAP1 POP JUMP JUMPDEST PUSH1 0x0 DUP1 PUSH1 0x0 DUP1 PUSH1 0x0 PUSH1 0xA0 DUP7 DUP9 SUB SLT ISZERO PUSH2 0x1204 JUMPI DUP1 DUP2 REVERT JUMPDEST PUSH2 0x120D DUP7 PUSH2 0x1140 JUMP JUMPDEST SWAP5 POP PUSH1 0x20 DUP7 ADD MLOAD SWAP4 POP PUSH1 0x40 DUP7 ADD MLOAD SWAP3 POP PUSH1 0x60 DUP7 ADD MLOAD SWAP2 POP PUSH2 0x1230 PUSH1 0x80 DUP8 ADD PUSH2 0x1140 JUMP JUMPDEST SWAP1 POP SWAP3 SWAP6 POP SWAP3 SWAP6 SWAP1 SWAP4 POP JUMP JUMPDEST SWAP1 JUMP JUMPDEST PUSH1 0x1 PUSH1 0x1 PUSH1 0xA0 SHL SUB SWAP2 SWAP1 SWAP2 AND DUP2 MSTORE PUSH1 0x20 ADD SWAP1 JUMP JUMPDEST PUSH1 0x1 PUSH1 0x1 PUSH1 0xA0 SHL SUB SWAP3 SWAP1 SWAP3 AND DUP3 MSTORE PUSH1 0x20 DUP3 ADD MSTORE PUSH1 0x40 ADD SWAP1 JUMP JUMPDEST SWAP1 ISZERO ISZERO DUP2 MSTORE PUSH1 0x20 ADD SWAP1 JUMP JUMPDEST SWAP1 DUP2 MSTORE PUSH1 0x20 ADD SWAP1 JUMP JUMPDEST PUSH1 0x20 DUP1 DUP3 MSTORE PUSH1 0x14 SWAP1 DUP3 ADD MSTORE PUSH20 0x14185D5CD8589B194E881B9BDD081C185D5CD959 PUSH1 0x62 SHL PUSH1 0x40 DUP3 ADD MSTORE PUSH1 0x60 ADD SWAP1 JUMP JUMPDEST PUSH1 0x20 DUP1 DUP3 MSTORE PUSH1 0x26 SWAP1 DUP3 ADD MSTORE PUSH32 0x4F776E61626C653A206E6577206F776E657220697320746865207A65726F2061 PUSH1 0x40 DUP3 ADD MSTORE PUSH6 0x646472657373 PUSH1 0xD0 SHL PUSH1 0x60 DUP3 ADD MSTORE PUSH1 0x80 ADD SWAP1 JUMP JUMPDEST PUSH1 0x20 DUP1 DUP3 MSTORE PUSH1 0x1D SWAP1 DUP3 ADD MSTORE PUSH32 0x596F7520616C726561647920706179206D656265727368697020666565000000 PUSH1 0x40 DUP3 ADD MSTORE PUSH1 0x60 ADD SWAP1 JUMP JUMPDEST PUSH1 0x20 DUP1 DUP3 MSTORE PUSH1 0x1E SWAP1 DUP3 ADD MSTORE PUSH32 0x506C65617365206265636F6D6520536D617274434F4F50206D656D6265720000 PUSH1 0x40 DUP3 ADD MSTORE PUSH1 0x60 ADD SWAP1 JUMP JUMPDEST PUSH1 0x20 DUP1 DUP3 MSTORE PUSH1 0x14 SWAP1 DUP3 ADD MSTORE PUSH20 0x2330B4B632B2103A379039B2B7321022BA3432B9 PUSH1 0x61 SHL PUSH1 0x40 DUP3 ADD MSTORE PUSH1 0x60 ADD SWAP1 JUMP JUMPDEST PUSH1 0x20 DUP1 DUP3 MSTORE PUSH1 0x10 SWAP1 DUP3 ADD MSTORE PUSH16 0x14185D5CD8589B194E881C185D5CD959 PUSH1 0x82 SHL PUSH1 0x40 DUP3 ADD MSTORE PUSH1 0x60 ADD SWAP1 JUMP JUMPDEST PUSH1 0x20 DUP1 DUP3 MSTORE DUP2 DUP2 ADD MSTORE PUSH32 0x4F776E61626C653A2063616C6C6572206973206E6F7420746865206F776E6572 PUSH1 0x40 DUP3 ADD MSTORE PUSH1 0x60 ADD SWAP1 JUMP JUMPDEST PUSH1 0x80 DUP1 DUP3 MSTORE PUSH1 0x1E SWAP1 DUP3 ADD MSTORE PUSH32 0x546F20796F7572206163636F756E7420776173207472616E7366657265640000 PUSH1 0xA0 DUP3 ADD MSTORE PUSH1 0x20 DUP2 ADD SWAP3 SWAP1 SWAP3 MSTORE PUSH1 0xC0 PUSH1 0x40 DUP4 ADD DUP2 SWAP1 MSTORE PUSH1 0x13 SWAP1 DUP4 ADD MSTORE PUSH19 0x105B99081BDB8810D3D3D4081858D8DBDD5B9D PUSH1 0x6A SHL PUSH1 0xE0 DUP4 ADD MSTORE PUSH1 0x60 DUP3 ADD MSTORE PUSH2 0x100 ADD SWAP1 JUMP JUMPDEST PUSH1 0x20 DUP1 DUP3 MSTORE PUSH1 0x2A SWAP1 DUP3 ADD MSTORE PUSH32 0x5468657265207369206E6F20656E6F7567682072617370626572726965732069 PUSH1 0x40 DUP3 ADD MSTORE PUSH10 0x6E20776172686F757365 PUSH1 0xB0 SHL PUSH1 0x60 DUP3 ADD MSTORE PUSH1 0x80 ADD SWAP1 JUMP JUMPDEST PUSH1 0x20 DUP1 DUP3 MSTORE PUSH1 0x1E SWAP1 DUP3 ADD MSTORE PUSH32 0x596561726C7920666565206973206D696E696D756D2031303030207765690000 PUSH1 0x40 DUP3 ADD MSTORE PUSH1 0x60 ADD SWAP1 JUMP JUMPDEST SWAP2 DUP3 MSTORE PUSH1 0x20 DUP3 ADD MSTORE PUSH1 0x40 ADD SWAP1 JUMP JUMPDEST SWAP3 DUP4 MSTORE PUSH1 0x20 DUP4 ADD SWAP2 SWAP1 SWAP2 MSTORE PUSH1 0x40 DUP3 ADD MSTORE PUSH1 0x60 ADD SWAP1 JUMP JUMPDEST PUSH1 0x0 DUP3 NOT DUP3 GT ISZERO PUSH2 0x1517 JUMPI PUSH2 0x1517 PUSH2 0x158D JUMP JUMPDEST POP ADD SWAP1 JUMP JUMPDEST PUSH1 0x0 DUP3 PUSH2 0x1537 JUMPI PUSH4 0x4E487B71 PUSH1 0xE0 SHL DUP2 MSTORE PUSH1 0x12 PUSH1 0x4 MSTORE PUSH1 0x24 DUP2 REVERT JUMPDEST POP DIV SWAP1 JUMP JUMPDEST PUSH1 0x0 DUP2 PUSH1 0x0 NOT DIV DUP4 GT DUP3 ISZERO ISZERO AND ISZERO PUSH2 0x1556 JUMPI PUSH2 0x1556 PUSH2 0x158D JUMP JUMPDEST POP MUL SWAP1 JUMP JUMPDEST PUSH1 0x0 DUP3 DUP3 LT ISZERO PUSH2 0x156D JUMPI PUSH2 0x156D PUSH2 0x158D JUMP JUMPDEST POP SUB SWAP1 JUMP JUMPDEST PUSH1 0x0 PUSH1 0x0 NOT DUP3 EQ ISZERO PUSH2 0x1586 JUMPI PUSH2 0x1586 PUSH2 0x158D JUMP JUMPDEST POP PUSH1 0x1 ADD SWAP1 JUMP JUMPDEST PUSH4 0x4E487B71 PUSH1 0xE0 SHL PUSH1 0x0 MSTORE PUSH1 0x11 PUSH1 0x4 MSTORE PUSH1 0x24 PUSH1 0x0 REVERT INVALID LOG2 PUSH5 0x6970667358 0x22 SLT KECCAK256 0xD3 0xDE 0xA8 PUSH25 0x4832B9CD929BF4B248B530A402E01D1CC95E0DA726D33CE978 DUP13 SLT 0x26 PUSH5 0x736F6C6343 STOP ADDMOD STOP STOP CALLER ","sha1":"480764149fd37d5338c6ea8be2cc84bde0e50aef","source":"// SPDX-License-Identifier: MIT\n\n/**\n    @title SmartCOOP \n    @notice COOP token is based on the OpenZeppelin ERC-20 token standard as defined at ->\n            https://github.com/OpenZeppelin/openzeppelin-contracts/tree/master/contracts/token/ERC20\n            \n            Ownable is definied on following OpenZeppelin address ->\n            https://github.com/OpenZeppelin/openzeppelin-contracts/blob/master/contracts/access/\n */\n\npragma solidity 0.8.0;\n\nimport \"@openzeppelin/contracts/token/ERC20/ERC20.sol\";\nimport \"@openzeppelin/contracts/access/Ownable.sol\";\nimport \"@openzeppelin/contracts/security/Pausable.sol\";\nimport \"@chainlink/contracts/src/v0.8/interfaces/AggregatorV3Interface.sol\";\n\ncontract SmartCOOP is Pausable, Ownable {\n    /* State variables\n     */\n\n    ERC20 private coopToken;\n    AggregatorV3Interface internal priceFeed;\n    address public coopTokenContractAddress;\n    uint256 public raspberryPrice = 9;\n    address[] public members;\n    address[] public warehouseStock;\n\n    struct Cooperant {\n        uint256 feePayed;\n        uint256 kg;\n    }\n\n    struct Bidder {\n        uint256 totalPayed;\n        uint256 kgBought;\n    }\n\n    mapping(address => Cooperant) public cooperants;\n    mapping(address => Bidder) public bidders;\n\n    constructor(address contractAddress) {\n        coopTokenContractAddress = contractAddress;\n        coopToken = ERC20(contractAddress);\n        priceFeed = AggregatorV3Interface(\n            0x9326BFA02ADD2366b30bacB125260Af641031331\n        );\n    }\n\n    /* Events\n     */\n\n    event NewMember(address sender, uint256 amount);\n    event DepositFruits(address cooperant, uint256 kilograms);\n    event TransferMade(\n        string message,\n        uint256 _inEth,\n        string messageTwo,\n        uint256 _inEthSecond\n    );\n    event NotEnoughGoods(string message);\n    event ToContract(address sender, uint256 amount);\n\n    /* Modifiers\n     */\n\n    modifier onlyMembers() {\n        require(\n            cooperants[msg.sender].feePayed != 0,\n            \"Please become SmartCOOP member\"\n        );\n        _;\n    }\n\n    modifier onlyNewMembers() {\n        require(\n            cooperants[msg.sender].feePayed == 0,\n            \"You already pay mebership fee\"\n        );\n        _;\n    }\n\n    modifier minimumFee() {\n        require(msg.value >= 1000, \"Yearly fee is minimum 1000 wei\");\n        _;\n    }\n\n    /* Functions\n     */\n    function becomeCoopMember()\n        public\n        payable\n        whenNotPaused\n        onlyNewMembers\n        minimumFee\n        returns (bool)\n    {\n        cooperants[msg.sender].feePayed += msg.value;\n        members.push(msg.sender);\n        emit NewMember(msg.sender, msg.value);\n        return true;\n    }\n\n    function depositFruitsToCOOP(uint256 _kg)\n        public\n        whenNotPaused\n        onlyMembers\n        returns (bool)\n    {\n        cooperants[msg.sender].kg += _kg;\n        warehouseStock.push(msg.sender);\n        coopTokenTransferTo(msg.sender, _kg * (10**18));\n        emit DepositFruits(msg.sender, _kg);\n        return true;\n    }\n\n    function bid(uint256 _amount) public payable whenNotPaused returns (bool) {\n        for (\n            uint256 warehouseStockIndex = 0;\n            warehouseStockIndex < warehouseStock.length;\n            warehouseStockIndex++\n        ) {\n            address inStockCooperantAddress = warehouseStock[\n                warehouseStockIndex\n            ];\n            if (cooperants[inStockCooperantAddress].kg <= _amount) {\n                uint256 totalPrice = cooperants[inStockCooperantAddress].kg *\n                    raspberryPrice;\n                uint256 priceInWeiProducer = (ethUSD(totalPrice) / 100) * 95;\n                uint256 priceInWeiCOOP = (ethUSD(totalPrice) / 100) * 5;\n\n                (bool sentProducer, ) = inStockCooperantAddress.call{\n                    value: priceInWeiProducer\n                }(\"\");\n                require(sentProducer, \"Failed to send Ether\");\n                delete warehouseStock[warehouseStockIndex];\n                _amount -= cooperants[inStockCooperantAddress].kg;\n                bidders[msg.sender].totalPayed += totalPrice;\n                bidders[msg.sender].kgBought += cooperants[\n                    inStockCooperantAddress\n                ].kg;\n                cooperants[inStockCooperantAddress].kg = 0;\n                emit TransferMade(\n                    \"To your account was transfered\",\n                    priceInWeiProducer,\n                    \"And on COOP account\",\n                    priceInWeiCOOP\n                );\n            } else if (cooperants[inStockCooperantAddress].kg >= _amount) {\n                cooperants[inStockCooperantAddress].kg -= _amount;\n                uint256 totalPrice = _amount * raspberryPrice;\n                uint256 priceInWeiProducer = (ethUSD(totalPrice) / 100) * 95;\n                uint256 priceInWeiCOOP = (ethUSD(totalPrice) / 100) * 5;\n                bidders[msg.sender].kgBought += _amount;\n                bidders[msg.sender].totalPayed += totalPrice;\n\n                (bool sentProducer, ) = inStockCooperantAddress.call{\n                    value: priceInWeiProducer\n                }(\"\");\n                require(sentProducer, \"Failed to send Ether\");\n                emit TransferMade(\n                    \"To your account was transfered\",\n                    priceInWeiProducer,\n                    \"And on COOP account\",\n                    priceInWeiCOOP\n                );\n            } else {\n                emit NotEnoughGoods(\n                    \"There si no enough raspberries in warhouse\"\n                );\n            }\n        }\n        return true;\n    }\n\n    function coopTokenTransferTo(address receiver, uint256 _kg)\n        public\n        returns (bool)\n    {\n        return coopToken.transfer(receiver, _kg);\n    }\n\n    // Withdraw function\n    function withdraw() public onlyOwner returns (bool) {\n        (bool sent, ) = owner().call{value: address(this).balance}(\"\");\n        require(sent, \"Failed to send Ether\");\n        return true;\n    }\n\n    function getUserAccountBalance(address _salje)\n        public\n        view\n        returns (\n            uint256,\n            uint256,\n            uint256\n        )\n    {\n        return (\n            cooperants[_salje].feePayed,\n            cooperants[_salje].kg,\n            coopToken.balanceOf(_salje) / (10**18)\n        );\n    }\n\n    function getBidderAccountBalance(address _salje)\n        public\n        view\n        returns (uint256, uint256)\n    {\n        return (bidders[_salje].totalPayed, bidders[_salje].kgBought);\n    }\n\n    // Function to receive Ether to SmartCOOP contract account\n    receive() external payable {\n        emit ToContract(msg.sender, msg.value);\n    }\n\n    // It will be executed when a function that does not exist is called\n    fallback() external {\n        revert();\n    }\n\n    // Pause possbility function to be executed\n    function pause() public onlyOwner {\n        _pause();\n    }\n\n    // Upause possbility function to be executed\n    function unpause() public onlyOwner {\n        _unpause();\n    }\n\n    // Chainlink price feed for ETH/USD\n    function getLatestPrice() public view returns (int256) {\n        (, int256 price, , , ) = priceFeed.latestRoundData();\n        return price;\n    }\n\n    //Convert amount for goods in USD to wei values\n    function ethUSD(uint256 _amount) public view returns (uint256) {\n        uint256 denominator = uint256(getLatestPrice());\n        uint256 ethInUsdAmount = ((_amount * 1000000000000000000000) /\n            denominator) * 100000;\n        return ethInUsdAmount;\n    }\n}\n","sourcePath":"contracts/SmartCOOP.sol","type":"contract","deployment":{"address":"0xB1952bf19b53Db798Bea12B8717921bf042B9e1E","chainid":"42","blockHeight":28442693}}