{"abi":[{"inputs":[{"internalType":"address","name":"contractAddress","type":"address"}],"stateMutability":"nonpayable","type":"constructor","name":"constructor"},{"anonymous":false,"inputs":[{"indexed":false,"internalType":"address","name":"cooperant","type":"address"},{"indexed":false,"internalType":"uint256","name":"kilograms","type":"uint256"}],"name":"DepositFruits","type":"event"},{"anonymous":false,"inputs":[{"indexed":false,"internalType":"address","name":"sender","type":"address"},{"indexed":false,"internalType":"uint256","name":"amount","type":"uint256"}],"name":"NewMember","type":"event"},{"anonymous":false,"inputs":[{"indexed":false,"internalType":"string","name":"message","type":"string"}],"name":"NotEnoughGoods","type":"event"},{"anonymous":false,"inputs":[{"indexed":true,"internalType":"address","name":"previousOwner","type":"address"},{"indexed":true,"internalType":"address","name":"newOwner","type":"address"}],"name":"OwnershipTransferred","type":"event"},{"anonymous":false,"inputs":[{"indexed":false,"internalType":"address","name":"account","type":"address"}],"name":"Paused","type":"event"},{"anonymous":false,"inputs":[{"indexed":false,"internalType":"string","name":"message","type":"string"},{"indexed":false,"internalType":"uint256","name":"_inEth","type":"uint256"},{"indexed":false,"internalType":"string","name":"messageTwo","type":"string"},{"indexed":false,"internalType":"uint256","name":"_inEthSecond","type":"uint256"}],"name":"TransferMade","type":"event"},{"anonymous":false,"inputs":[{"indexed":false,"internalType":"address","name":"account","type":"address"}],"name":"Unpaused","type":"event"},{"inputs":[],"name":"becomeCoopMember","outputs":[{"internalType":"bool","name":"","type":"bool"}],"stateMutability":"payable","type":"function"},{"inputs":[{"internalType":"uint256","name":"_amount","type":"uint256"}],"name":"bid","outputs":[{"internalType":"bool","name":"","type":"bool"}],"stateMutability":"payable","type":"function"},{"inputs":[],"name":"coopTokenContractAddress","outputs":[{"internalType":"address","name":"","type":"address"}],"stateMutability":"view","type":"function"},{"inputs":[{"internalType":"address","name":"receiver","type":"address"},{"internalType":"uint256","name":"_kg","type":"uint256"}],"name":"coopTokenTransferTo","outputs":[{"internalType":"bool","name":"","type":"bool"}],"stateMutability":"nonpayable","type":"function"},{"inputs":[{"internalType":"address","name":"","type":"address"}],"name":"cooperants","outputs":[{"internalType":"uint256","name":"feePayed","type":"uint256"},{"internalType":"uint256","name":"kg","type":"uint256"}],"stateMutability":"view","type":"function"},{"inputs":[{"internalType":"uint256","name":"_kg","type":"uint256"}],"name":"depositFruitsToCOOP","outputs":[{"internalType":"bool","name":"","type":"bool"}],"stateMutability":"nonpayable","type":"function"},{"inputs":[{"internalType":"uint256","name":"_amount","type":"uint256"}],"name":"ethUSD","outputs":[{"internalType":"uint256","name":"","type":"uint256"}],"stateMutability":"view","type":"function"},{"inputs":[],"name":"getLatestPrice","outputs":[{"internalType":"int256","name":"","type":"int256"}],"stateMutability":"view","type":"function"},{"inputs":[{"internalType":"address","name":"_salje","type":"address"}],"name":"getUserAccountBalance","outputs":[{"internalType":"uint256","name":"","type":"uint256"},{"internalType":"uint256","name":"","type":"uint256"},{"internalType":"uint256","name":"","type":"uint256"}],"stateMutability":"view","type":"function"},{"inputs":[{"internalType":"uint256","name":"","type":"uint256"}],"name":"members","outputs":[{"internalType":"address","name":"","type":"address"}],"stateMutability":"view","type":"function"},{"inputs":[],"name":"owner","outputs":[{"internalType":"address","name":"","type":"address"}],"stateMutability":"view","type":"function"},{"inputs":[],"name":"pause","outputs":[],"stateMutability":"nonpayable","type":"function"},{"inputs":[],"name":"paused","outputs":[{"internalType":"bool","name":"","type":"bool"}],"stateMutability":"view","type":"function"},{"inputs":[],"name":"raspberryPrice","outputs":[{"internalType":"uint256","name":"","type":"uint256"}],"stateMutability":"view","type":"function"},{"inputs":[],"name":"renounceOwnership","outputs":[],"stateMutability":"nonpayable","type":"function"},{"inputs":[{"internalType":"address","name":"newOwner","type":"address"}],"name":"transferOwnership","outputs":[],"stateMutability":"nonpayable","type":"function"},{"inputs":[],"name":"unpause","outputs":[],"stateMutability":"nonpayable","type":"function"},{"inputs":[{"internalType":"uint256","name":"","type":"uint256"}],"name":"warehouseStock","outputs":[{"internalType":"address","name":"","type":"address"}],"stateMutability":"view","type":"function"},{"inputs":[],"name":"withdraw","outputs":[{"internalType":"bool","name":"","type":"bool"}],"stateMutability":"nonpayable","type":"function"}],"bytecode":"6080604052600960045534801561001557600080fd5b50604051611521380380611521833981016040819052610034916100eb565b6000805460ff191681556100466100e7565b60008054610100600160a81b0319166101006001600160a01b038416908102919091178255604051929350917f8be0079c531659141344cd1fd0a4f28419497f9722a3daafe3b4186f6b6457e0908290a350600380546001600160a01b039092166001600160a01b03199283168117909155600180548316909117905560028054909116739326bfa02add2366b30bacb125260af641031331179055610119565b3390565b6000602082840312156100fc578081fd5b81516001600160a01b0381168114610112578182fd5b9392505050565b6113f9806101286000396000f3fe6080604052600436106101145760003560e01c8063715018a6116100a057806399ea22031161006457806399ea2203146102ce578063bfd35626146102ee578063ca3c3a1c146102f6578063ca9687291461030b578063f2fde38b1461032057610114565b8063715018a61461025a5780638456cb591461026f5780638d580d85146102845780638da5cb5b146102a45780638e15f473146102b957610114565b80634f557cb9116100e75780634f557cb91461019d5780635c975abb146101bd5780635daf08ca146101d257806362d5111e146101ff57806364eb384c1461022c57610114565b80633ccfd60b146101195780633f4ba83a146101445780633f7f4f171461015b578063454a2ab31461018a575b600080fd5b34801561012557600080fd5b5061012e610340565b60405161013b919061108c565b60405180910390f35b34801561015057600080fd5b50610159610415565b005b34801561016757600080fd5b5061017b610176366004610f7a565b61045e565b60405161013b9392919061130e565b61012e610198366004610fdd565b61050c565b3480156101a957600080fd5b5061012e6101b8366004610fdd565b6108cd565b3480156101c957600080fd5b5061012e6109d8565b3480156101de57600080fd5b506101f26101ed366004610fdd565b6109e1565b60405161013b919061105f565b34801561020b57600080fd5b5061021f61021a366004610fdd565b610a0b565b60405161013b9190611097565b34801561023857600080fd5b5061024c610247366004610f7a565b610a4d565b60405161013b929190611300565b34801561026657600080fd5b50610159610a66565b34801561027b57600080fd5b50610159610af4565b34801561029057600080fd5b506101f261029f366004610fdd565b610b3b565b3480156102b057600080fd5b506101f2610b4b565b3480156102c557600080fd5b5061021f610b5f565b3480156102da57600080fd5b5061012e6102e9366004610f94565b610bf3565b61012e610c7f565b34801561030257600080fd5b5061021f610d9c565b34801561031757600080fd5b506101f2610da2565b34801561032c57600080fd5b5061015961033b366004610f7a565b610db1565b600061034a610e7c565b6001600160a01b031661035b610b4b565b6001600160a01b03161461038a5760405162461bcd60e51b8152600401610381906111da565b60405180910390fd5b6000610394610b4b565b6001600160a01b0316476040516103aa9061105c565b60006040518083038185875af1925050503d80600081146103e7576040519150601f19603f3d011682016040523d82523d6000602084013e6103ec565b606091505b505090508061040d5760405162461bcd60e51b815260040161038190611182565b600191505090565b61041d610e7c565b6001600160a01b031661042e610b4b565b6001600160a01b0316146104545760405162461bcd60e51b8152600401610381906111da565b61045c610e80565b565b6001600160a01b038082166000908152600760205260408082208054600191820154915492516370a0823160e01b8152939485948594929392909116906370a08231906104af90899060040161105f565b60206040518083038186803b1580156104c757600080fd5b505afa1580156104db573d6000803e3d6000fd5b505050506040513d601f19601f820116820180604052508101906104ff9190610ff5565b9250925092509193909250565b6000805b6006548110156108c25760006006828154811061053d57634e487b7160e01b600052603260045260246000fd5b60009182526020808320909101546001600160a01b031680835260079091526040909120600101549091508410610720576004546001600160a01b03821660009081526007602052604081206001015490916105989161135c565b9050600060646105a783610a0b565b6105b1919061133c565b6105bc90605f61135c565b9050600060646105cb84610a0b565b6105d5919061133c565b6105e090600561135c565b90506000846001600160a01b0316836040516105fb9061105c565b60006040518083038185875af1925050503d8060008114610638576040519150601f19603f3d011682016040523d82523d6000602084013e61063d565b606091505b505090508061065e5760405162461bcd60e51b815260040161038190611182565b6006868154811061067f57634e487b7160e01b600052603260045260246000fd5b6000918252602080832090910180546001600160a01b03191690556001600160a01b03871682526007905260409020600101546106bc908961137b565b6001600160a01b03861660009081526007602052604080822060010191909155519098507f9a93694c4d5aec733b64ffc1f2c820dfdc9c3ee31d369664ecb3d87eb9061b109061070f908590859061120f565b60405180910390a1505050506108af565b6001600160a01b0381166000908152600760205260409020600101548411610879576001600160a01b0381166000908152600760205260408120600101805486929061076d90849061137b565b9091555050600454600090610782908661135c565b90506000606461079183610a0b565b61079b919061133c565b6107a690605f61135c565b9050600060646107b584610a0b565b6107bf919061133c565b6107ca90600561135c565b90506000846001600160a01b0316836040516107e59061105c565b60006040518083038185875af1925050503d8060008114610822576040519150601f19603f3d011682016040523d82523d6000602084013e610827565b606091505b50509050806108485760405162461bcd60e51b815260040161038190611182565b7f9a93694c4d5aec733b64ffc1f2c820dfdc9c3ee31d369664ecb3d87eb9061b10838360405161070f92919061120f565b7face95a40215fc0e010749f22271567a495ff9bba78eff7d7447817795abadc226040516108a69061127f565b60405180910390a15b50806108ba81611392565b915050610510565b50600190505b919050565b60006108d76109d8565b156108f45760405162461bcd60e51b8152600401610381906111b0565b336000908152600760205260409020546109205760405162461bcd60e51b81526004016103819061114b565b3360009081526007602052604081206001018054849290610942908490611324565b9091555050600680546001810182556000919091527ff652222313e28459528d920b65115c16c04f3efc82aaedc97be59f3f377c0d3f0180546001600160a01b031916339081179091556109969083610bf3565b507f255fc9735037ba0730909adcc04691fb7c2dd775114a7e9533ececef8248e52433836040516109c8929190611073565b60405180910390a1506001919050565b60005460ff1690565b600581815481106109f157600080fd5b6000918252602090912001546001600160a01b0316905081565b600080610a16610b5f565b9050600081610a2e85683635c9adc5dea0000061135c565b610a38919061133c565b610a4590620186a061135c565b949350505050565b6007602052600090815260409020805460019091015482565b610a6e610e7c565b6001600160a01b0316610a7f610b4b565b6001600160a01b031614610aa55760405162461bcd60e51b8152600401610381906111da565b600080546040516101009091046001600160a01b0316907f8be0079c531659141344cd1fd0a4f28419497f9722a3daafe3b4186f6b6457e0908390a360008054610100600160a81b0319169055565b610afc610e7c565b6001600160a01b0316610b0d610b4b565b6001600160a01b031614610b335760405162461bcd60e51b8152600401610381906111da565b61045c610eee565b600681815481106109f157600080fd5b60005461010090046001600160a01b031690565b600080600260009054906101000a90046001600160a01b03166001600160a01b031663feaf968c6040518163ffffffff1660e01b815260040160a06040518083038186803b158015610bb057600080fd5b505afa158015610bc4573d6000803e3d6000fd5b505050506040513d601f19601f82011682018060405250810190610be8919061100d565b509194505050505090565b60015460405163a9059cbb60e01b81526000916001600160a01b03169063a9059cbb90610c269086908690600401611073565b602060405180830381600087803b158015610c4057600080fd5b505af1158015610c54573d6000803e3d6000fd5b505050506040513d601f19601f82011682018060405250810190610c789190610fbd565b9392505050565b6000610c896109d8565b15610ca65760405162461bcd60e51b8152600401610381906111b0565b3360009081526007602052604090205415610cd35760405162461bcd60e51b815260040161038190611114565b6103e8341015610cf55760405162461bcd60e51b8152600401610381906112c9565b3360009081526007602052604081208054349290610d14908490611324565b9091555050600580546001810182556000919091527f036b6384b5eca791c62761152d0c79bb0604c104a5fb6f4eb0703f3154bb3db00180546001600160a01b031916339081179091556040517f7f48e4f7f3ef2c63408b16a799b8516cb879c145386aedd51a36938a02a1c28391610d8e913490611073565b60405180910390a150600190565b60045481565b6003546001600160a01b031681565b610db9610e7c565b6001600160a01b0316610dca610b4b565b6001600160a01b031614610df05760405162461bcd60e51b8152600401610381906111da565b6001600160a01b038116610e165760405162461bcd60e51b8152600401610381906110ce565b600080546040516001600160a01b038085169361010090930416917f8be0079c531659141344cd1fd0a4f28419497f9722a3daafe3b4186f6b6457e091a3600080546001600160a01b0390921661010002610100600160a81b0319909216919091179055565b3390565b610e886109d8565b610ea45760405162461bcd60e51b8152600401610381906110a0565b6000805460ff191690557f5db9ee0a495bf2e6ff9c91a7834c1ba4fdd244a5e8aa4e537bd38aeae4b073aa610ed7610e7c565b604051610ee4919061105f565b60405180910390a1565b610ef66109d8565b15610f135760405162461bcd60e51b8152600401610381906111b0565b6000805460ff191660011790557f62e78cea01bee320cd4e420270b5ea74000d11b0c9f74754ebdbfc544b05a258610ed7610e7c565b80356001600160a01b03811681146108c857600080fd5b805169ffffffffffffffffffff811681146108c857600080fd5b600060208284031215610f8b578081fd5b610c7882610f49565b60008060408385031215610fa6578081fd5b610faf83610f49565b946020939093013593505050565b600060208284031215610fce578081fd5b81518015158114610c78578182fd5b600060208284031215610fee578081fd5b5035919050565b600060208284031215611006578081fd5b5051919050565b600080600080600060a08688031215611024578081fd5b61102d86610f60565b945060208601519350604086015192506060860151915061105060808701610f60565b90509295509295909350565b90565b6001600160a01b0391909116815260200190565b6001600160a01b03929092168252602082015260400190565b901515815260200190565b90815260200190565b60208082526014908201527314185d5cd8589b194e881b9bdd081c185d5cd95960621b604082015260600190565b60208082526026908201527f4f776e61626c653a206e6577206f776e657220697320746865207a65726f206160408201526564647265737360d01b606082015260800190565b6020808252601d908201527f596f7520616c726561647920706179206d656265727368697020666565000000604082015260600190565b6020808252601e908201527f506c65617365206265636f6d6520536d617274434f4f50206d656d6265720000604082015260600190565b6020808252601490820152732330b4b632b2103a379039b2b7321022ba3432b960611b604082015260600190565b60208082526010908201526f14185d5cd8589b194e881c185d5cd95960821b604082015260600190565b6020808252818101527f4f776e61626c653a2063616c6c6572206973206e6f7420746865206f776e6572604082015260600190565b6080808252601e908201527f546f20796f7572206163636f756e7420776173207472616e736665726564000060a0820152602081019290925260c06040830181905260139083015272105b99081bdb8810d3d3d4081858d8dbdd5b9d606a1b60e083015260608201526101000190565b6020808252602a908201527f5468657265207369206e6f20656e6f75676820726173706265727269657320696040820152696e20776172686f75736560b01b606082015260800190565b6020808252601e908201527f596561726c7920666565206973206d696e696d756d2031303030207765690000604082015260600190565b918252602082015260400190565b9283526020830191909152604082015260600190565b60008219821115611337576113376113ad565b500190565b60008261135757634e487b7160e01b81526012600452602481fd5b500490565b6000816000190483118215151615611376576113766113ad565b500290565b60008282101561138d5761138d6113ad565b500390565b60006000198214156113a6576113a66113ad565b5060010190565b634e487b7160e01b600052601160045260246000fdfea2646970667358221220e8dbee71880cc948087862df1e6d4449323dedd006047ad6dffa742d50d0872964736f6c63430008000033","bytecodeSha1":"9cbb859c970eb68693f9118c2f5ce392786343c7","compiler":{"evm_version":"istanbul","optimizer":{"enabled":true,"runs":200},"version":"0.8.0+commit.c7dfd78e"},"contractName":"SmartCOOP","language":"Solidity","natspec":{"kind":"dev","methods":{"owner()":{"details":"Returns the address of the current owner."},"paused()":{"details":"Returns true if the contract is paused, and false otherwise."},"renounceOwnership()":{"details":"Leaves the contract without owner. It will not be possible to call `onlyOwner` functions anymore. Can only be called by the current owner. NOTE: Renouncing ownership will leave the contract without an owner, thereby removing any functionality that is only available to the owner."},"transferOwnership(address)":{"details":"Transfers ownership of the contract to a new account (`newOwner`). Can only be called by the current owner."}},"version":1},"opcodes":"PUSH1 0x80 PUSH1 0x40 MSTORE PUSH1 0x4 CALLDATASIZE LT PUSH2 0x114 JUMPI PUSH1 0x0 CALLDATALOAD PUSH1 0xE0 SHR DUP1 PUSH4 0x715018A6 GT PUSH2 0xA0 JUMPI DUP1 PUSH4 0x99EA2203 GT PUSH2 0x64 JUMPI DUP1 PUSH4 0x99EA2203 EQ PUSH2 0x2CE JUMPI DUP1 PUSH4 0xBFD35626 EQ PUSH2 0x2EE JUMPI DUP1 PUSH4 0xCA3C3A1C EQ PUSH2 0x2F6 JUMPI DUP1 PUSH4 0xCA968729 EQ PUSH2 0x30B JUMPI DUP1 PUSH4 0xF2FDE38B EQ PUSH2 0x320 JUMPI PUSH2 0x114 JUMP JUMPDEST DUP1 PUSH4 0x715018A6 EQ PUSH2 0x25A JUMPI DUP1 PUSH4 0x8456CB59 EQ PUSH2 0x26F JUMPI DUP1 PUSH4 0x8D580D85 EQ PUSH2 0x284 JUMPI DUP1 PUSH4 0x8DA5CB5B EQ PUSH2 0x2A4 JUMPI DUP1 PUSH4 0x8E15F473 EQ PUSH2 0x2B9 JUMPI PUSH2 0x114 JUMP JUMPDEST DUP1 PUSH4 0x4F557CB9 GT PUSH2 0xE7 JUMPI DUP1 PUSH4 0x4F557CB9 EQ PUSH2 0x19D JUMPI DUP1 PUSH4 0x5C975ABB EQ PUSH2 0x1BD JUMPI DUP1 PUSH4 0x5DAF08CA EQ PUSH2 0x1D2 JUMPI DUP1 PUSH4 0x62D5111E EQ PUSH2 0x1FF JUMPI DUP1 PUSH4 0x64EB384C EQ PUSH2 0x22C JUMPI PUSH2 0x114 JUMP JUMPDEST DUP1 PUSH4 0x3CCFD60B EQ PUSH2 0x119 JUMPI DUP1 PUSH4 0x3F4BA83A EQ PUSH2 0x144 JUMPI DUP1 PUSH4 0x3F7F4F17 EQ PUSH2 0x15B JUMPI DUP1 PUSH4 0x454A2AB3 EQ PUSH2 0x18A JUMPI JUMPDEST PUSH1 0x0 DUP1 REVERT JUMPDEST CALLVALUE DUP1 ISZERO PUSH2 0x125 JUMPI PUSH1 0x0 DUP1 REVERT JUMPDEST POP PUSH2 0x12E PUSH2 0x340 JUMP JUMPDEST PUSH1 0x40 MLOAD PUSH2 0x13B SWAP2 SWAP1 PUSH2 0x108C JUMP JUMPDEST PUSH1 0x40 MLOAD DUP1 SWAP2 SUB SWAP1 RETURN JUMPDEST CALLVALUE DUP1 ISZERO PUSH2 0x150 JUMPI PUSH1 0x0 DUP1 REVERT JUMPDEST POP PUSH2 0x159 PUSH2 0x415 JUMP JUMPDEST STOP JUMPDEST CALLVALUE DUP1 ISZERO PUSH2 0x167 JUMPI PUSH1 0x0 DUP1 REVERT JUMPDEST POP PUSH2 0x17B PUSH2 0x176 CALLDATASIZE PUSH1 0x4 PUSH2 0xF7A JUMP JUMPDEST PUSH2 0x45E JUMP JUMPDEST PUSH1 0x40 MLOAD PUSH2 0x13B SWAP4 SWAP3 SWAP2 SWAP1 PUSH2 0x130E JUMP JUMPDEST PUSH2 0x12E PUSH2 0x198 CALLDATASIZE PUSH1 0x4 PUSH2 0xFDD JUMP JUMPDEST PUSH2 0x50C JUMP JUMPDEST CALLVALUE DUP1 ISZERO PUSH2 0x1A9 JUMPI PUSH1 0x0 DUP1 REVERT JUMPDEST POP PUSH2 0x12E PUSH2 0x1B8 CALLDATASIZE PUSH1 0x4 PUSH2 0xFDD JUMP JUMPDEST PUSH2 0x8CD JUMP JUMPDEST CALLVALUE DUP1 ISZERO PUSH2 0x1C9 JUMPI PUSH1 0x0 DUP1 REVERT JUMPDEST POP PUSH2 0x12E PUSH2 0x9D8 JUMP JUMPDEST CALLVALUE DUP1 ISZERO PUSH2 0x1DE JUMPI PUSH1 0x0 DUP1 REVERT JUMPDEST POP PUSH2 0x1F2 PUSH2 0x1ED CALLDATASIZE PUSH1 0x4 PUSH2 0xFDD JUMP JUMPDEST PUSH2 0x9E1 JUMP JUMPDEST PUSH1 0x40 MLOAD PUSH2 0x13B SWAP2 SWAP1 PUSH2 0x105F JUMP JUMPDEST CALLVALUE DUP1 ISZERO PUSH2 0x20B JUMPI PUSH1 0x0 DUP1 REVERT JUMPDEST POP PUSH2 0x21F PUSH2 0x21A CALLDATASIZE PUSH1 0x4 PUSH2 0xFDD JUMP JUMPDEST PUSH2 0xA0B JUMP JUMPDEST PUSH1 0x40 MLOAD PUSH2 0x13B SWAP2 SWAP1 PUSH2 0x1097 JUMP JUMPDEST CALLVALUE DUP1 ISZERO PUSH2 0x238 JUMPI PUSH1 0x0 DUP1 REVERT JUMPDEST POP PUSH2 0x24C PUSH2 0x247 CALLDATASIZE PUSH1 0x4 PUSH2 0xF7A JUMP JUMPDEST PUSH2 0xA4D JUMP JUMPDEST PUSH1 0x40 MLOAD PUSH2 0x13B SWAP3 SWAP2 SWAP1 PUSH2 0x1300 JUMP JUMPDEST CALLVALUE DUP1 ISZERO PUSH2 0x266 JUMPI PUSH1 0x0 DUP1 REVERT JUMPDEST POP PUSH2 0x159 PUSH2 0xA66 JUMP JUMPDEST CALLVALUE DUP1 ISZERO PUSH2 0x27B JUMPI PUSH1 0x0 DUP1 REVERT JUMPDEST POP PUSH2 0x159 PUSH2 0xAF4 JUMP JUMPDEST CALLVALUE DUP1 ISZERO PUSH2 0x290 JUMPI PUSH1 0x0 DUP1 REVERT JUMPDEST POP PUSH2 0x1F2 PUSH2 0x29F CALLDATASIZE PUSH1 0x4 PUSH2 0xFDD JUMP JUMPDEST PUSH2 0xB3B JUMP JUMPDEST CALLVALUE DUP1 ISZERO PUSH2 0x2B0 JUMPI PUSH1 0x0 DUP1 REVERT JUMPDEST POP PUSH2 0x1F2 PUSH2 0xB4B JUMP JUMPDEST CALLVALUE DUP1 ISZERO PUSH2 0x2C5 JUMPI PUSH1 0x0 DUP1 REVERT JUMPDEST POP PUSH2 0x21F PUSH2 0xB5F JUMP JUMPDEST CALLVALUE DUP1 ISZERO PUSH2 0x2DA JUMPI PUSH1 0x0 DUP1 REVERT JUMPDEST POP PUSH2 0x12E PUSH2 0x2E9 CALLDATASIZE PUSH1 0x4 PUSH2 0xF94 JUMP JUMPDEST PUSH2 0xBF3 JUMP JUMPDEST PUSH2 0x12E PUSH2 0xC7F JUMP JUMPDEST CALLVALUE DUP1 ISZERO PUSH2 0x302 JUMPI PUSH1 0x0 DUP1 REVERT JUMPDEST POP PUSH2 0x21F PUSH2 0xD9C JUMP JUMPDEST CALLVALUE DUP1 ISZERO PUSH2 0x317 JUMPI PUSH1 0x0 DUP1 REVERT JUMPDEST POP PUSH2 0x1F2 PUSH2 0xDA2 JUMP JUMPDEST CALLVALUE DUP1 ISZERO PUSH2 0x32C JUMPI PUSH1 0x0 DUP1 REVERT JUMPDEST POP PUSH2 0x159 PUSH2 0x33B CALLDATASIZE PUSH1 0x4 PUSH2 0xF7A JUMP JUMPDEST PUSH2 0xDB1 JUMP JUMPDEST PUSH1 0x0 PUSH2 0x34A PUSH2 0xE7C JUMP JUMPDEST PUSH1 0x1 PUSH1 0x1 PUSH1 0xA0 SHL SUB AND PUSH2 0x35B PUSH2 0xB4B JUMP JUMPDEST PUSH1 0x1 PUSH1 0x1 PUSH1 0xA0 SHL SUB AND EQ PUSH2 0x38A JUMPI PUSH1 0x40 MLOAD PUSH3 0x461BCD PUSH1 0xE5 SHL DUP2 MSTORE PUSH1 0x4 ADD PUSH2 0x381 SWAP1 PUSH2 0x11DA JUMP JUMPDEST PUSH1 0x40 MLOAD DUP1 SWAP2 SUB SWAP1 REVERT JUMPDEST PUSH1 0x0 PUSH2 0x394 PUSH2 0xB4B JUMP JUMPDEST PUSH1 0x1 PUSH1 0x1 PUSH1 0xA0 SHL SUB AND SELFBALANCE PUSH1 0x40 MLOAD PUSH2 0x3AA SWAP1 PUSH2 0x105C JUMP JUMPDEST PUSH1 0x0 PUSH1 0x40 MLOAD DUP1 DUP4 SUB DUP2 DUP6 DUP8 GAS CALL SWAP3 POP POP POP RETURNDATASIZE DUP1 PUSH1 0x0 DUP2 EQ PUSH2 0x3E7 JUMPI PUSH1 0x40 MLOAD SWAP2 POP PUSH1 0x1F NOT PUSH1 0x3F RETURNDATASIZE ADD AND DUP3 ADD PUSH1 0x40 MSTORE RETURNDATASIZE DUP3 MSTORE RETURNDATASIZE PUSH1 0x0 PUSH1 0x20 DUP5 ADD RETURNDATACOPY PUSH2 0x3EC JUMP JUMPDEST PUSH1 0x60 SWAP2 POP JUMPDEST POP POP SWAP1 POP DUP1 PUSH2 0x40D JUMPI PUSH1 0x40 MLOAD PUSH3 0x461BCD PUSH1 0xE5 SHL DUP2 MSTORE PUSH1 0x4 ADD PUSH2 0x381 SWAP1 PUSH2 0x1182 JUMP JUMPDEST PUSH1 0x1 SWAP2 POP POP SWAP1 JUMP JUMPDEST PUSH2 0x41D PUSH2 0xE7C JUMP JUMPDEST PUSH1 0x1 PUSH1 0x1 PUSH1 0xA0 SHL SUB AND PUSH2 0x42E PUSH2 0xB4B JUMP JUMPDEST PUSH1 0x1 PUSH1 0x1 PUSH1 0xA0 SHL SUB AND EQ PUSH2 0x454 JUMPI PUSH1 0x40 MLOAD PUSH3 0x461BCD PUSH1 0xE5 SHL DUP2 MSTORE PUSH1 0x4 ADD PUSH2 0x381 SWAP1 PUSH2 0x11DA JUMP JUMPDEST PUSH2 0x45C PUSH2 0xE80 JUMP JUMPDEST JUMP JUMPDEST PUSH1 0x1 PUSH1 0x1 PUSH1 0xA0 SHL SUB DUP1 DUP3 AND PUSH1 0x0 SWAP1 DUP2 MSTORE PUSH1 0x7 PUSH1 0x20 MSTORE PUSH1 0x40 DUP1 DUP3 KECCAK256 DUP1 SLOAD PUSH1 0x1 SWAP2 DUP3 ADD SLOAD SWAP2 SLOAD SWAP3 MLOAD PUSH4 0x70A08231 PUSH1 0xE0 SHL DUP2 MSTORE SWAP4 SWAP5 DUP6 SWAP5 DUP6 SWAP5 SWAP3 SWAP4 SWAP3 SWAP1 SWAP2 AND SWAP1 PUSH4 0x70A08231 SWAP1 PUSH2 0x4AF SWAP1 DUP10 SWAP1 PUSH1 0x4 ADD PUSH2 0x105F JUMP JUMPDEST PUSH1 0x20 PUSH1 0x40 MLOAD DUP1 DUP4 SUB DUP2 DUP7 DUP1 EXTCODESIZE ISZERO DUP1 ISZERO PUSH2 0x4C7 JUMPI PUSH1 0x0 DUP1 REVERT JUMPDEST POP GAS STATICCALL ISZERO DUP1 ISZERO PUSH2 0x4DB JUMPI RETURNDATASIZE PUSH1 0x0 DUP1 RETURNDATACOPY RETURNDATASIZE PUSH1 0x0 REVERT JUMPDEST POP POP POP POP PUSH1 0x40 MLOAD RETURNDATASIZE PUSH1 0x1F NOT PUSH1 0x1F DUP3 ADD AND DUP3 ADD DUP1 PUSH1 0x40 MSTORE POP DUP2 ADD SWAP1 PUSH2 0x4FF SWAP2 SWAP1 PUSH2 0xFF5 JUMP JUMPDEST SWAP3 POP SWAP3 POP SWAP3 POP SWAP2 SWAP4 SWAP1 SWAP3 POP JUMP JUMPDEST PUSH1 0x0 DUP1 JUMPDEST PUSH1 0x6 SLOAD DUP2 LT ISZERO PUSH2 0x8C2 JUMPI PUSH1 0x0 PUSH1 0x6 DUP3 DUP2 SLOAD DUP2 LT PUSH2 0x53D JUMPI PUSH4 0x4E487B71 PUSH1 0xE0 SHL PUSH1 0x0 MSTORE PUSH1 0x32 PUSH1 0x4 MSTORE PUSH1 0x24 PUSH1 0x0 REVERT JUMPDEST PUSH1 0x0 SWAP2 DUP3 MSTORE PUSH1 0x20 DUP1 DUP4 KECCAK256 SWAP1 SWAP2 ADD SLOAD PUSH1 0x1 PUSH1 0x1 PUSH1 0xA0 SHL SUB AND DUP1 DUP4 MSTORE PUSH1 0x7 SWAP1 SWAP2 MSTORE PUSH1 0x40 SWAP1 SWAP2 KECCAK256 PUSH1 0x1 ADD SLOAD SWAP1 SWAP2 POP DUP5 LT PUSH2 0x720 JUMPI PUSH1 0x4 SLOAD PUSH1 0x1 PUSH1 0x1 PUSH1 0xA0 SHL SUB DUP3 AND PUSH1 0x0 SWAP1 DUP2 MSTORE PUSH1 0x7 PUSH1 0x20 MSTORE PUSH1 0x40 DUP2 KECCAK256 PUSH1 0x1 ADD SLOAD SWAP1 SWAP2 PUSH2 0x598 SWAP2 PUSH2 0x135C JUMP JUMPDEST SWAP1 POP PUSH1 0x0 PUSH1 0x64 PUSH2 0x5A7 DUP4 PUSH2 0xA0B JUMP JUMPDEST PUSH2 0x5B1 SWAP2 SWAP1 PUSH2 0x133C JUMP JUMPDEST PUSH2 0x5BC SWAP1 PUSH1 0x5F PUSH2 0x135C JUMP JUMPDEST SWAP1 POP PUSH1 0x0 PUSH1 0x64 PUSH2 0x5CB DUP5 PUSH2 0xA0B JUMP JUMPDEST PUSH2 0x5D5 SWAP2 SWAP1 PUSH2 0x133C JUMP JUMPDEST PUSH2 0x5E0 SWAP1 PUSH1 0x5 PUSH2 0x135C JUMP JUMPDEST SWAP1 POP PUSH1 0x0 DUP5 PUSH1 0x1 PUSH1 0x1 PUSH1 0xA0 SHL SUB AND DUP4 PUSH1 0x40 MLOAD PUSH2 0x5FB SWAP1 PUSH2 0x105C JUMP JUMPDEST PUSH1 0x0 PUSH1 0x40 MLOAD DUP1 DUP4 SUB DUP2 DUP6 DUP8 GAS CALL SWAP3 POP POP POP RETURNDATASIZE DUP1 PUSH1 0x0 DUP2 EQ PUSH2 0x638 JUMPI PUSH1 0x40 MLOAD SWAP2 POP PUSH1 0x1F NOT PUSH1 0x3F RETURNDATASIZE ADD AND DUP3 ADD PUSH1 0x40 MSTORE RETURNDATASIZE DUP3 MSTORE RETURNDATASIZE PUSH1 0x0 PUSH1 0x20 DUP5 ADD RETURNDATACOPY PUSH2 0x63D JUMP JUMPDEST PUSH1 0x60 SWAP2 POP JUMPDEST POP POP SWAP1 POP DUP1 PUSH2 0x65E JUMPI PUSH1 0x40 MLOAD PUSH3 0x461BCD PUSH1 0xE5 SHL DUP2 MSTORE PUSH1 0x4 ADD PUSH2 0x381 SWAP1 PUSH2 0x1182 JUMP JUMPDEST PUSH1 0x6 DUP7 DUP2 SLOAD DUP2 LT PUSH2 0x67F JUMPI PUSH4 0x4E487B71 PUSH1 0xE0 SHL PUSH1 0x0 MSTORE PUSH1 0x32 PUSH1 0x4 MSTORE PUSH1 0x24 PUSH1 0x0 REVERT JUMPDEST PUSH1 0x0 SWAP2 DUP3 MSTORE PUSH1 0x20 DUP1 DUP4 KECCAK256 SWAP1 SWAP2 ADD DUP1 SLOAD PUSH1 0x1 PUSH1 0x1 PUSH1 0xA0 SHL SUB NOT AND SWAP1 SSTORE PUSH1 0x1 PUSH1 0x1 PUSH1 0xA0 SHL SUB DUP8 AND DUP3 MSTORE PUSH1 0x7 SWAP1 MSTORE PUSH1 0x40 SWAP1 KECCAK256 PUSH1 0x1 ADD SLOAD PUSH2 0x6BC SWAP1 DUP10 PUSH2 0x137B JUMP JUMPDEST PUSH1 0x1 PUSH1 0x1 PUSH1 0xA0 SHL SUB DUP7 AND PUSH1 0x0 SWAP1 DUP2 MSTORE PUSH1 0x7 PUSH1 0x20 MSTORE PUSH1 0x40 DUP1 DUP3 KECCAK256 PUSH1 0x1 ADD SWAP2 SWAP1 SWAP2 SSTORE MLOAD SWAP1 SWAP9 POP PUSH32 0x9A93694C4D5AEC733B64FFC1F2C820DFDC9C3EE31D369664ECB3D87EB9061B10 SWAP1 PUSH2 0x70F SWAP1 DUP6 SWAP1 DUP6 SWAP1 PUSH2 0x120F JUMP JUMPDEST PUSH1 0x40 MLOAD DUP1 SWAP2 SUB SWAP1 LOG1 POP POP POP POP PUSH2 0x8AF JUMP JUMPDEST PUSH1 0x1 PUSH1 0x1 PUSH1 0xA0 SHL SUB DUP2 AND PUSH1 0x0 SWAP1 DUP2 MSTORE PUSH1 0x7 PUSH1 0x20 MSTORE PUSH1 0x40 SWAP1 KECCAK256 PUSH1 0x1 ADD SLOAD DUP5 GT PUSH2 0x879 JUMPI PUSH1 0x1 PUSH1 0x1 PUSH1 0xA0 SHL SUB DUP2 AND PUSH1 0x0 SWAP1 DUP2 MSTORE PUSH1 0x7 PUSH1 0x20 MSTORE PUSH1 0x40 DUP2 KECCAK256 PUSH1 0x1 ADD DUP1 SLOAD DUP7 SWAP3 SWAP1 PUSH2 0x76D SWAP1 DUP5 SWAP1 PUSH2 0x137B JUMP JUMPDEST SWAP1 SWAP2 SSTORE POP POP PUSH1 0x4 SLOAD PUSH1 0x0 SWAP1 PUSH2 0x782 SWAP1 DUP7 PUSH2 0x135C JUMP JUMPDEST SWAP1 POP PUSH1 0x0 PUSH1 0x64 PUSH2 0x791 DUP4 PUSH2 0xA0B JUMP JUMPDEST PUSH2 0x79B SWAP2 SWAP1 PUSH2 0x133C JUMP JUMPDEST PUSH2 0x7A6 SWAP1 PUSH1 0x5F PUSH2 0x135C JUMP JUMPDEST SWAP1 POP PUSH1 0x0 PUSH1 0x64 PUSH2 0x7B5 DUP5 PUSH2 0xA0B JUMP JUMPDEST PUSH2 0x7BF SWAP2 SWAP1 PUSH2 0x133C JUMP JUMPDEST PUSH2 0x7CA SWAP1 PUSH1 0x5 PUSH2 0x135C JUMP JUMPDEST SWAP1 POP PUSH1 0x0 DUP5 PUSH1 0x1 PUSH1 0x1 PUSH1 0xA0 SHL SUB AND DUP4 PUSH1 0x40 MLOAD PUSH2 0x7E5 SWAP1 PUSH2 0x105C JUMP JUMPDEST PUSH1 0x0 PUSH1 0x40 MLOAD DUP1 DUP4 SUB DUP2 DUP6 DUP8 GAS CALL SWAP3 POP POP POP RETURNDATASIZE DUP1 PUSH1 0x0 DUP2 EQ PUSH2 0x822 JUMPI PUSH1 0x40 MLOAD SWAP2 POP PUSH1 0x1F NOT PUSH1 0x3F RETURNDATASIZE ADD AND DUP3 ADD PUSH1 0x40 MSTORE RETURNDATASIZE DUP3 MSTORE RETURNDATASIZE PUSH1 0x0 PUSH1 0x20 DUP5 ADD RETURNDATACOPY PUSH2 0x827 JUMP JUMPDEST PUSH1 0x60 SWAP2 POP JUMPDEST POP POP SWAP1 POP DUP1 PUSH2 0x848 JUMPI PUSH1 0x40 MLOAD PUSH3 0x461BCD PUSH1 0xE5 SHL DUP2 MSTORE PUSH1 0x4 ADD PUSH2 0x381 SWAP1 PUSH2 0x1182 JUMP JUMPDEST PUSH32 0x9A93694C4D5AEC733B64FFC1F2C820DFDC9C3EE31D369664ECB3D87EB9061B10 DUP4 DUP4 PUSH1 0x40 MLOAD PUSH2 0x70F SWAP3 SWAP2 SWAP1 PUSH2 0x120F JUMP JUMPDEST PUSH32 0xACE95A40215FC0E010749F22271567A495FF9BBA78EFF7D7447817795ABADC22 PUSH1 0x40 MLOAD PUSH2 0x8A6 SWAP1 PUSH2 0x127F JUMP JUMPDEST PUSH1 0x40 MLOAD DUP1 SWAP2 SUB SWAP1 LOG1 JUMPDEST POP DUP1 PUSH2 0x8BA DUP2 PUSH2 0x1392 JUMP JUMPDEST SWAP2 POP POP PUSH2 0x510 JUMP JUMPDEST POP PUSH1 0x1 SWAP1 POP JUMPDEST SWAP2 SWAP1 POP JUMP JUMPDEST PUSH1 0x0 PUSH2 0x8D7 PUSH2 0x9D8 JUMP JUMPDEST ISZERO PUSH2 0x8F4 JUMPI PUSH1 0x40 MLOAD PUSH3 0x461BCD PUSH1 0xE5 SHL DUP2 MSTORE PUSH1 0x4 ADD PUSH2 0x381 SWAP1 PUSH2 0x11B0 JUMP JUMPDEST CALLER PUSH1 0x0 SWAP1 DUP2 MSTORE PUSH1 0x7 PUSH1 0x20 MSTORE PUSH1 0x40 SWAP1 KECCAK256 SLOAD PUSH2 0x920 JUMPI PUSH1 0x40 MLOAD PUSH3 0x461BCD PUSH1 0xE5 SHL DUP2 MSTORE PUSH1 0x4 ADD PUSH2 0x381 SWAP1 PUSH2 0x114B JUMP JUMPDEST CALLER PUSH1 0x0 SWAP1 DUP2 MSTORE PUSH1 0x7 PUSH1 0x20 MSTORE PUSH1 0x40 DUP2 KECCAK256 PUSH1 0x1 ADD DUP1 SLOAD DUP5 SWAP3 SWAP1 PUSH2 0x942 SWAP1 DUP5 SWAP1 PUSH2 0x1324 JUMP JUMPDEST SWAP1 SWAP2 SSTORE POP POP PUSH1 0x6 DUP1 SLOAD PUSH1 0x1 DUP2 ADD DUP3 SSTORE PUSH1 0x0 SWAP2 SWAP1 SWAP2 MSTORE PUSH32 0xF652222313E28459528D920B65115C16C04F3EFC82AAEDC97BE59F3F377C0D3F ADD DUP1 SLOAD PUSH1 0x1 PUSH1 0x1 PUSH1 0xA0 SHL SUB NOT AND CALLER SWAP1 DUP2 OR SWAP1 SWAP2 SSTORE PUSH2 0x996 SWAP1 DUP4 PUSH2 0xBF3 JUMP JUMPDEST POP PUSH32 0x255FC9735037BA0730909ADCC04691FB7C2DD775114A7E9533ECECEF8248E524 CALLER DUP4 PUSH1 0x40 MLOAD PUSH2 0x9C8 SWAP3 SWAP2 SWAP1 PUSH2 0x1073 JUMP JUMPDEST PUSH1 0x40 MLOAD DUP1 SWAP2 SUB SWAP1 LOG1 POP PUSH1 0x1 SWAP2 SWAP1 POP JUMP JUMPDEST PUSH1 0x0 SLOAD PUSH1 0xFF AND SWAP1 JUMP JUMPDEST PUSH1 0x5 DUP2 DUP2 SLOAD DUP2 LT PUSH2 0x9F1 JUMPI PUSH1 0x0 DUP1 REVERT JUMPDEST PUSH1 0x0 SWAP2 DUP3 MSTORE PUSH1 0x20 SWAP1 SWAP2 KECCAK256 ADD SLOAD PUSH1 0x1 PUSH1 0x1 PUSH1 0xA0 SHL SUB AND SWAP1 POP DUP2 JUMP JUMPDEST PUSH1 0x0 DUP1 PUSH2 0xA16 PUSH2 0xB5F JUMP JUMPDEST SWAP1 POP PUSH1 0x0 DUP2 PUSH2 0xA2E DUP6 PUSH9 0x3635C9ADC5DEA00000 PUSH2 0x135C JUMP JUMPDEST PUSH2 0xA38 SWAP2 SWAP1 PUSH2 0x133C JUMP JUMPDEST PUSH2 0xA45 SWAP1 PUSH3 0x186A0 PUSH2 0x135C JUMP JUMPDEST SWAP5 SWAP4 POP POP POP POP JUMP JUMPDEST PUSH1 0x7 PUSH1 0x20 MSTORE PUSH1 0x0 SWAP1 DUP2 MSTORE PUSH1 0x40 SWAP1 KECCAK256 DUP1 SLOAD PUSH1 0x1 SWAP1 SWAP2 ADD SLOAD DUP3 JUMP JUMPDEST PUSH2 0xA6E PUSH2 0xE7C JUMP JUMPDEST PUSH1 0x1 PUSH1 0x1 PUSH1 0xA0 SHL SUB AND PUSH2 0xA7F PUSH2 0xB4B JUMP JUMPDEST PUSH1 0x1 PUSH1 0x1 PUSH1 0xA0 SHL SUB AND EQ PUSH2 0xAA5 JUMPI PUSH1 0x40 MLOAD PUSH3 0x461BCD PUSH1 0xE5 SHL DUP2 MSTORE PUSH1 0x4 ADD PUSH2 0x381 SWAP1 PUSH2 0x11DA JUMP JUMPDEST PUSH1 0x0 DUP1 SLOAD PUSH1 0x40 MLOAD PUSH2 0x100 SWAP1 SWAP2 DIV PUSH1 0x1 PUSH1 0x1 PUSH1 0xA0 SHL SUB AND SWAP1 PUSH32 0x8BE0079C531659141344CD1FD0A4F28419497F9722A3DAAFE3B4186F6B6457E0 SWAP1 DUP4 SWAP1 LOG3 PUSH1 0x0 DUP1 SLOAD PUSH2 0x100 PUSH1 0x1 PUSH1 0xA8 SHL SUB NOT AND SWAP1 SSTORE JUMP JUMPDEST PUSH2 0xAFC PUSH2 0xE7C JUMP JUMPDEST PUSH1 0x1 PUSH1 0x1 PUSH1 0xA0 SHL SUB AND PUSH2 0xB0D PUSH2 0xB4B JUMP JUMPDEST PUSH1 0x1 PUSH1 0x1 PUSH1 0xA0 SHL SUB AND EQ PUSH2 0xB33 JUMPI PUSH1 0x40 MLOAD PUSH3 0x461BCD PUSH1 0xE5 SHL DUP2 MSTORE PUSH1 0x4 ADD PUSH2 0x381 SWAP1 PUSH2 0x11DA JUMP JUMPDEST PUSH2 0x45C PUSH2 0xEEE JUMP JUMPDEST PUSH1 0x6 DUP2 DUP2 SLOAD DUP2 LT PUSH2 0x9F1 JUMPI PUSH1 0x0 DUP1 REVERT JUMPDEST PUSH1 0x0 SLOAD PUSH2 0x100 SWAP1 DIV PUSH1 0x1 PUSH1 0x1 PUSH1 0xA0 SHL SUB AND SWAP1 JUMP JUMPDEST PUSH1 0x0 DUP1 PUSH1 0x2 PUSH1 0x0 SWAP1 SLOAD SWAP1 PUSH2 0x100 EXP SWAP1 DIV PUSH1 0x1 PUSH1 0x1 PUSH1 0xA0 SHL SUB AND PUSH1 0x1 PUSH1 0x1 PUSH1 0xA0 SHL SUB AND PUSH4 0xFEAF968C PUSH1 0x40 MLOAD DUP2 PUSH4 0xFFFFFFFF AND PUSH1 0xE0 SHL DUP2 MSTORE PUSH1 0x4 ADD PUSH1 0xA0 PUSH1 0x40 MLOAD DUP1 DUP4 SUB DUP2 DUP7 DUP1 EXTCODESIZE ISZERO DUP1 ISZERO PUSH2 0xBB0 JUMPI PUSH1 0x0 DUP1 REVERT JUMPDEST POP GAS STATICCALL ISZERO DUP1 ISZERO PUSH2 0xBC4 JUMPI RETURNDATASIZE PUSH1 0x0 DUP1 RETURNDATACOPY RETURNDATASIZE PUSH1 0x0 REVERT JUMPDEST POP POP POP POP PUSH1 0x40 MLOAD RETURNDATASIZE PUSH1 0x1F NOT PUSH1 0x1F DUP3 ADD AND DUP3 ADD DUP1 PUSH1 0x40 MSTORE POP DUP2 ADD SWAP1 PUSH2 0xBE8 SWAP2 SWAP1 PUSH2 0x100D JUMP JUMPDEST POP SWAP2 SWAP5 POP POP POP POP POP SWAP1 JUMP JUMPDEST PUSH1 0x1 SLOAD PUSH1 0x40 MLOAD PUSH4 0xA9059CBB PUSH1 0xE0 SHL DUP2 MSTORE PUSH1 0x0 SWAP2 PUSH1 0x1 PUSH1 0x1 PUSH1 0xA0 SHL SUB AND SWAP1 PUSH4 0xA9059CBB SWAP1 PUSH2 0xC26 SWAP1 DUP7 SWAP1 DUP7 SWAP1 PUSH1 0x4 ADD PUSH2 0x1073 JUMP JUMPDEST PUSH1 0x20 PUSH1 0x40 MLOAD DUP1 DUP4 SUB DUP2 PUSH1 0x0 DUP8 DUP1 EXTCODESIZE ISZERO DUP1 ISZERO PUSH2 0xC40 JUMPI PUSH1 0x0 DUP1 REVERT JUMPDEST POP GAS CALL ISZERO DUP1 ISZERO PUSH2 0xC54 JUMPI RETURNDATASIZE PUSH1 0x0 DUP1 RETURNDATACOPY RETURNDATASIZE PUSH1 0x0 REVERT JUMPDEST POP POP POP POP PUSH1 0x40 MLOAD RETURNDATASIZE PUSH1 0x1F NOT PUSH1 0x1F DUP3 ADD AND DUP3 ADD DUP1 PUSH1 0x40 MSTORE POP DUP2 ADD SWAP1 PUSH2 0xC78 SWAP2 SWAP1 PUSH2 0xFBD JUMP JUMPDEST SWAP4 SWAP3 POP POP POP JUMP JUMPDEST PUSH1 0x0 PUSH2 0xC89 PUSH2 0x9D8 JUMP JUMPDEST ISZERO PUSH2 0xCA6 JUMPI PUSH1 0x40 MLOAD PUSH3 0x461BCD PUSH1 0xE5 SHL DUP2 MSTORE PUSH1 0x4 ADD PUSH2 0x381 SWAP1 PUSH2 0x11B0 JUMP JUMPDEST CALLER PUSH1 0x0 SWAP1 DUP2 MSTORE PUSH1 0x7 PUSH1 0x20 MSTORE PUSH1 0x40 SWAP1 KECCAK256 SLOAD ISZERO PUSH2 0xCD3 JUMPI PUSH1 0x40 MLOAD PUSH3 0x461BCD PUSH1 0xE5 SHL DUP2 MSTORE PUSH1 0x4 ADD PUSH2 0x381 SWAP1 PUSH2 0x1114 JUMP JUMPDEST PUSH2 0x3E8 CALLVALUE LT ISZERO PUSH2 0xCF5 JUMPI PUSH1 0x40 MLOAD PUSH3 0x461BCD PUSH1 0xE5 SHL DUP2 MSTORE PUSH1 0x4 ADD PUSH2 0x381 SWAP1 PUSH2 0x12C9 JUMP JUMPDEST CALLER PUSH1 0x0 SWAP1 DUP2 MSTORE PUSH1 0x7 PUSH1 0x20 MSTORE PUSH1 0x40 DUP2 KECCAK256 DUP1 SLOAD CALLVALUE SWAP3 SWAP1 PUSH2 0xD14 SWAP1 DUP5 SWAP1 PUSH2 0x1324 JUMP JUMPDEST SWAP1 SWAP2 SSTORE POP POP PUSH1 0x5 DUP1 SLOAD PUSH1 0x1 DUP2 ADD DUP3 SSTORE PUSH1 0x0 SWAP2 SWAP1 SWAP2 MSTORE PUSH32 0x36B6384B5ECA791C62761152D0C79BB0604C104A5FB6F4EB0703F3154BB3DB0 ADD DUP1 SLOAD PUSH1 0x1 PUSH1 0x1 PUSH1 0xA0 SHL SUB NOT AND CALLER SWAP1 DUP2 OR SWAP1 SWAP2 SSTORE PUSH1 0x40 MLOAD PUSH32 0x7F48E4F7F3EF2C63408B16A799B8516CB879C145386AEDD51A36938A02A1C283 SWAP2 PUSH2 0xD8E SWAP2 CALLVALUE SWAP1 PUSH2 0x1073 JUMP JUMPDEST PUSH1 0x40 MLOAD DUP1 SWAP2 SUB SWAP1 LOG1 POP PUSH1 0x1 SWAP1 JUMP JUMPDEST PUSH1 0x4 SLOAD DUP2 JUMP JUMPDEST PUSH1 0x3 SLOAD PUSH1 0x1 PUSH1 0x1 PUSH1 0xA0 SHL SUB AND DUP2 JUMP JUMPDEST PUSH2 0xDB9 PUSH2 0xE7C JUMP JUMPDEST PUSH1 0x1 PUSH1 0x1 PUSH1 0xA0 SHL SUB AND PUSH2 0xDCA PUSH2 0xB4B JUMP JUMPDEST PUSH1 0x1 PUSH1 0x1 PUSH1 0xA0 SHL SUB AND EQ PUSH2 0xDF0 JUMPI PUSH1 0x40 MLOAD PUSH3 0x461BCD PUSH1 0xE5 SHL DUP2 MSTORE PUSH1 0x4 ADD PUSH2 0x381 SWAP1 PUSH2 0x11DA JUMP JUMPDEST PUSH1 0x1 PUSH1 0x1 PUSH1 0xA0 SHL SUB DUP2 AND PUSH2 0xE16 JUMPI PUSH1 0x40 MLOAD PUSH3 0x461BCD PUSH1 0xE5 SHL DUP2 MSTORE PUSH1 0x4 ADD PUSH2 0x381 SWAP1 PUSH2 0x10CE JUMP JUMPDEST PUSH1 0x0 DUP1 SLOAD PUSH1 0x40 MLOAD PUSH1 0x1 PUSH1 0x1 PUSH1 0xA0 SHL SUB DUP1 DUP6 AND SWAP4 PUSH2 0x100 SWAP1 SWAP4 DIV AND SWAP2 PUSH32 0x8BE0079C531659141344CD1FD0A4F28419497F9722A3DAAFE3B4186F6B6457E0 SWAP2 LOG3 PUSH1 0x0 DUP1 SLOAD PUSH1 0x1 PUSH1 0x1 PUSH1 0xA0 SHL SUB SWAP1 SWAP3 AND PUSH2 0x100 MUL PUSH2 0x100 PUSH1 0x1 PUSH1 0xA8 SHL SUB NOT SWAP1 SWAP3 AND SWAP2 SWAP1 SWAP2 OR SWAP1 SSTORE JUMP JUMPDEST CALLER SWAP1 JUMP JUMPDEST PUSH2 0xE88 PUSH2 0x9D8 JUMP JUMPDEST PUSH2 0xEA4 JUMPI PUSH1 0x40 MLOAD PUSH3 0x461BCD PUSH1 0xE5 SHL DUP2 MSTORE PUSH1 0x4 ADD PUSH2 0x381 SWAP1 PUSH2 0x10A0 JUMP JUMPDEST PUSH1 0x0 DUP1 SLOAD PUSH1 0xFF NOT AND SWAP1 SSTORE PUSH32 0x5DB9EE0A495BF2E6FF9C91A7834C1BA4FDD244A5E8AA4E537BD38AEAE4B073AA PUSH2 0xED7 PUSH2 0xE7C JUMP JUMPDEST PUSH1 0x40 MLOAD PUSH2 0xEE4 SWAP2 SWAP1 PUSH2 0x105F JUMP JUMPDEST PUSH1 0x40 MLOAD DUP1 SWAP2 SUB SWAP1 LOG1 JUMP JUMPDEST PUSH2 0xEF6 PUSH2 0x9D8 JUMP JUMPDEST ISZERO PUSH2 0xF13 JUMPI PUSH1 0x40 MLOAD PUSH3 0x461BCD PUSH1 0xE5 SHL DUP2 MSTORE PUSH1 0x4 ADD PUSH2 0x381 SWAP1 PUSH2 0x11B0 JUMP JUMPDEST PUSH1 0x0 DUP1 SLOAD PUSH1 0xFF NOT AND PUSH1 0x1 OR SWAP1 SSTORE PUSH32 0x62E78CEA01BEE320CD4E420270B5EA74000D11B0C9F74754EBDBFC544B05A258 PUSH2 0xED7 PUSH2 0xE7C JUMP JUMPDEST DUP1 CALLDATALOAD PUSH1 0x1 PUSH1 0x1 PUSH1 0xA0 SHL SUB DUP2 AND DUP2 EQ PUSH2 0x8C8 JUMPI PUSH1 0x0 DUP1 REVERT JUMPDEST DUP1 MLOAD PUSH10 0xFFFFFFFFFFFFFFFFFFFF DUP2 AND DUP2 EQ PUSH2 0x8C8 JUMPI PUSH1 0x0 DUP1 REVERT JUMPDEST PUSH1 0x0 PUSH1 0x20 DUP3 DUP5 SUB SLT ISZERO PUSH2 0xF8B JUMPI DUP1 DUP2 REVERT JUMPDEST PUSH2 0xC78 DUP3 PUSH2 0xF49 JUMP JUMPDEST PUSH1 0x0 DUP1 PUSH1 0x40 DUP4 DUP6 SUB SLT ISZERO PUSH2 0xFA6 JUMPI DUP1 DUP2 REVERT JUMPDEST PUSH2 0xFAF DUP4 PUSH2 0xF49 JUMP JUMPDEST SWAP5 PUSH1 0x20 SWAP4 SWAP1 SWAP4 ADD CALLDATALOAD SWAP4 POP POP POP JUMP JUMPDEST PUSH1 0x0 PUSH1 0x20 DUP3 DUP5 SUB SLT ISZERO PUSH2 0xFCE JUMPI DUP1 DUP2 REVERT JUMPDEST DUP2 MLOAD DUP1 ISZERO ISZERO DUP2 EQ PUSH2 0xC78 JUMPI DUP2 DUP3 REVERT JUMPDEST PUSH1 0x0 PUSH1 0x20 DUP3 DUP5 SUB SLT ISZERO PUSH2 0xFEE JUMPI DUP1 DUP2 REVERT JUMPDEST POP CALLDATALOAD SWAP2 SWAP1 POP JUMP JUMPDEST PUSH1 0x0 PUSH1 0x20 DUP3 DUP5 SUB SLT ISZERO PUSH2 0x1006 JUMPI DUP1 DUP2 REVERT JUMPDEST POP MLOAD SWAP2 SWAP1 POP JUMP JUMPDEST PUSH1 0x0 DUP1 PUSH1 0x0 DUP1 PUSH1 0x0 PUSH1 0xA0 DUP7 DUP9 SUB SLT ISZERO PUSH2 0x1024 JUMPI DUP1 DUP2 REVERT JUMPDEST PUSH2 0x102D DUP7 PUSH2 0xF60 JUMP JUMPDEST SWAP5 POP PUSH1 0x20 DUP7 ADD MLOAD SWAP4 POP PUSH1 0x40 DUP7 ADD MLOAD SWAP3 POP PUSH1 0x60 DUP7 ADD MLOAD SWAP2 POP PUSH2 0x1050 PUSH1 0x80 DUP8 ADD PUSH2 0xF60 JUMP JUMPDEST SWAP1 POP SWAP3 SWAP6 POP SWAP3 SWAP6 SWAP1 SWAP4 POP JUMP JUMPDEST SWAP1 JUMP JUMPDEST PUSH1 0x1 PUSH1 0x1 PUSH1 0xA0 SHL SUB SWAP2 SWAP1 SWAP2 AND DUP2 MSTORE PUSH1 0x20 ADD SWAP1 JUMP JUMPDEST PUSH1 0x1 PUSH1 0x1 PUSH1 0xA0 SHL SUB SWAP3 SWAP1 SWAP3 AND DUP3 MSTORE PUSH1 0x20 DUP3 ADD MSTORE PUSH1 0x40 ADD SWAP1 JUMP JUMPDEST SWAP1 ISZERO ISZERO DUP2 MSTORE PUSH1 0x20 ADD SWAP1 JUMP JUMPDEST SWAP1 DUP2 MSTORE PUSH1 0x20 ADD SWAP1 JUMP JUMPDEST PUSH1 0x20 DUP1 DUP3 MSTORE PUSH1 0x14 SWAP1 DUP3 ADD MSTORE PUSH20 0x14185D5CD8589B194E881B9BDD081C185D5CD959 PUSH1 0x62 SHL PUSH1 0x40 DUP3 ADD MSTORE PUSH1 0x60 ADD SWAP1 JUMP JUMPDEST PUSH1 0x20 DUP1 DUP3 MSTORE PUSH1 0x26 SWAP1 DUP3 ADD MSTORE PUSH32 0x4F776E61626C653A206E6577206F776E657220697320746865207A65726F2061 PUSH1 0x40 DUP3 ADD MSTORE PUSH6 0x646472657373 PUSH1 0xD0 SHL PUSH1 0x60 DUP3 ADD MSTORE PUSH1 0x80 ADD SWAP1 JUMP JUMPDEST PUSH1 0x20 DUP1 DUP3 MSTORE PUSH1 0x1D SWAP1 DUP3 ADD MSTORE PUSH32 0x596F7520616C726561647920706179206D656265727368697020666565000000 PUSH1 0x40 DUP3 ADD MSTORE PUSH1 0x60 ADD SWAP1 JUMP JUMPDEST PUSH1 0x20 DUP1 DUP3 MSTORE PUSH1 0x1E SWAP1 DUP3 ADD MSTORE PUSH32 0x506C65617365206265636F6D6520536D617274434F4F50206D656D6265720000 PUSH1 0x40 DUP3 ADD MSTORE PUSH1 0x60 ADD SWAP1 JUMP JUMPDEST PUSH1 0x20 DUP1 DUP3 MSTORE PUSH1 0x14 SWAP1 DUP3 ADD MSTORE PUSH20 0x2330B4B632B2103A379039B2B7321022BA3432B9 PUSH1 0x61 SHL PUSH1 0x40 DUP3 ADD MSTORE PUSH1 0x60 ADD SWAP1 JUMP JUMPDEST PUSH1 0x20 DUP1 DUP3 MSTORE PUSH1 0x10 SWAP1 DUP3 ADD MSTORE PUSH16 0x14185D5CD8589B194E881C185D5CD959 PUSH1 0x82 SHL PUSH1 0x40 DUP3 ADD MSTORE PUSH1 0x60 ADD SWAP1 JUMP JUMPDEST PUSH1 0x20 DUP1 DUP3 MSTORE DUP2 DUP2 ADD MSTORE PUSH32 0x4F776E61626C653A2063616C6C6572206973206E6F7420746865206F776E6572 PUSH1 0x40 DUP3 ADD MSTORE PUSH1 0x60 ADD SWAP1 JUMP JUMPDEST PUSH1 0x80 DUP1 DUP3 MSTORE PUSH1 0x1E SWAP1 DUP3 ADD MSTORE PUSH32 0x546F20796F7572206163636F756E7420776173207472616E7366657265640000 PUSH1 0xA0 DUP3 ADD MSTORE PUSH1 0x20 DUP2 ADD SWAP3 SWAP1 SWAP3 MSTORE PUSH1 0xC0 PUSH1 0x40 DUP4 ADD DUP2 SWAP1 MSTORE PUSH1 0x13 SWAP1 DUP4 ADD MSTORE PUSH19 0x105B99081BDB8810D3D3D4081858D8DBDD5B9D PUSH1 0x6A SHL PUSH1 0xE0 DUP4 ADD MSTORE PUSH1 0x60 DUP3 ADD MSTORE PUSH2 0x100 ADD SWAP1 JUMP JUMPDEST PUSH1 0x20 DUP1 DUP3 MSTORE PUSH1 0x2A SWAP1 DUP3 ADD MSTORE PUSH32 0x5468657265207369206E6F20656E6F7567682072617370626572726965732069 PUSH1 0x40 DUP3 ADD MSTORE PUSH10 0x6E20776172686F757365 PUSH1 0xB0 SHL PUSH1 0x60 DUP3 ADD MSTORE PUSH1 0x80 ADD SWAP1 JUMP JUMPDEST PUSH1 0x20 DUP1 DUP3 MSTORE PUSH1 0x1E SWAP1 DUP3 ADD MSTORE PUSH32 0x596561726C7920666565206973206D696E696D756D2031303030207765690000 PUSH1 0x40 DUP3 ADD MSTORE PUSH1 0x60 ADD SWAP1 JUMP JUMPDEST SWAP2 DUP3 MSTORE PUSH1 0x20 DUP3 ADD MSTORE PUSH1 0x40 ADD SWAP1 JUMP JUMPDEST SWAP3 DUP4 MSTORE PUSH1 0x20 DUP4 ADD SWAP2 SWAP1 SWAP2 MSTORE PUSH1 0x40 DUP3 ADD MSTORE PUSH1 0x60 ADD SWAP1 JUMP JUMPDEST PUSH1 0x0 DUP3 NOT DUP3 GT ISZERO PUSH2 0x1337 JUMPI PUSH2 0x1337 PUSH2 0x13AD JUMP JUMPDEST POP ADD SWAP1 JUMP JUMPDEST PUSH1 0x0 DUP3 PUSH2 0x1357 JUMPI PUSH4 0x4E487B71 PUSH1 0xE0 SHL DUP2 MSTORE PUSH1 0x12 PUSH1 0x4 MSTORE PUSH1 0x24 DUP2 REVERT JUMPDEST POP DIV SWAP1 JUMP JUMPDEST PUSH1 0x0 DUP2 PUSH1 0x0 NOT DIV DUP4 GT DUP3 ISZERO ISZERO AND ISZERO PUSH2 0x1376 JUMPI PUSH2 0x1376 PUSH2 0x13AD JUMP JUMPDEST POP MUL SWAP1 JUMP JUMPDEST PUSH1 0x0 DUP3 DUP3 LT ISZERO PUSH2 0x138D JUMPI PUSH2 0x138D PUSH2 0x13AD JUMP JUMPDEST POP SUB SWAP1 JUMP JUMPDEST PUSH1 0x0 PUSH1 0x0 NOT DUP3 EQ ISZERO PUSH2 0x13A6 JUMPI PUSH2 0x13A6 PUSH2 0x13AD JUMP JUMPDEST POP PUSH1 0x1 ADD SWAP1 JUMP JUMPDEST PUSH4 0x4E487B71 PUSH1 0xE0 SHL PUSH1 0x0 MSTORE PUSH1 0x11 PUSH1 0x4 MSTORE PUSH1 0x24 PUSH1 0x0 REVERT INVALID LOG2 PUSH5 0x6970667358 0x22 SLT KECCAK256 0xE8 0xDB 0xEE PUSH18 0x880CC948087862DF1E6D4449323DEDD00604 PUSH27 0xD6DFFA742D50D0872964736F6C6343000800003300000000000000 ","sha1":"bd5e70fea39bbbca75a38394191a3cacf31cfab7","source":"// SPDX-License-Identifier: MIT\n\n/**\n    @title SmartCOOP \n    @notice COOP token is based on the OpenZeppelin ERC-20 token standard as defined at ->\n            https://github.com/OpenZeppelin/openzeppelin-contracts/tree/master/contracts/token/ERC20\n            \n            Ownable is definied on following OpenZeppelin address ->\n            https://github.com/OpenZeppelin/openzeppelin-contracts/blob/master/contracts/access/\n */\n\npragma solidity 0.8.0;\n\nimport \"@openzeppelin/contracts/token/ERC20/ERC20.sol\";\nimport \"@openzeppelin/contracts/access/Ownable.sol\";\nimport \"@openzeppelin/contracts/security/Pausable.sol\";\nimport \"@chainlink/contracts/src/v0.8/interfaces/AggregatorV3Interface.sol\";\n\npragma solidity 0.8.0;\n\ncontract SmartCOOP is Pausable, Ownable {\n    /* State variables\n     */\n\n    ERC20 private coopToken;\n    AggregatorV3Interface internal priceFeed;\n\n    address public coopTokenContractAddress;\n    uint256 public raspberryPrice = 9;\n    address[] public members;\n    address[] public warehouseStock;\n\n    struct Cooperant {\n        uint256 feePayed;\n        uint256 kg;\n    }\n\n    mapping(address => Cooperant) public cooperants;\n\n    constructor(address contractAddress) {\n        coopTokenContractAddress = contractAddress;\n        coopToken = ERC20(contractAddress);\n        priceFeed = AggregatorV3Interface(\n            0x9326BFA02ADD2366b30bacB125260Af641031331\n        );\n    }\n\n    /* Events\n     */\n\n    event NewMember(address sender, uint256 amount);\n    event DepositFruits(address cooperant, uint256 kilograms);\n    event TransferMade(\n        string message,\n        uint256 _inEth,\n        string messageTwo,\n        uint256 _inEthSecond\n    );\n    event NotEnoughGoods(string message);\n\n    /* Modifiers\n     */\n\n    modifier onlyMembers() {\n        require(\n            cooperants[msg.sender].feePayed != 0,\n            \"Please become SmartCOOP member\"\n        );\n        _;\n    }\n\n    modifier onlyNewMembers() {\n        require(\n            cooperants[msg.sender].feePayed == 0,\n            \"You already pay mebership fee\"\n        );\n        _;\n    }\n\n    modifier minimumFee() {\n        require(msg.value >= 1000, \"Yearly fee is minimum 1000 wei\");\n        _;\n    }\n\n    /* Functions\n     */\n\n    function pause() public onlyOwner {\n        _pause();\n    }\n\n    function unpause() public onlyOwner {\n        _unpause();\n    }\n\n    // Chainlink price feed for ETH/USD\n    function getLatestPrice() public view returns (int256) {\n        (, int256 price, , , ) = priceFeed.latestRoundData();\n        return price;\n    }\n\n    //Convert amount of goods to wei values\n    function ethUSD(uint256 _amount) public view returns (uint256) {\n        uint256 denominator = uint256(getLatestPrice());\n        uint256 ethInUsdAmount = ((_amount * 1000000000000000000000) /\n            denominator) * 100000;\n        return ethInUsdAmount;\n    }\n\n    // Withdraw function\n    function withdraw() public onlyOwner returns (bool) {\n        (bool sent, ) = owner().call{value: address(this).balance}(\"\");\n        require(sent, \"Failed to send Ether\");\n        return true;\n    }\n\n    function becomeCoopMember()\n        public\n        payable\n        whenNotPaused\n        onlyNewMembers\n        minimumFee\n        returns (bool)\n    {\n        cooperants[msg.sender].feePayed += msg.value;\n        members.push(msg.sender);\n        emit NewMember(msg.sender, msg.value);\n        return true;\n    }\n\n    function depositFruitsToCOOP(uint256 _kg)\n        public\n        whenNotPaused\n        onlyMembers\n        returns (bool)\n    {\n        cooperants[msg.sender].kg += _kg;\n        warehouseStock.push(msg.sender);\n        coopTokenTransferTo(msg.sender, _kg); // * (10**18));\n        emit DepositFruits(msg.sender, _kg);\n        return true;\n    }\n\n    function getUserAccountBalance(address _salje)\n        public\n        view\n        returns (\n            uint256,\n            uint256,\n            uint256\n        )\n    {\n        return (\n            cooperants[_salje].feePayed,\n            cooperants[_salje].kg,\n            coopToken.balanceOf(_salje) // (10**18)\n        );\n    }\n\n    function coopTokenTransferTo(address receiver, uint256 _kg)\n        public\n        returns (bool)\n    {\n        // address receiver = msg.sender;\n        return coopToken.transfer(receiver, _kg);\n    }\n\n    function bid(uint256 _amount) public payable returns (bool) {\n        for (\n            uint256 warehouseStockIndex = 0;\n            warehouseStockIndex < warehouseStock.length;\n            warehouseStockIndex++\n        ) {\n            address inStockCooperantAddress = warehouseStock[\n                warehouseStockIndex\n            ];\n            if (cooperants[inStockCooperantAddress].kg <= _amount) {\n                uint256 totalPrice = cooperants[inStockCooperantAddress].kg *\n                    raspberryPrice;\n                uint256 priceInWeiProducer = (ethUSD(totalPrice) / 100) * 95;\n                uint256 priceInWeiCOOP = (ethUSD(totalPrice) / 100) * 5;\n\n                (bool sentProducer, ) = inStockCooperantAddress.call{\n                    value: priceInWeiProducer\n                }(\"\");\n                require(sentProducer, \"Failed to send Ether\");\n                delete warehouseStock[warehouseStockIndex];\n                _amount -= cooperants[inStockCooperantAddress].kg;\n                cooperants[inStockCooperantAddress].kg = 0;\n                emit TransferMade(\n                    \"To your account was transfered\",\n                    priceInWeiProducer,\n                    \"And on COOP account\",\n                    priceInWeiCOOP\n                );\n            } else if (cooperants[inStockCooperantAddress].kg >= _amount) {\n                cooperants[inStockCooperantAddress].kg -= _amount;\n                uint256 totalPrice = _amount * raspberryPrice;\n                uint256 priceInWeiProducer = (ethUSD(totalPrice) / 100) * 95;\n                uint256 priceInWeiCOOP = (ethUSD(totalPrice) / 100) * 5;\n\n                (bool sentProducer, ) = inStockCooperantAddress.call{\n                    value: priceInWeiProducer\n                }(\"\");\n                require(sentProducer, \"Failed to send Ether\");\n                emit TransferMade(\n                    \"To your account was transfered\",\n                    priceInWeiProducer,\n                    \"And on COOP account\",\n                    priceInWeiCOOP\n                );\n            } else {\n                emit NotEnoughGoods(\n                    \"There si no enough raspberries in warhouse\"\n                );\n            }\n        }\n        return true;\n    }\n}\n","sourcePath":"contracts/SmartCOOP.sol","type":"contract","deployment":{"address":"0xeD86a7410c5B2166f8378cEeFA3c4Ae5212AAda9","chainid":"42","blockHeight":28340303}}