{
  "abi": [
    {
      "inputs": [
        {
          "internalType": "address",
          "name": "contractAddress",
          "type": "address"
        }
      ],
      "stateMutability": "nonpayable",
      "type": "constructor"
    },
    {
      "anonymous": false,
      "inputs": [
        {
          "indexed": false,
          "internalType": "address",
          "name": "cooperant",
          "type": "address"
        },
        {
          "indexed": false,
          "internalType": "uint256",
          "name": "kilograms",
          "type": "uint256"
        }
      ],
      "name": "DepositFruits",
      "type": "event"
    },
    {
      "anonymous": false,
      "inputs": [
        {
          "indexed": false,
          "internalType": "address",
          "name": "sender",
          "type": "address"
        },
        {
          "indexed": false,
          "internalType": "uint256",
          "name": "amount",
          "type": "uint256"
        }
      ],
      "name": "NewMember",
      "type": "event"
    },
    {
      "anonymous": false,
      "inputs": [
        {
          "indexed": true,
          "internalType": "address",
          "name": "previousOwner",
          "type": "address"
        },
        {
          "indexed": true,
          "internalType": "address",
          "name": "newOwner",
          "type": "address"
        }
      ],
      "name": "OwnershipTransferred",
      "type": "event"
    },
    {
      "stateMutability": "nonpayable",
      "type": "fallback"
    },
    {
      "inputs": [],
      "name": "becomeCoopMember",
      "outputs": [
        {
          "internalType": "bool",
          "name": "",
          "type": "bool"
        }
      ],
      "stateMutability": "payable",
      "type": "function"
    },
    {
      "inputs": [],
      "name": "coopTokenContractAddress",
      "outputs": [
        {
          "internalType": "address",
          "name": "",
          "type": "address"
        }
      ],
      "stateMutability": "view",
      "type": "function"
    },
    {
      "inputs": [
        {
          "internalType": "address",
          "name": "",
          "type": "address"
        }
      ],
      "name": "cooperants",
      "outputs": [
        {
          "internalType": "uint256",
          "name": "feePayed",
          "type": "uint256"
        },
        {
          "internalType": "uint256",
          "name": "kg",
          "type": "uint256"
        }
      ],
      "stateMutability": "view",
      "type": "function"
    },
    {
      "inputs": [
        {
          "internalType": "uint256",
          "name": "_kg",
          "type": "uint256"
        }
      ],
      "name": "depositFruitsToCOOP",
      "outputs": [
        {
          "internalType": "bool",
          "name": "",
          "type": "bool"
        }
      ],
      "stateMutability": "nonpayable",
      "type": "function"
    },
    {
      "inputs": [
        {
          "internalType": "address",
          "name": "_salje",
          "type": "address"
        }
      ],
      "name": "getUserAccountBalance",
      "outputs": [
        {
          "internalType": "uint256",
          "name": "",
          "type": "uint256"
        },
        {
          "internalType": "uint256",
          "name": "",
          "type": "uint256"
        },
        {
          "internalType": "uint256",
          "name": "",
          "type": "uint256"
        }
      ],
      "stateMutability": "view",
      "type": "function"
    },
    {
      "inputs": [],
      "name": "owner",
      "outputs": [
        {
          "internalType": "address",
          "name": "",
          "type": "address"
        }
      ],
      "stateMutability": "view",
      "type": "function"
    },
    {
      "inputs": [],
      "name": "renounceOwnership",
      "outputs": [],
      "stateMutability": "nonpayable",
      "type": "function"
    },
    {
      "inputs": [
        {
          "internalType": "address",
          "name": "newOwner",
          "type": "address"
        }
      ],
      "name": "transferOwnership",
      "outputs": [],
      "stateMutability": "nonpayable",
      "type": "function"
    },
    {
      "inputs": [
        {
          "internalType": "uint256",
          "name": "_amount",
          "type": "uint256"
        }
      ],
      "name": "withdraw",
      "outputs": [
        {
          "internalType": "bool",
          "name": "",
          "type": "bool"
        }
      ],
      "stateMutability": "payable",
      "type": "function"
    }
  ],
  "bytecode": "608060405234801561001057600080fd5b506040516109ac3803806109ac83398101604081905261002f916100c2565b61003f61003a61006e565b610072565b600280546001600160a01b039092166001600160a01b03199283168117909155600180549092161790556100f0565b3390565b600080546001600160a01b038381166001600160a01b0319831681178455604051919092169283917f8be0079c531659141344cd1fd0a4f28419497f9722a3daafe3b4186f6b6457e09190a35050565b6000602082840312156100d3578081fd5b81516001600160a01b03811681146100e9578182fd5b9392505050565b6108ad806100ff6000396000f3fe6080604052600436106100865760003560e01c8063715018a611610059578063715018a61461013e5780638da5cb5b14610155578063bfd3562614610177578063ca9687291461017f578063f2fde38b1461019457610086565b80632e1a7d4d146100985780633f7f4f17146100c15780634f557cb9146100f057806364eb384c14610110575b34801561009257600080fd5b50600080fd5b6100ab6100a6366004610671565b6101b4565b6040516100b891906106f2565b60405180910390f35b3480156100cd57600080fd5b506100e16100dc366004610623565b610247565b6040516100b8939291906107f4565b3480156100fc57600080fd5b506100ab61010b366004610671565b610307565b34801561011c57600080fd5b5061013061012b366004610623565b6103b7565b6040516100b89291906107e6565b34801561014a57600080fd5b506101536103d0565b005b34801561016157600080fd5b5061016a61041b565b6040516100b891906106a1565b6100ab61042a565b34801561018b57600080fd5b5061016a6104bb565b3480156101a057600080fd5b506101536101af366004610623565b6104ca565b60006101be61053b565b6001600160a01b03166101cf61041b565b6001600160a01b0316146101fe5760405162461bcd60e51b81526004016101f5906107b1565b60405180910390fd5b61020661041b565b6001600160a01b03166108fc839081150290604051600060405180830381858888f1935050505015801561023e573d6000803e3d6000fd5b50600192915050565b6001600160a01b038082166000908152600360205260408082208054600191820154915492516370a0823160e01b8152939485948594929392670de0b6b3a76400009216906370a08231906102a0908a906004016106a1565b60206040518083038186803b1580156102b857600080fd5b505afa1580156102cc573d6000803e3d6000fd5b505050506040513d601f19601f820116820180604052508101906102f09190610689565b6102fa9190610822565b9250925092509193909250565b336000908152600360205260408120546103335760405162461bcd60e51b81526004016101f59061077a565b336000908152600360205260408120600101805484929061035590849061080a565b90915550610375905061037083670de0b6b3a7640000610842565b61053f565b507f255fc9735037ba0730909adcc04691fb7c2dd775114a7e9533ececef8248e52433836040516103a79291906106d9565b60405180910390a1506001919050565b6003602052600090815260409020805460019091015482565b6103d861053b565b6001600160a01b03166103e961041b565b6001600160a01b03161461040f5760405162461bcd60e51b81526004016101f5906107b1565b61041960006105d3565b565b6000546001600160a01b031690565b33600090815260036020526040812054156104575760405162461bcd60e51b81526004016101f590610743565b336000908152600360205260408120805434929061047690849061080a565b90915550506040517f7f48e4f7f3ef2c63408b16a799b8516cb879c145386aedd51a36938a02a1c283906104ad90339034906106d9565b60405180910390a150600190565b6002546001600160a01b031681565b6104d261053b565b6001600160a01b03166104e361041b565b6001600160a01b0316146105095760405162461bcd60e51b81526004016101f5906107b1565b6001600160a01b03811661052f5760405162461bcd60e51b81526004016101f5906106fd565b610538816105d3565b50565b3390565b6001546000906001600160a01b031663beabacc861055b61041b565b33856040518463ffffffff1660e01b815260040161057b939291906106b5565b602060405180830381600087803b15801561059557600080fd5b505af11580156105a9573d6000803e3d6000fd5b505050506040513d601f19601f820116820180604052508101906105cd9190610651565b92915050565b600080546001600160a01b038381166001600160a01b0319831681178455604051919092169283917f8be0079c531659141344cd1fd0a4f28419497f9722a3daafe3b4186f6b6457e09190a35050565b600060208284031215610634578081fd5b81356001600160a01b038116811461064a578182fd5b9392505050565b600060208284031215610662578081fd5b8151801515811461064a578182fd5b600060208284031215610682578081fd5b5035919050565b60006020828403121561069a578081fd5b5051919050565b6001600160a01b0391909116815260200190565b6001600160a01b039384168152919092166020820152604081019190915260600190565b6001600160a01b03929092168252602082015260400190565b901515815260200190565b60208082526026908201527f4f776e61626c653a206e6577206f776e657220697320746865207a65726f206160408201526564647265737360d01b606082015260800190565b6020808252601d908201527f596f7520616c726561647920706179206d656265727368697020666565000000604082015260600190565b6020808252601e908201527f506c65617365206265636f6d6520536d617274434f4f50206d656d6265720000604082015260600190565b6020808252818101527f4f776e61626c653a2063616c6c6572206973206e6f7420746865206f776e6572604082015260600190565b918252602082015260400190565b9283526020830191909152604082015260600190565b6000821982111561081d5761081d610861565b500190565b60008261083d57634e487b7160e01b81526012600452602481fd5b500490565b600081600019048311821515161561085c5761085c610861565b500290565b634e487b7160e01b600052601160045260246000fdfea2646970667358221220fa06a0c73245b2b1ea53a917e22bfa5e319c97af436defb39b6febfefab07e2764736f6c63430008000033",
  "bytecodeSha1": "008c8b2d8cf6e0b9b4dfd5030d7d527ecd9fe375",
  "compiler": {
    "evm_version": "istanbul",
    "optimizer": {
      "enabled": true,
      "runs": 200
    },
    "version": "0.8.0+commit.c7dfd78e"
  },
  "contractName": "Coop",
  "language": "Solidity",
  "natspec": {
    "kind": "dev",
    "methods": {
      "owner()": {
        "details": "Returns the address of the current owner."
      },
      "renounceOwnership()": {
        "details": "Leaves the contract without owner. It will not be possible to call `onlyOwner` functions anymore. Can only be called by the current owner. NOTE: Renouncing ownership will leave the contract without an owner, thereby removing any functionality that is only available to the owner."
      },
      "transferOwnership(address)": {
        "details": "Transfers ownership of the contract to a new account (`newOwner`). Can only be called by the current owner."
      }
    },
    "version": 1
  },
  "opcodes": "PUSH1 0x80 PUSH1 0x40 MSTORE PUSH1 0x4 CALLDATASIZE LT PUSH2 0x86 JUMPI PUSH1 0x0 CALLDATALOAD PUSH1 0xE0 SHR DUP1 PUSH4 0x715018A6 GT PUSH2 0x59 JUMPI DUP1 PUSH4 0x715018A6 EQ PUSH2 0x13E JUMPI DUP1 PUSH4 0x8DA5CB5B EQ PUSH2 0x155 JUMPI DUP1 PUSH4 0xBFD35626 EQ PUSH2 0x177 JUMPI DUP1 PUSH4 0xCA968729 EQ PUSH2 0x17F JUMPI DUP1 PUSH4 0xF2FDE38B EQ PUSH2 0x194 JUMPI PUSH2 0x86 JUMP JUMPDEST DUP1 PUSH4 0x2E1A7D4D EQ PUSH2 0x98 JUMPI DUP1 PUSH4 0x3F7F4F17 EQ PUSH2 0xC1 JUMPI DUP1 PUSH4 0x4F557CB9 EQ PUSH2 0xF0 JUMPI DUP1 PUSH4 0x64EB384C EQ PUSH2 0x110 JUMPI JUMPDEST CALLVALUE DUP1 ISZERO PUSH2 0x92 JUMPI PUSH1 0x0 DUP1 REVERT JUMPDEST POP PUSH1 0x0 DUP1 REVERT JUMPDEST PUSH2 0xAB PUSH2 0xA6 CALLDATASIZE PUSH1 0x4 PUSH2 0x671 JUMP JUMPDEST PUSH2 0x1B4 JUMP JUMPDEST PUSH1 0x40 MLOAD PUSH2 0xB8 SWAP2 SWAP1 PUSH2 0x6F2 JUMP JUMPDEST PUSH1 0x40 MLOAD DUP1 SWAP2 SUB SWAP1 RETURN JUMPDEST CALLVALUE DUP1 ISZERO PUSH2 0xCD JUMPI PUSH1 0x0 DUP1 REVERT JUMPDEST POP PUSH2 0xE1 PUSH2 0xDC CALLDATASIZE PUSH1 0x4 PUSH2 0x623 JUMP JUMPDEST PUSH2 0x247 JUMP JUMPDEST PUSH1 0x40 MLOAD PUSH2 0xB8 SWAP4 SWAP3 SWAP2 SWAP1 PUSH2 0x7F4 JUMP JUMPDEST CALLVALUE DUP1 ISZERO PUSH2 0xFC JUMPI PUSH1 0x0 DUP1 REVERT JUMPDEST POP PUSH2 0xAB PUSH2 0x10B CALLDATASIZE PUSH1 0x4 PUSH2 0x671 JUMP JUMPDEST PUSH2 0x307 JUMP JUMPDEST CALLVALUE DUP1 ISZERO PUSH2 0x11C JUMPI PUSH1 0x0 DUP1 REVERT JUMPDEST POP PUSH2 0x130 PUSH2 0x12B CALLDATASIZE PUSH1 0x4 PUSH2 0x623 JUMP JUMPDEST PUSH2 0x3B7 JUMP JUMPDEST PUSH1 0x40 MLOAD PUSH2 0xB8 SWAP3 SWAP2 SWAP1 PUSH2 0x7E6 JUMP JUMPDEST CALLVALUE DUP1 ISZERO PUSH2 0x14A JUMPI PUSH1 0x0 DUP1 REVERT JUMPDEST POP PUSH2 0x153 PUSH2 0x3D0 JUMP JUMPDEST STOP JUMPDEST CALLVALUE DUP1 ISZERO PUSH2 0x161 JUMPI PUSH1 0x0 DUP1 REVERT JUMPDEST POP PUSH2 0x16A PUSH2 0x41B JUMP JUMPDEST PUSH1 0x40 MLOAD PUSH2 0xB8 SWAP2 SWAP1 PUSH2 0x6A1 JUMP JUMPDEST PUSH2 0xAB PUSH2 0x42A JUMP JUMPDEST CALLVALUE DUP1 ISZERO PUSH2 0x18B JUMPI PUSH1 0x0 DUP1 REVERT JUMPDEST POP PUSH2 0x16A PUSH2 0x4BB JUMP JUMPDEST CALLVALUE DUP1 ISZERO PUSH2 0x1A0 JUMPI PUSH1 0x0 DUP1 REVERT JUMPDEST POP PUSH2 0x153 PUSH2 0x1AF CALLDATASIZE PUSH1 0x4 PUSH2 0x623 JUMP JUMPDEST PUSH2 0x4CA JUMP JUMPDEST PUSH1 0x0 PUSH2 0x1BE PUSH2 0x53B JUMP JUMPDEST PUSH1 0x1 PUSH1 0x1 PUSH1 0xA0 SHL SUB AND PUSH2 0x1CF PUSH2 0x41B JUMP JUMPDEST PUSH1 0x1 PUSH1 0x1 PUSH1 0xA0 SHL SUB AND EQ PUSH2 0x1FE JUMPI PUSH1 0x40 MLOAD PUSH3 0x461BCD PUSH1 0xE5 SHL DUP2 MSTORE PUSH1 0x4 ADD PUSH2 0x1F5 SWAP1 PUSH2 0x7B1 JUMP JUMPDEST PUSH1 0x40 MLOAD DUP1 SWAP2 SUB SWAP1 REVERT JUMPDEST PUSH2 0x206 PUSH2 0x41B JUMP JUMPDEST PUSH1 0x1 PUSH1 0x1 PUSH1 0xA0 SHL SUB AND PUSH2 0x8FC DUP4 SWAP1 DUP2 ISZERO MUL SWAP1 PUSH1 0x40 MLOAD PUSH1 0x0 PUSH1 0x40 MLOAD DUP1 DUP4 SUB DUP2 DUP6 DUP9 DUP9 CALL SWAP4 POP POP POP POP ISZERO DUP1 ISZERO PUSH2 0x23E JUMPI RETURNDATASIZE PUSH1 0x0 DUP1 RETURNDATACOPY RETURNDATASIZE PUSH1 0x0 REVERT JUMPDEST POP PUSH1 0x1 SWAP3 SWAP2 POP POP JUMP JUMPDEST PUSH1 0x1 PUSH1 0x1 PUSH1 0xA0 SHL SUB DUP1 DUP3 AND PUSH1 0x0 SWAP1 DUP2 MSTORE PUSH1 0x3 PUSH1 0x20 MSTORE PUSH1 0x40 DUP1 DUP3 KECCAK256 DUP1 SLOAD PUSH1 0x1 SWAP2 DUP3 ADD SLOAD SWAP2 SLOAD SWAP3 MLOAD PUSH4 0x70A08231 PUSH1 0xE0 SHL DUP2 MSTORE SWAP4 SWAP5 DUP6 SWAP5 DUP6 SWAP5 SWAP3 SWAP4 SWAP3 PUSH8 0xDE0B6B3A7640000 SWAP3 AND SWAP1 PUSH4 0x70A08231 SWAP1 PUSH2 0x2A0 SWAP1 DUP11 SWAP1 PUSH1 0x4 ADD PUSH2 0x6A1 JUMP JUMPDEST PUSH1 0x20 PUSH1 0x40 MLOAD DUP1 DUP4 SUB DUP2 DUP7 DUP1 EXTCODESIZE ISZERO DUP1 ISZERO PUSH2 0x2B8 JUMPI PUSH1 0x0 DUP1 REVERT JUMPDEST POP GAS STATICCALL ISZERO DUP1 ISZERO PUSH2 0x2CC JUMPI RETURNDATASIZE PUSH1 0x0 DUP1 RETURNDATACOPY RETURNDATASIZE PUSH1 0x0 REVERT JUMPDEST POP POP POP POP PUSH1 0x40 MLOAD RETURNDATASIZE PUSH1 0x1F NOT PUSH1 0x1F DUP3 ADD AND DUP3 ADD DUP1 PUSH1 0x40 MSTORE POP DUP2 ADD SWAP1 PUSH2 0x2F0 SWAP2 SWAP1 PUSH2 0x689 JUMP JUMPDEST PUSH2 0x2FA SWAP2 SWAP1 PUSH2 0x822 JUMP JUMPDEST SWAP3 POP SWAP3 POP SWAP3 POP SWAP2 SWAP4 SWAP1 SWAP3 POP JUMP JUMPDEST CALLER PUSH1 0x0 SWAP1 DUP2 MSTORE PUSH1 0x3 PUSH1 0x20 MSTORE PUSH1 0x40 DUP2 KECCAK256 SLOAD PUSH2 0x333 JUMPI PUSH1 0x40 MLOAD PUSH3 0x461BCD PUSH1 0xE5 SHL DUP2 MSTORE PUSH1 0x4 ADD PUSH2 0x1F5 SWAP1 PUSH2 0x77A JUMP JUMPDEST CALLER PUSH1 0x0 SWAP1 DUP2 MSTORE PUSH1 0x3 PUSH1 0x20 MSTORE PUSH1 0x40 DUP2 KECCAK256 PUSH1 0x1 ADD DUP1 SLOAD DUP5 SWAP3 SWAP1 PUSH2 0x355 SWAP1 DUP5 SWAP1 PUSH2 0x80A JUMP JUMPDEST SWAP1 SWAP2 SSTORE POP PUSH2 0x375 SWAP1 POP PUSH2 0x370 DUP4 PUSH8 0xDE0B6B3A7640000 PUSH2 0x842 JUMP JUMPDEST PUSH2 0x53F JUMP JUMPDEST POP PUSH32 0x255FC9735037BA0730909ADCC04691FB7C2DD775114A7E9533ECECEF8248E524 CALLER DUP4 PUSH1 0x40 MLOAD PUSH2 0x3A7 SWAP3 SWAP2 SWAP1 PUSH2 0x6D9 JUMP JUMPDEST PUSH1 0x40 MLOAD DUP1 SWAP2 SUB SWAP1 LOG1 POP PUSH1 0x1 SWAP2 SWAP1 POP JUMP JUMPDEST PUSH1 0x3 PUSH1 0x20 MSTORE PUSH1 0x0 SWAP1 DUP2 MSTORE PUSH1 0x40 SWAP1 KECCAK256 DUP1 SLOAD PUSH1 0x1 SWAP1 SWAP2 ADD SLOAD DUP3 JUMP JUMPDEST PUSH2 0x3D8 PUSH2 0x53B JUMP JUMPDEST PUSH1 0x1 PUSH1 0x1 PUSH1 0xA0 SHL SUB AND PUSH2 0x3E9 PUSH2 0x41B JUMP JUMPDEST PUSH1 0x1 PUSH1 0x1 PUSH1 0xA0 SHL SUB AND EQ PUSH2 0x40F JUMPI PUSH1 0x40 MLOAD PUSH3 0x461BCD PUSH1 0xE5 SHL DUP2 MSTORE PUSH1 0x4 ADD PUSH2 0x1F5 SWAP1 PUSH2 0x7B1 JUMP JUMPDEST PUSH2 0x419 PUSH1 0x0 PUSH2 0x5D3 JUMP JUMPDEST JUMP JUMPDEST PUSH1 0x0 SLOAD PUSH1 0x1 PUSH1 0x1 PUSH1 0xA0 SHL SUB AND SWAP1 JUMP JUMPDEST CALLER PUSH1 0x0 SWAP1 DUP2 MSTORE PUSH1 0x3 PUSH1 0x20 MSTORE PUSH1 0x40 DUP2 KECCAK256 SLOAD ISZERO PUSH2 0x457 JUMPI PUSH1 0x40 MLOAD PUSH3 0x461BCD PUSH1 0xE5 SHL DUP2 MSTORE PUSH1 0x4 ADD PUSH2 0x1F5 SWAP1 PUSH2 0x743 JUMP JUMPDEST CALLER PUSH1 0x0 SWAP1 DUP2 MSTORE PUSH1 0x3 PUSH1 0x20 MSTORE PUSH1 0x40 DUP2 KECCAK256 DUP1 SLOAD CALLVALUE SWAP3 SWAP1 PUSH2 0x476 SWAP1 DUP5 SWAP1 PUSH2 0x80A JUMP JUMPDEST SWAP1 SWAP2 SSTORE POP POP PUSH1 0x40 MLOAD PUSH32 0x7F48E4F7F3EF2C63408B16A799B8516CB879C145386AEDD51A36938A02A1C283 SWAP1 PUSH2 0x4AD SWAP1 CALLER SWAP1 CALLVALUE SWAP1 PUSH2 0x6D9 JUMP JUMPDEST PUSH1 0x40 MLOAD DUP1 SWAP2 SUB SWAP1 LOG1 POP PUSH1 0x1 SWAP1 JUMP JUMPDEST PUSH1 0x2 SLOAD PUSH1 0x1 PUSH1 0x1 PUSH1 0xA0 SHL SUB AND DUP2 JUMP JUMPDEST PUSH2 0x4D2 PUSH2 0x53B JUMP JUMPDEST PUSH1 0x1 PUSH1 0x1 PUSH1 0xA0 SHL SUB AND PUSH2 0x4E3 PUSH2 0x41B JUMP JUMPDEST PUSH1 0x1 PUSH1 0x1 PUSH1 0xA0 SHL SUB AND EQ PUSH2 0x509 JUMPI PUSH1 0x40 MLOAD PUSH3 0x461BCD PUSH1 0xE5 SHL DUP2 MSTORE PUSH1 0x4 ADD PUSH2 0x1F5 SWAP1 PUSH2 0x7B1 JUMP JUMPDEST PUSH1 0x1 PUSH1 0x1 PUSH1 0xA0 SHL SUB DUP2 AND PUSH2 0x52F JUMPI PUSH1 0x40 MLOAD PUSH3 0x461BCD PUSH1 0xE5 SHL DUP2 MSTORE PUSH1 0x4 ADD PUSH2 0x1F5 SWAP1 PUSH2 0x6FD JUMP JUMPDEST PUSH2 0x538 DUP2 PUSH2 0x5D3 JUMP JUMPDEST POP JUMP JUMPDEST CALLER SWAP1 JUMP JUMPDEST PUSH1 0x1 SLOAD PUSH1 0x0 SWAP1 PUSH1 0x1 PUSH1 0x1 PUSH1 0xA0 SHL SUB AND PUSH4 0xBEABACC8 PUSH2 0x55B PUSH2 0x41B JUMP JUMPDEST CALLER DUP6 PUSH1 0x40 MLOAD DUP5 PUSH4 0xFFFFFFFF AND PUSH1 0xE0 SHL DUP2 MSTORE PUSH1 0x4 ADD PUSH2 0x57B SWAP4 SWAP3 SWAP2 SWAP1 PUSH2 0x6B5 JUMP JUMPDEST PUSH1 0x20 PUSH1 0x40 MLOAD DUP1 DUP4 SUB DUP2 PUSH1 0x0 DUP8 DUP1 EXTCODESIZE ISZERO DUP1 ISZERO PUSH2 0x595 JUMPI PUSH1 0x0 DUP1 REVERT JUMPDEST POP GAS CALL ISZERO DUP1 ISZERO PUSH2 0x5A9 JUMPI RETURNDATASIZE PUSH1 0x0 DUP1 RETURNDATACOPY RETURNDATASIZE PUSH1 0x0 REVERT JUMPDEST POP POP POP POP PUSH1 0x40 MLOAD RETURNDATASIZE PUSH1 0x1F NOT PUSH1 0x1F DUP3 ADD AND DUP3 ADD DUP1 PUSH1 0x40 MSTORE POP DUP2 ADD SWAP1 PUSH2 0x5CD SWAP2 SWAP1 PUSH2 0x651 JUMP JUMPDEST SWAP3 SWAP2 POP POP JUMP JUMPDEST PUSH1 0x0 DUP1 SLOAD PUSH1 0x1 PUSH1 0x1 PUSH1 0xA0 SHL SUB DUP4 DUP2 AND PUSH1 0x1 PUSH1 0x1 PUSH1 0xA0 SHL SUB NOT DUP4 AND DUP2 OR DUP5 SSTORE PUSH1 0x40 MLOAD SWAP2 SWAP1 SWAP3 AND SWAP3 DUP4 SWAP2 PUSH32 0x8BE0079C531659141344CD1FD0A4F28419497F9722A3DAAFE3B4186F6B6457E0 SWAP2 SWAP1 LOG3 POP POP JUMP JUMPDEST PUSH1 0x0 PUSH1 0x20 DUP3 DUP5 SUB SLT ISZERO PUSH2 0x634 JUMPI DUP1 DUP2 REVERT JUMPDEST DUP2 CALLDATALOAD PUSH1 0x1 PUSH1 0x1 PUSH1 0xA0 SHL SUB DUP2 AND DUP2 EQ PUSH2 0x64A JUMPI DUP2 DUP3 REVERT JUMPDEST SWAP4 SWAP3 POP POP POP JUMP JUMPDEST PUSH1 0x0 PUSH1 0x20 DUP3 DUP5 SUB SLT ISZERO PUSH2 0x662 JUMPI DUP1 DUP2 REVERT JUMPDEST DUP2 MLOAD DUP1 ISZERO ISZERO DUP2 EQ PUSH2 0x64A JUMPI DUP2 DUP3 REVERT JUMPDEST PUSH1 0x0 PUSH1 0x20 DUP3 DUP5 SUB SLT ISZERO PUSH2 0x682 JUMPI DUP1 DUP2 REVERT JUMPDEST POP CALLDATALOAD SWAP2 SWAP1 POP JUMP JUMPDEST PUSH1 0x0 PUSH1 0x20 DUP3 DUP5 SUB SLT ISZERO PUSH2 0x69A JUMPI DUP1 DUP2 REVERT JUMPDEST POP MLOAD SWAP2 SWAP1 POP JUMP JUMPDEST PUSH1 0x1 PUSH1 0x1 PUSH1 0xA0 SHL SUB SWAP2 SWAP1 SWAP2 AND DUP2 MSTORE PUSH1 0x20 ADD SWAP1 JUMP JUMPDEST PUSH1 0x1 PUSH1 0x1 PUSH1 0xA0 SHL SUB SWAP4 DUP5 AND DUP2 MSTORE SWAP2 SWAP1 SWAP3 AND PUSH1 0x20 DUP3 ADD MSTORE PUSH1 0x40 DUP2 ADD SWAP2 SWAP1 SWAP2 MSTORE PUSH1 0x60 ADD SWAP1 JUMP JUMPDEST PUSH1 0x1 PUSH1 0x1 PUSH1 0xA0 SHL SUB SWAP3 SWAP1 SWAP3 AND DUP3 MSTORE PUSH1 0x20 DUP3 ADD MSTORE PUSH1 0x40 ADD SWAP1 JUMP JUMPDEST SWAP1 ISZERO ISZERO DUP2 MSTORE PUSH1 0x20 ADD SWAP1 JUMP JUMPDEST PUSH1 0x20 DUP1 DUP3 MSTORE PUSH1 0x26 SWAP1 DUP3 ADD MSTORE PUSH32 0x4F776E61626C653A206E6577206F776E657220697320746865207A65726F2061 PUSH1 0x40 DUP3 ADD MSTORE PUSH6 0x646472657373 PUSH1 0xD0 SHL PUSH1 0x60 DUP3 ADD MSTORE PUSH1 0x80 ADD SWAP1 JUMP JUMPDEST PUSH1 0x20 DUP1 DUP3 MSTORE PUSH1 0x1D SWAP1 DUP3 ADD MSTORE PUSH32 0x596F7520616C726561647920706179206D656265727368697020666565000000 PUSH1 0x40 DUP3 ADD MSTORE PUSH1 0x60 ADD SWAP1 JUMP JUMPDEST PUSH1 0x20 DUP1 DUP3 MSTORE PUSH1 0x1E SWAP1 DUP3 ADD MSTORE PUSH32 0x506C65617365206265636F6D6520536D617274434F4F50206D656D6265720000 PUSH1 0x40 DUP3 ADD MSTORE PUSH1 0x60 ADD SWAP1 JUMP JUMPDEST PUSH1 0x20 DUP1 DUP3 MSTORE DUP2 DUP2 ADD MSTORE PUSH32 0x4F776E61626C653A2063616C6C6572206973206E6F7420746865206F776E6572 PUSH1 0x40 DUP3 ADD MSTORE PUSH1 0x60 ADD SWAP1 JUMP JUMPDEST SWAP2 DUP3 MSTORE PUSH1 0x20 DUP3 ADD MSTORE PUSH1 0x40 ADD SWAP1 JUMP JUMPDEST SWAP3 DUP4 MSTORE PUSH1 0x20 DUP4 ADD SWAP2 SWAP1 SWAP2 MSTORE PUSH1 0x40 DUP3 ADD MSTORE PUSH1 0x60 ADD SWAP1 JUMP JUMPDEST PUSH1 0x0 DUP3 NOT DUP3 GT ISZERO PUSH2 0x81D JUMPI PUSH2 0x81D PUSH2 0x861 JUMP JUMPDEST POP ADD SWAP1 JUMP JUMPDEST PUSH1 0x0 DUP3 PUSH2 0x83D JUMPI PUSH4 0x4E487B71 PUSH1 0xE0 SHL DUP2 MSTORE PUSH1 0x12 PUSH1 0x4 MSTORE PUSH1 0x24 DUP2 REVERT JUMPDEST POP DIV SWAP1 JUMP JUMPDEST PUSH1 0x0 DUP2 PUSH1 0x0 NOT DIV DUP4 GT DUP3 ISZERO ISZERO AND ISZERO PUSH2 0x85C JUMPI PUSH2 0x85C PUSH2 0x861 JUMP JUMPDEST POP MUL SWAP1 JUMP JUMPDEST PUSH4 0x4E487B71 PUSH1 0xE0 SHL PUSH1 0x0 MSTORE PUSH1 0x11 PUSH1 0x4 MSTORE PUSH1 0x24 PUSH1 0x0 REVERT INVALID LOG2 PUSH5 0x6970667358 0x22 SLT KECCAK256 STATICCALL MOD LOG0 0xC7 ORIGIN GASLIMIT 0xB2 0xB1 0xEA MSTORE8 0xA9 OR 0xE2 0x2B STATICCALL 0x5E BALANCE SWAP13 SWAP8 0xAF NUMBER PUSH14 0xEFB39B6FEBFEFAB07E2764736F6C PUSH4 0x43000800 STOP CALLER ",
  "sha1": "17d87788e286e5d1013f42e44eadc69bb9bec0c0",
  "source": "// SPDX-License-Identifier: MIT\nimport \"@openzeppelin/contracts/access/Ownable.sol\";\nimport \"@openzeppelin/contracts/token/ERC20/ERC20.sol\";\n\n/**\n    @title SmartCOOP \n    @notice COOP token is based on the OpenZeppelin ERC-20 token standard as defined at\n            https://github.com/OpenZeppelin/openzeppelin-contracts/tree/master/contracts/token/ERC20\n            \n            Ownable is definied on following OpenZeppelin address ->\n            https://github.com/OpenZeppelin/openzeppelin-contracts/blob/master/contracts/access/\n */\n\n\n\npragma solidity 0.8.0;\n\n\ncontract Coop is Ownable {\n   \n    /* State variables\n     */\n\n    ERC20 private coopToken;\n\n    address public coopTokenContractAddress;  \n        \n    struct Cooperant {\n        uint feePayed;\n        uint kg;\n    } \n    \n    // promenio sam iz private u public zbog testa\n    mapping (address => Cooperant) public cooperants;      \n        \n    constructor (address contractAddress) {\n       coopTokenContractAddress = contractAddress;\n       coopToken = ERC20(contractAddress);     \n    } \n\n    /* Events \n     */\n\n    event NewMember (address sender, uint amount);\n    event DepositFruits (address cooperant, uint kilograms);\n   \n    modifier onlyMembers() {\n        require (cooperants[msg.sender].feePayed != 0, \"Please become SmartCOOP member\");\n        _;\n    }\n\n    modifier onlyNewMembers () {\n        require(cooperants[msg.sender].feePayed == 0, \"You already pay mebership fee\");\n        _;\n    }\n\n    /* Functions\n     */ \n     \n    fallback () external {\n        revert();\n    }\n\n    // WIDROW FUNCTION\n    function withdraw(uint _amount) public payable onlyOwner returns (bool) {\n        // Da li ovde treba dva payable\n        payable(owner()).transfer(_amount);\n        // try out with this syntax\n        // (bool sent, bytes memory data)  = owner().call{value:_amount}(\"\");       \n        // require(sent, \"Failed to send Ether\");\n        return true;\n    }\n    \n    // Uneo sam _amount a ova funkcija je bila bez argumenata\n    function becomeCoopMember() public payable onlyNewMembers returns (bool) {        \n        // promenio sam msg.vale u _amount\n        cooperants[msg.sender].feePayed += msg.value; \n        // promenio sam msg.vale u _amount\n        emit NewMember(msg.sender, msg.value); \n        return true;        \n    }      \n\n    function depositFruitsToCOOP(uint _kg) public onlyMembers returns (bool) {       \n        cooperants[msg.sender].kg += _kg;\n        coopTokenTransferTo(_kg*(10**18));  \n        emit DepositFruits (msg.sender, _kg);\n        return true;          \n    }    \n    \n    function getUserAccountBalance(address _salje) public view returns (uint256, uint256, uint256) {\n        return (cooperants[_salje].feePayed, cooperants[_salje].kg, coopToken.balanceOf(_salje)/(10**18));\n    }\n    \n    function coopTokenTransferTo (uint _kg) private returns (bool) {        \n        return coopToken.transfer(owner(), msg.sender, _kg);\n    }      \n    \n    function coopTokenTransferFrom (uint _kg) private onlyMembers returns (bool) {        \n        return coopToken.transfer(msg.sender, owner(), _kg);\n    }      \n}",
  "sourcePath": "contracts/Coop.sol",
  "type": "contract"
}